{
  "_format": "hh-sol-artifact-1",
  "contractName": "FixedRateDistribution",
  "sourceName": "contracts/FixedRateDistribution.sol",
  "abi": [
    {
      "inputs": [
        {
          "internalType": "address",
          "name": "_token",
          "type": "address"
        },
        {
          "internalType": "bool",
          "name": "_paused",
          "type": "bool"
        },
        {
          "internalType": "bool",
          "name": "_multiply",
          "type": "bool"
        },
        {
          "internalType": "uint256",
          "name": "_rate",
          "type": "uint256"
        },
        {
          "internalType": "uint256",
          "name": "_minimumAmount",
          "type": "uint256"
        }
      ],
      "stateMutability": "nonpayable",
      "type": "constructor"
    },
    {
      "inputs": [
        {
          "internalType": "address",
          "name": "target",
          "type": "address"
        }
      ],
      "name": "AddressEmptyCode",
      "type": "error"
    },
    {
      "inputs": [
        {
          "internalType": "address",
          "name": "account",
          "type": "address"
        }
      ],
      "name": "AddressInsufficientBalance",
      "type": "error"
    },
    {
      "inputs": [],
      "name": "FailedInnerCall",
      "type": "error"
    },
    {
      "inputs": [
        {
          "internalType": "address",
          "name": "owner",
          "type": "address"
        }
      ],
      "name": "OwnableInvalidOwner",
      "type": "error"
    },
    {
      "inputs": [
        {
          "internalType": "address",
          "name": "account",
          "type": "address"
        }
      ],
      "name": "OwnableUnauthorizedAccount",
      "type": "error"
    },
    {
      "inputs": [
        {
          "internalType": "address",
          "name": "token",
          "type": "address"
        }
      ],
      "name": "SafeERC20FailedOperation",
      "type": "error"
    },
    {
      "anonymous": false,
      "inputs": [
        {
          "indexed": true,
          "internalType": "address",
          "name": "previousOwner",
          "type": "address"
        },
        {
          "indexed": true,
          "internalType": "address",
          "name": "newOwner",
          "type": "address"
        }
      ],
      "name": "OwnershipTransferred",
      "type": "event"
    },
    {
      "inputs": [],
      "name": "owner",
      "outputs": [
        {
          "internalType": "address",
          "name": "",
          "type": "address"
        }
      ],
      "stateMutability": "view",
      "type": "function"
    },
    {
      "inputs": [],
      "name": "renounceOwnership",
      "outputs": [],
      "stateMutability": "nonpayable",
      "type": "function"
    },
    {
      "inputs": [
        {
          "internalType": "uint256",
          "name": "_minimumAmount",
          "type": "uint256"
        }
      ],
      "name": "setMinimumAmount",
      "outputs": [],
      "stateMutability": "nonpayable",
      "type": "function"
    },
    {
      "inputs": [
        {
          "internalType": "bool",
          "name": "_multiply",
          "type": "bool"
        }
      ],
      "name": "setMultiply",
      "outputs": [],
      "stateMutability": "nonpayable",
      "type": "function"
    },
    {
      "inputs": [
        {
          "internalType": "bool",
          "name": "_paused",
          "type": "bool"
        }
      ],
      "name": "setPaused",
      "outputs": [],
      "stateMutability": "nonpayable",
      "type": "function"
    },
    {
      "inputs": [
        {
          "internalType": "uint256",
          "name": "_rate",
          "type": "uint256"
        }
      ],
      "name": "setRate",
      "outputs": [],
      "stateMutability": "nonpayable",
      "type": "function"
    },
    {
      "inputs": [
        {
          "internalType": "address",
          "name": "newOwner",
          "type": "address"
        }
      ],
      "name": "transferOwnership",
      "outputs": [],
      "stateMutability": "nonpayable",
      "type": "function"
    },
    {
      "inputs": [
        {
          "internalType": "address payable",
          "name": "_to",
          "type": "address"
        },
        {
          "internalType": "uint256",
          "name": "amount",
          "type": "uint256"
        }
      ],
      "name": "withdrawETH",
      "outputs": [],
      "stateMutability": "nonpayable",
      "type": "function"
    },
    {
      "inputs": [
        {
          "internalType": "address",
          "name": "tokenAddress",
          "type": "address"
        },
        {
          "internalType": "address",
          "name": "to",
          "type": "address"
        },
        {
          "internalType": "uint256",
          "name": "amount",
          "type": "uint256"
        }
      ],
      "name": "withdrawToken",
      "outputs": [],
      "stateMutability": "nonpayable",
      "type": "function"
    },
    {
      "stateMutability": "payable",
      "type": "receive"
    }
  ],
  "bytecode": "0x60806040523480156200001157600080fd5b5060405162001489380380620014898339818101604052810190620000379190620002f3565b33600073ffffffffffffffffffffffffffffffffffffffff168173ffffffffffffffffffffffffffffffffffffffff1603620000ad5760006040517f1e4fbdf7000000000000000000000000000000000000000000000000000000008152600401620000a491906200038c565b60405180910390fd5b620000be816200014d60201b60201c565b5083600160146101000a81548160ff02191690831515021790555082600160156101000a81548160ff021916908315150217905550816002819055508060038190555084600160006101000a81548173ffffffffffffffffffffffffffffffffffffffff021916908373ffffffffffffffffffffffffffffffffffffffff1602179055505050505050620003a9565b60008060009054906101000a900473ffffffffffffffffffffffffffffffffffffffff169050816000806101000a81548173ffffffffffffffffffffffffffffffffffffffff021916908373ffffffffffffffffffffffffffffffffffffffff1602179055508173ffffffffffffffffffffffffffffffffffffffff168173ffffffffffffffffffffffffffffffffffffffff167f8be0079c531659141344cd1fd0a4f28419497f9722a3daafe3b4186f6b6457e060405160405180910390a35050565b600080fd5b600073ffffffffffffffffffffffffffffffffffffffff82169050919050565b6000620002438262000216565b9050919050565b620002558162000236565b81146200026157600080fd5b50565b60008151905062000275816200024a565b92915050565b60008115159050919050565b62000292816200027b565b81146200029e57600080fd5b50565b600081519050620002b28162000287565b92915050565b6000819050919050565b620002cd81620002b8565b8114620002d957600080fd5b50565b600081519050620002ed81620002c2565b92915050565b600080600080600060a0868803121562000312576200031162000211565b5b6000620003228882890162000264565b95505060206200033588828901620002a1565b94505060406200034888828901620002a1565b93505060606200035b88828901620002dc565b92505060806200036e88828901620002dc565b9150509295509295909350565b620003868162000236565b82525050565b6000602082019050620003a360008301846200037b565b92915050565b6110d080620003b96000396000f3fe60806040526004361061008a5760003560e01c8063715018a611610059578063715018a6146103375780638da5cb5b1461034e578063eeb4a9c814610379578063f170d20d146103a2578063f2fde38b146103cb5761028e565b806301e336671461029357806316c38b3c146102bc57806334fcf437146102e55780634782f7791461030e5761028e565b3661028e576003543410156100d4576040517f08c379a00000000000000000000000000000000000000000000000000000000081526004016100cb90610a93565b60405180910390fd5b600160149054906101000a900460ff1615610124576040517f08c379a000000000000000000000000000000000000000000000000000000000815260040161011b90610aff565b60405180910390fd5b6000600160159054906101000a900460ff161561015057600254346101499190610b58565b9050610161565b6002543461015e9190610bc9565b90505b600160009054906101000a900473ffffffffffffffffffffffffffffffffffffffff1673ffffffffffffffffffffffffffffffffffffffff166370a08231306040518263ffffffff1660e01b81526004016101bc9190610c3b565b602060405180830381865afa1580156101d9573d6000803e3d6000fd5b505050506040513d601f19601f820116820180604052508101906101fd9190610c87565b81111561023f576040517f08c379a000000000000000000000000000000000000000000000000000000000815260040161023690610d00565b60405180910390fd5b61028c3382600160009054906101000a900473ffffffffffffffffffffffffffffffffffffffff1673ffffffffffffffffffffffffffffffffffffffff166103f49092919063ffffffff16565b005b600080fd5b34801561029f57600080fd5b506102ba60048036038101906102b59190610d61565b610473565b005b3480156102c857600080fd5b506102e360048036038101906102de9190610dec565b6104ab565b005b3480156102f157600080fd5b5061030c60048036038101906103079190610e19565b6104d0565b005b34801561031a57600080fd5b5061033560048036038101906103309190610e84565b6104e2565b005b34801561034357600080fd5b5061034c61059b565b005b34801561035a57600080fd5b506103636105af565b6040516103709190610c3b565b60405180910390f35b34801561038557600080fd5b506103a0600480360381019061039b9190610e19565b6105d8565b005b3480156103ae57600080fd5b506103c960048036038101906103c49190610dec565b6105ea565b005b3480156103d757600080fd5b506103f260048036038101906103ed9190610ec4565b61060f565b005b61046e838473ffffffffffffffffffffffffffffffffffffffff1663a9059cbb8585604051602401610427929190610f00565b604051602081830303815290604052915060e01b6020820180517bffffffffffffffffffffffffffffffffffffffffffffffffffffffff8381831617835250505050610695565b505050565b61047b61072c565b6104a682828573ffffffffffffffffffffffffffffffffffffffff166103f49092919063ffffffff16565b505050565b6104b361072c565b80600160146101000a81548160ff02191690831515021790555050565b6104d861072c565b8060028190555050565b6104ea61072c565b60008273ffffffffffffffffffffffffffffffffffffffff168260405161051090610f5a565b60006040518083038185875af1925050503d806000811461054d576040519150601f19603f3d011682016040523d82523d6000602084013e610552565b606091505b5050905080610596576040517f08c379a000000000000000000000000000000000000000000000000000000000815260040161058d90610fbb565b60405180910390fd5b505050565b6105a361072c565b6105ad60006107b3565b565b60008060009054906101000a900473ffffffffffffffffffffffffffffffffffffffff16905090565b6105e061072c565b8060038190555050565b6105f261072c565b80600160156101000a81548160ff02191690831515021790555050565b61061761072c565b600073ffffffffffffffffffffffffffffffffffffffff168173ffffffffffffffffffffffffffffffffffffffff16036106895760006040517f1e4fbdf70000000000000000000000000000000000000000000000000000000081526004016106809190610c3b565b60405180910390fd5b610692816107b3565b50565b60006106c0828473ffffffffffffffffffffffffffffffffffffffff1661087790919063ffffffff16565b905060008151141580156106e55750808060200190518101906106e39190610ff0565b155b1561072757826040517f5274afe700000000000000000000000000000000000000000000000000000000815260040161071e9190610c3b565b60405180910390fd5b505050565b61073461088d565b73ffffffffffffffffffffffffffffffffffffffff166107526105af565b73ffffffffffffffffffffffffffffffffffffffff16146107b15761077561088d565b6040517f118cdaa70000000000000000000000000000000000000000000000000000000081526004016107a89190610c3b565b60405180910390fd5b565b60008060009054906101000a900473ffffffffffffffffffffffffffffffffffffffff169050816000806101000a81548173ffffffffffffffffffffffffffffffffffffffff021916908373ffffffffffffffffffffffffffffffffffffffff1602179055508173ffffffffffffffffffffffffffffffffffffffff168173ffffffffffffffffffffffffffffffffffffffff167f8be0079c531659141344cd1fd0a4f28419497f9722a3daafe3b4186f6b6457e060405160405180910390a35050565b606061088583836000610895565b905092915050565b600033905090565b6060814710156108dc57306040517fcd7860590000000000000000000000000000000000000000000000000000000081526004016108d39190610c3b565b60405180910390fd5b6000808573ffffffffffffffffffffffffffffffffffffffff1684866040516109059190611083565b60006040518083038185875af1925050503d8060008114610942576040519150601f19603f3d011682016040523d82523d6000602084013e610947565b606091505b5091509150610957868383610962565b925050509392505050565b60608261097757610972826109f1565b6109e9565b6000825114801561099f575060008473ffffffffffffffffffffffffffffffffffffffff163b145b156109e157836040517f9996b3150000000000000000000000000000000000000000000000000000000081526004016109d89190610c3b565b60405180910390fd5b8190506109ea565b5b9392505050565b600081511115610a045780518082602001fd5b6040517f1425ea4200000000000000000000000000000000000000000000000000000000815260040160405180910390fd5b600082825260208201905092915050565b7f496e73756666696369656e74204554482070726f76696465642e000000000000600082015250565b6000610a7d601a83610a36565b9150610a8882610a47565b602082019050919050565b60006020820190508181036000830152610aac81610a70565b9050919050565b7f446973747269627574696f6e206973207061757365642e000000000000000000600082015250565b6000610ae9601783610a36565b9150610af482610ab3565b602082019050919050565b60006020820190508181036000830152610b1881610adc565b9050919050565b6000819050919050565b7f4e487b7100000000000000000000000000000000000000000000000000000000600052601160045260246000fd5b6000610b6382610b1f565b9150610b6e83610b1f565b9250828202610b7c81610b1f565b91508282048414831517610b9357610b92610b29565b5b5092915050565b7f4e487b7100000000000000000000000000000000000000000000000000000000600052601260045260246000fd5b6000610bd482610b1f565b9150610bdf83610b1f565b925082610bef57610bee610b9a565b5b828204905092915050565b600073ffffffffffffffffffffffffffffffffffffffff82169050919050565b6000610c2582610bfa565b9050919050565b610c3581610c1a565b82525050565b6000602082019050610c506000830184610c2c565b92915050565b600080fd5b610c6481610b1f565b8114610c6f57600080fd5b50565b600081519050610c8181610c5b565b92915050565b600060208284031215610c9d57610c9c610c56565b5b6000610cab84828501610c72565b91505092915050565b7f4e6f7420656e6f75676820746f6b656e7320617661696c61626c652e00000000600082015250565b6000610cea601c83610a36565b9150610cf582610cb4565b602082019050919050565b60006020820190508181036000830152610d1981610cdd565b9050919050565b610d2981610c1a565b8114610d3457600080fd5b50565b600081359050610d4681610d20565b92915050565b600081359050610d5b81610c5b565b92915050565b600080600060608486031215610d7a57610d79610c56565b5b6000610d8886828701610d37565b9350506020610d9986828701610d37565b9250506040610daa86828701610d4c565b9150509250925092565b60008115159050919050565b610dc981610db4565b8114610dd457600080fd5b50565b600081359050610de681610dc0565b92915050565b600060208284031215610e0257610e01610c56565b5b6000610e1084828501610dd7565b91505092915050565b600060208284031215610e2f57610e2e610c56565b5b6000610e3d84828501610d4c565b91505092915050565b6000610e5182610bfa565b9050919050565b610e6181610e46565b8114610e6c57600080fd5b50565b600081359050610e7e81610e58565b92915050565b60008060408385031215610e9b57610e9a610c56565b5b6000610ea985828601610e6f565b9250506020610eba85828601610d4c565b9150509250929050565b600060208284031215610eda57610ed9610c56565b5b6000610ee884828501610d37565b91505092915050565b610efa81610b1f565b82525050565b6000604082019050610f156000830185610c2c565b610f226020830184610ef1565b9392505050565b600081905092915050565b50565b6000610f44600083610f29565b9150610f4f82610f34565b600082019050919050565b6000610f6582610f37565b9150819050919050565b7f4661696c656420746f2073656e64204574686572000000000000000000000000600082015250565b6000610fa5601483610a36565b9150610fb082610f6f565b602082019050919050565b60006020820190508181036000830152610fd481610f98565b9050919050565b600081519050610fea81610dc0565b92915050565b60006020828403121561100657611005610c56565b5b600061101484828501610fdb565b91505092915050565b600081519050919050565b60005b8381101561104657808201518184015260208101905061102b565b60008484015250505050565b600061105d8261101d565b6110678185610f29565b9350611077818560208601611028565b80840191505092915050565b600061108f8284611052565b91508190509291505056fea26469706673582212201c8e25ac8bc35336d832fdca549bcbe645b7a7d79c69ccb5c877dd97e25c603664736f6c63430008180033",
  "linkReferences": {},
  "deployedLinkReferences": {}
}