{
  "_format": "hh-sol-artifact-1",
  "contractName": "FixedRateDistribution",
  "sourceName": "contracts/FixedRateDistribution.sol",
  "abi": [
    {
      "inputs": [
        {
          "internalType": "address",
          "name": "_token",
          "type": "address"
        },
        {
          "internalType": "bool",
          "name": "_paused",
          "type": "bool"
        },
        {
          "internalType": "uint256",
          "name": "_rate",
          "type": "uint256"
        }
      ],
      "stateMutability": "nonpayable",
      "type": "constructor"
    },
    {
      "inputs": [
        {
          "internalType": "address",
          "name": "owner",
          "type": "address"
        }
      ],
      "name": "OwnableInvalidOwner",
      "type": "error"
    },
    {
      "inputs": [
        {
          "internalType": "address",
          "name": "account",
          "type": "address"
        }
      ],
      "name": "OwnableUnauthorizedAccount",
      "type": "error"
    },
    {
      "anonymous": false,
      "inputs": [
        {
          "indexed": true,
          "internalType": "address",
          "name": "previousOwner",
          "type": "address"
        },
        {
          "indexed": true,
          "internalType": "address",
          "name": "newOwner",
          "type": "address"
        }
      ],
      "name": "OwnershipTransferred",
      "type": "event"
    },
    {
      "inputs": [],
      "name": "owner",
      "outputs": [
        {
          "internalType": "address",
          "name": "",
          "type": "address"
        }
      ],
      "stateMutability": "view",
      "type": "function"
    },
    {
      "inputs": [],
      "name": "renounceOwnership",
      "outputs": [],
      "stateMutability": "nonpayable",
      "type": "function"
    },
    {
      "inputs": [
        {
          "internalType": "bool",
          "name": "_paused",
          "type": "bool"
        }
      ],
      "name": "setPaused",
      "outputs": [],
      "stateMutability": "nonpayable",
      "type": "function"
    },
    {
      "inputs": [
        {
          "internalType": "uint256",
          "name": "_rate",
          "type": "uint256"
        }
      ],
      "name": "setRate",
      "outputs": [],
      "stateMutability": "nonpayable",
      "type": "function"
    },
    {
      "inputs": [
        {
          "internalType": "address",
          "name": "newOwner",
          "type": "address"
        }
      ],
      "name": "transferOwnership",
      "outputs": [],
      "stateMutability": "nonpayable",
      "type": "function"
    },
    {
      "stateMutability": "payable",
      "type": "receive"
    }
  ],
  "bytecode": "0x60806040523480156200001157600080fd5b5060405162000c7c38038062000c7c8339818101604052810190620000379190620002d0565b33600073ffffffffffffffffffffffffffffffffffffffff168173ffffffffffffffffffffffffffffffffffffffff1603620000ad5760006040517f1e4fbdf7000000000000000000000000000000000000000000000000000000008152600401620000a491906200033d565b60405180910390fd5b620000be816200012a60201b60201c565b5081600160146101000a81548160ff0219169083151502179055508060028190555082600160006101000a81548173ffffffffffffffffffffffffffffffffffffffff021916908373ffffffffffffffffffffffffffffffffffffffff1602179055505050506200035a565b60008060009054906101000a900473ffffffffffffffffffffffffffffffffffffffff169050816000806101000a81548173ffffffffffffffffffffffffffffffffffffffff021916908373ffffffffffffffffffffffffffffffffffffffff1602179055508173ffffffffffffffffffffffffffffffffffffffff168173ffffffffffffffffffffffffffffffffffffffff167f8be0079c531659141344cd1fd0a4f28419497f9722a3daafe3b4186f6b6457e060405160405180910390a35050565b600080fd5b600073ffffffffffffffffffffffffffffffffffffffff82169050919050565b60006200022082620001f3565b9050919050565b620002328162000213565b81146200023e57600080fd5b50565b600081519050620002528162000227565b92915050565b60008115159050919050565b6200026f8162000258565b81146200027b57600080fd5b50565b6000815190506200028f8162000264565b92915050565b6000819050919050565b620002aa8162000295565b8114620002b657600080fd5b50565b600081519050620002ca816200029f565b92915050565b600080600060608486031215620002ec57620002eb620001ee565b5b6000620002fc8682870162000241565b93505060206200030f868287016200027e565b92505060406200032286828701620002b9565b9150509250925092565b620003378162000213565b82525050565b60006020820190506200035460008301846200032c565b92915050565b610912806200036a6000396000f3fe60806040526004361061004e5760003560e01c806316c38b3c1461023a57806334fcf43714610263578063715018a61461028c5780638da5cb5b146102a3578063f2fde38b146102ce57610235565b3661023557600160149054906101000a900460ff16156100a3576040517f08c379a000000000000000000000000000000000000000000000000000000000815260040161009a906105a1565b60405180910390fd5b6000600254346100b391906105fa565b9050600160009054906101000a900473ffffffffffffffffffffffffffffffffffffffff1673ffffffffffffffffffffffffffffffffffffffff166370a08231306040518263ffffffff1660e01b8152600401610110919061067d565b602060405180830381865afa15801561012d573d6000803e3d6000fd5b505050506040513d601f19601f8201168201806040525081019061015191906106c9565b811115610193576040517f08c379a000000000000000000000000000000000000000000000000000000000815260040161018a90610742565b60405180910390fd5b600160009054906101000a900473ffffffffffffffffffffffffffffffffffffffff1673ffffffffffffffffffffffffffffffffffffffff1663a9059cbb33836040518363ffffffff1660e01b81526004016101f0929190610771565b6020604051808303816000875af115801561020f573d6000803e3d6000fd5b505050506040513d601f19601f8201168201806040525081019061023391906107d2565b005b600080fd5b34801561024657600080fd5b50610261600480360381019061025c9190610814565b6102f7565b005b34801561026f57600080fd5b5061028a60048036038101906102859190610856565b61031c565b005b34801561029857600080fd5b506102a161032e565b005b3480156102af57600080fd5b506102b8610342565b6040516102c5919061067d565b60405180910390f35b3480156102da57600080fd5b506102f560048036038101906102f091906108af565b61036b565b005b6102ff6103f1565b80600160146101000a81548160ff02191690831515021790555050565b6103246103f1565b8060028190555050565b6103366103f1565b6103406000610478565b565b60008060009054906101000a900473ffffffffffffffffffffffffffffffffffffffff16905090565b6103736103f1565b600073ffffffffffffffffffffffffffffffffffffffff168173ffffffffffffffffffffffffffffffffffffffff16036103e55760006040517f1e4fbdf70000000000000000000000000000000000000000000000000000000081526004016103dc919061067d565b60405180910390fd5b6103ee81610478565b50565b6103f961053c565b73ffffffffffffffffffffffffffffffffffffffff16610417610342565b73ffffffffffffffffffffffffffffffffffffffff16146104765761043a61053c565b6040517f118cdaa700000000000000000000000000000000000000000000000000000000815260040161046d919061067d565b60405180910390fd5b565b60008060009054906101000a900473ffffffffffffffffffffffffffffffffffffffff169050816000806101000a81548173ffffffffffffffffffffffffffffffffffffffff021916908373ffffffffffffffffffffffffffffffffffffffff1602179055508173ffffffffffffffffffffffffffffffffffffffff168173ffffffffffffffffffffffffffffffffffffffff167f8be0079c531659141344cd1fd0a4f28419497f9722a3daafe3b4186f6b6457e060405160405180910390a35050565b600033905090565b600082825260208201905092915050565b7f446973747269627574696f6e206973207061757365642e000000000000000000600082015250565b600061058b601783610544565b915061059682610555565b602082019050919050565b600060208201905081810360008301526105ba8161057e565b9050919050565b6000819050919050565b7f4e487b7100000000000000000000000000000000000000000000000000000000600052601160045260246000fd5b6000610605826105c1565b9150610610836105c1565b925082820261061e816105c1565b91508282048414831517610635576106346105cb565b5b5092915050565b600073ffffffffffffffffffffffffffffffffffffffff82169050919050565b60006106678261063c565b9050919050565b6106778161065c565b82525050565b6000602082019050610692600083018461066e565b92915050565b600080fd5b6106a6816105c1565b81146106b157600080fd5b50565b6000815190506106c38161069d565b92915050565b6000602082840312156106df576106de610698565b5b60006106ed848285016106b4565b91505092915050565b7f4e6f7420656e6f75676820746f6b656e7320617661696c61626c652e00000000600082015250565b600061072c601c83610544565b9150610737826106f6565b602082019050919050565b6000602082019050818103600083015261075b8161071f565b9050919050565b61076b816105c1565b82525050565b6000604082019050610786600083018561066e565b6107936020830184610762565b9392505050565b60008115159050919050565b6107af8161079a565b81146107ba57600080fd5b50565b6000815190506107cc816107a6565b92915050565b6000602082840312156107e8576107e7610698565b5b60006107f6848285016107bd565b91505092915050565b60008135905061080e816107a6565b92915050565b60006020828403121561082a57610829610698565b5b6000610838848285016107ff565b91505092915050565b6000813590506108508161069d565b92915050565b60006020828403121561086c5761086b610698565b5b600061087a84828501610841565b91505092915050565b61088c8161065c565b811461089757600080fd5b50565b6000813590506108a981610883565b92915050565b6000602082840312156108c5576108c4610698565b5b60006108d38482850161089a565b9150509291505056fea2646970667358221220941c2738d68d7db57901f5c52195321eeeb807d37582ea9000b9060b0f23667e64736f6c63430008180033",
  "linkReferences": {},
  "deployedLinkReferences": {}
}