{"contracts/UniswapV3Distribution.sol":{"UniswapV3RateDistribution":{"abi":[{"inputs":[{"internalType":"address","name":"_token","type":"address"},{"internalType":"address","name":"_poolAddress","type":"address"},{"internalType":"bool","name":"_paused","type":"bool"},{"internalType":"bool","name":"_multiply","type":"bool"},{"internalType":"uint256","name":"_minimumAmount","type":"uint256"}],"stateMutability":"nonpayable","type":"constructor"},{"inputs":[{"internalType":"address","name":"target","type":"address"}],"name":"AddressEmptyCode","type":"error"},{"inputs":[{"internalType":"address","name":"account","type":"address"}],"name":"AddressInsufficientBalance","type":"error"},{"inputs":[],"name":"FailedInnerCall","type":"error"},{"inputs":[{"internalType":"address","name":"owner","type":"address"}],"name":"OwnableInvalidOwner","type":"error"},{"inputs":[{"internalType":"address","name":"account","type":"address"}],"name":"OwnableUnauthorizedAccount","type":"error"},{"inputs":[{"internalType":"address","name":"token","type":"address"}],"name":"SafeERC20FailedOperation","type":"error"},{"anonymous":false,"inputs":[{"indexed":true,"internalType":"address","name":"previousOwner","type":"address"},{"indexed":true,"internalType":"address","name":"newOwner","type":"address"}],"name":"OwnershipTransferred","type":"event"},{"inputs":[],"name":"owner","outputs":[{"internalType":"address","name":"","type":"address"}],"stateMutability":"view","type":"function"},{"inputs":[],"name":"renounceOwnership","outputs":[],"stateMutability":"nonpayable","type":"function"},{"inputs":[{"internalType":"uint256","name":"_minimumAmount","type":"uint256"}],"name":"setMinimumAmount","outputs":[],"stateMutability":"nonpayable","type":"function"},{"inputs":[{"internalType":"bool","name":"_multiply","type":"bool"}],"name":"setMultiply","outputs":[],"stateMutability":"nonpayable","type":"function"},{"inputs":[{"internalType":"bool","name":"_paused","type":"bool"}],"name":"setPaused","outputs":[],"stateMutability":"nonpayable","type":"function"},{"inputs":[{"internalType":"address","name":"newOwner","type":"address"}],"name":"transferOwnership","outputs":[],"stateMutability":"nonpayable","type":"function"},{"inputs":[{"internalType":"address payable","name":"_to","type":"address"},{"internalType":"uint256","name":"amount","type":"uint256"}],"name":"withdrawETH","outputs":[],"stateMutability":"nonpayable","type":"function"},{"inputs":[{"internalType":"address","name":"tokenAddress","type":"address"},{"internalType":"address","name":"to","type":"address"},{"internalType":"uint256","name":"amount","type":"uint256"}],"name":"withdrawToken","outputs":[],"stateMutability":"nonpayable","type":"function"},{"stateMutability":"payable","type":"receive"}],"evm":{"bytecode":{"linkReferences":{},"object":"60806040523480156200001157600080fd5b5060405162001e4e38038062001e4e83398181016040528101906200003791906200032d565b33600073ffffffffffffffffffffffffffffffffffffffff168173ffffffffffffffffffffffffffffffffffffffff1603620000ad5760006040517f1e4fbdf7000000000000000000000000000000000000000000000000000000008152600401620000a49190620003c6565b60405180910390fd5b620000be816200018760201b60201c565b5082600260146101000a81548160ff02191690831515021790555081600260156101000a81548160ff0219169083151502179055508060038190555084600260006101000a81548173ffffffffffffffffffffffffffffffffffffffff021916908373ffffffffffffffffffffffffffffffffffffffff16021790555083600160006101000a81548173ffffffffffffffffffffffffffffffffffffffff021916908373ffffffffffffffffffffffffffffffffffffffff1602179055505050505050620003e3565b60008060009054906101000a900473ffffffffffffffffffffffffffffffffffffffff169050816000806101000a81548173ffffffffffffffffffffffffffffffffffffffff021916908373ffffffffffffffffffffffffffffffffffffffff1602179055508173ffffffffffffffffffffffffffffffffffffffff168173ffffffffffffffffffffffffffffffffffffffff167f8be0079c531659141344cd1fd0a4f28419497f9722a3daafe3b4186f6b6457e060405160405180910390a35050565b600080fd5b600073ffffffffffffffffffffffffffffffffffffffff82169050919050565b60006200027d8262000250565b9050919050565b6200028f8162000270565b81146200029b57600080fd5b50565b600081519050620002af8162000284565b92915050565b60008115159050919050565b620002cc81620002b5565b8114620002d857600080fd5b50565b600081519050620002ec81620002c1565b92915050565b6000819050919050565b6200030781620002f2565b81146200031357600080fd5b50565b6000815190506200032781620002fc565b92915050565b600080600080600060a086880312156200034c576200034b6200024b565b5b60006200035c888289016200029e565b95505060206200036f888289016200029e565b94505060406200038288828901620002db565b93505060606200039588828901620002db565b9250506080620003a88882890162000316565b9150509295509295909350565b620003c08162000270565b82525050565b6000602082019050620003dd6000830184620003b5565b92915050565b611a5b80620003f36000396000f3fe60806040526004361061007f5760003560e01c80638da5cb5b1161004e5780638da5cb5b14610354578063eeb4a9c81461037f578063f170d20d146103a8578063f2fde38b146103d1576102bd565b806301e33667146102c257806316c38b3c146102eb5780634782f77914610314578063715018a61461033d576102bd565b366102bd576003543410156100c9576040517f08c379a00000000000000000000000000000000000000000000000000000000081526004016100c090610d5d565b60405180910390fd5b600260149054906101000a900460ff1615610119576040517f08c379a000000000000000000000000000000000000000000000000000000000815260040161011090610dc9565b60405180910390fd5b600080610149600160009054906101000a900473ffffffffffffffffffffffffffffffffffffffff16603c6103fa565b9150915060008262ffffff1690506000600260159054906101000a900460ff161561018157813461017a9190610e22565b9050610190565b813461018d9190610e93565b90505b600260009054906101000a900473ffffffffffffffffffffffffffffffffffffffff1673ffffffffffffffffffffffffffffffffffffffff166370a08231306040518263ffffffff1660e01b81526004016101eb9190610f05565b602060405180830381865afa158015610208573d6000803e3d6000fd5b505050506040513d601f19601f8201168201806040525081019061022c9190610f60565b81111561026e576040517f08c379a000000000000000000000000000000000000000000000000000000000815260040161026590610fd9565b60405180910390fd5b6102bb3382600260009054906101000a900473ffffffffffffffffffffffffffffffffffffffff1673ffffffffffffffffffffffffffffffffffffffff166106d09092919063ffffffff16565b005b600080fd5b3480156102ce57600080fd5b506102e960048036038101906102e4919061103a565b61074f565b005b3480156102f757600080fd5b50610312600480360381019061030d91906110c5565b610787565b005b34801561032057600080fd5b5061033b60048036038101906103369190611130565b6107ac565b005b34801561034957600080fd5b50610352610865565b005b34801561036057600080fd5b50610369610879565b6040516103769190610f05565b60405180910390f35b34801561038b57600080fd5b506103a660048036038101906103a19190611170565b6108a2565b005b3480156103b457600080fd5b506103cf60048036038101906103ca91906110c5565b6108b4565b005b3480156103dd57600080fd5b506103f860048036038101906103f3919061119d565b6108d9565b005b60008060008363ffffffff1603610446576040517f08c379a000000000000000000000000000000000000000000000000000000000815260040161043d90611216565b60405180910390fd5b6000600267ffffffffffffffff81111561046357610462611236565b5b6040519080825280602002602001820160405280156104915781602001602082028036833780820191505090505b50905083816000815181106104a9576104a8611265565b5b602002602001019063ffffffff16908163ffffffff16815250506000816001815181106104d9576104d8611265565b5b602002602001019063ffffffff16908163ffffffff16815250506000808673ffffffffffffffffffffffffffffffffffffffff1663883bdbfd846040518263ffffffff1660e01b815260040161052f9190611362565b600060405180830381865afa15801561054c573d6000803e3d6000fd5b505050506040513d6000823e3d601f19601f8201168201806040525081019061057591906115d6565b9150915060008260008151811061058f5761058e611265565b5b6020026020010151836001815181106105ab576105aa611265565b5b60200260200101516105bd919061164e565b90506000826000815181106105d5576105d4611265565b5b6020026020010151836001815181106105f1576105f0611265565b5b602002602001015161060391906116ad565b90508763ffffffff168261061791906116f5565b965060008260060b128015610641575060008863ffffffff168361063b919061175f565b60060b14155b156106555786806106519061179d565b9750505b600073ffffffffffffffffffffffffffffffffffffffff80168963ffffffff1661067f9190611809565b905060208273ffffffffffffffffffffffffffffffffffffffff1677ffffffffffffffffffffffffffffffffffffffffffffffff16901b816106c1919061184b565b96505050505050509250929050565b61074a838473ffffffffffffffffffffffffffffffffffffffff1663a9059cbb858560405160240161070392919061188b565b604051602081830303815290604052915060e01b6020820180517bffffffffffffffffffffffffffffffffffffffffffffffffffffffff838183161783525050505061095f565b505050565b6107576109f6565b61078282828573ffffffffffffffffffffffffffffffffffffffff166106d09092919063ffffffff16565b505050565b61078f6109f6565b80600260146101000a81548160ff02191690831515021790555050565b6107b46109f6565b60008273ffffffffffffffffffffffffffffffffffffffff16826040516107da906118e5565b60006040518083038185875af1925050503d8060008114610817576040519150601f19603f3d011682016040523d82523d6000602084013e61081c565b606091505b5050905080610860576040517f08c379a000000000000000000000000000000000000000000000000000000000815260040161085790611946565b60405180910390fd5b505050565b61086d6109f6565b6108776000610a7d565b565b60008060009054906101000a900473ffffffffffffffffffffffffffffffffffffffff16905090565b6108aa6109f6565b8060038190555050565b6108bc6109f6565b80600260156101000a81548160ff02191690831515021790555050565b6108e16109f6565b600073ffffffffffffffffffffffffffffffffffffffff168173ffffffffffffffffffffffffffffffffffffffff16036109535760006040517f1e4fbdf700000000000000000000000000000000000000000000000000000000815260040161094a9190610f05565b60405180910390fd5b61095c81610a7d565b50565b600061098a828473ffffffffffffffffffffffffffffffffffffffff16610b4190919063ffffffff16565b905060008151141580156109af5750808060200190518101906109ad919061197b565b155b156109f157826040517f5274afe70000000000000000000000000000000000000000000000000000000081526004016109e89190610f05565b60405180910390fd5b505050565b6109fe610b57565b73ffffffffffffffffffffffffffffffffffffffff16610a1c610879565b73ffffffffffffffffffffffffffffffffffffffff1614610a7b57610a3f610b57565b6040517f118cdaa7000000000000000000000000000000000000000000000000000000008152600401610a729190610f05565b60405180910390fd5b565b60008060009054906101000a900473ffffffffffffffffffffffffffffffffffffffff169050816000806101000a81548173ffffffffffffffffffffffffffffffffffffffff021916908373ffffffffffffffffffffffffffffffffffffffff1602179055508173ffffffffffffffffffffffffffffffffffffffff168173ffffffffffffffffffffffffffffffffffffffff167f8be0079c531659141344cd1fd0a4f28419497f9722a3daafe3b4186f6b6457e060405160405180910390a35050565b6060610b4f83836000610b5f565b905092915050565b600033905090565b606081471015610ba657306040517fcd786059000000000000000000000000000000000000000000000000000000008152600401610b9d9190610f05565b60405180910390fd5b6000808573ffffffffffffffffffffffffffffffffffffffff168486604051610bcf9190611a0e565b60006040518083038185875af1925050503d8060008114610c0c576040519150601f19603f3d011682016040523d82523d6000602084013e610c11565b606091505b5091509150610c21868383610c2c565b925050509392505050565b606082610c4157610c3c82610cbb565b610cb3565b60008251148015610c69575060008473ffffffffffffffffffffffffffffffffffffffff163b145b15610cab57836040517f9996b315000000000000000000000000000000000000000000000000000000008152600401610ca29190610f05565b60405180910390fd5b819050610cb4565b5b9392505050565b600081511115610cce5780518082602001fd5b6040517f1425ea4200000000000000000000000000000000000000000000000000000000815260040160405180910390fd5b600082825260208201905092915050565b7f496e73756666696369656e74204554482070726f76696465642e000000000000600082015250565b6000610d47601a83610d00565b9150610d5282610d11565b602082019050919050565b60006020820190508181036000830152610d7681610d3a565b9050919050565b7f446973747269627574696f6e206973207061757365642e000000000000000000600082015250565b6000610db3601783610d00565b9150610dbe82610d7d565b602082019050919050565b60006020820190508181036000830152610de281610da6565b9050919050565b6000819050919050565b7f4e487b7100000000000000000000000000000000000000000000000000000000600052601160045260246000fd5b6000610e2d82610de9565b9150610e3883610de9565b9250828202610e4681610de9565b91508282048414831517610e5d57610e5c610df3565b5b5092915050565b7f4e487b7100000000000000000000000000000000000000000000000000000000600052601260045260246000fd5b6000610e9e82610de9565b9150610ea983610de9565b925082610eb957610eb8610e64565b5b828204905092915050565b600073ffffffffffffffffffffffffffffffffffffffff82169050919050565b6000610eef82610ec4565b9050919050565b610eff81610ee4565b82525050565b6000602082019050610f1a6000830184610ef6565b92915050565b6000604051905090565b600080fd5b600080fd5b610f3d81610de9565b8114610f4857600080fd5b50565b600081519050610f5a81610f34565b92915050565b600060208284031215610f7657610f75610f2a565b5b6000610f8484828501610f4b565b91505092915050565b7f4e6f7420656e6f75676820746f6b656e7320617661696c61626c652e00000000600082015250565b6000610fc3601c83610d00565b9150610fce82610f8d565b602082019050919050565b60006020820190508181036000830152610ff281610fb6565b9050919050565b61100281610ee4565b811461100d57600080fd5b50565b60008135905061101f81610ff9565b92915050565b60008135905061103481610f34565b92915050565b60008060006060848603121561105357611052610f2a565b5b600061106186828701611010565b935050602061107286828701611010565b925050604061108386828701611025565b9150509250925092565b60008115159050919050565b6110a28161108d565b81146110ad57600080fd5b50565b6000813590506110bf81611099565b92915050565b6000602082840312156110db576110da610f2a565b5b60006110e9848285016110b0565b91505092915050565b60006110fd82610ec4565b9050919050565b61110d816110f2565b811461111857600080fd5b50565b60008135905061112a81611104565b92915050565b6000806040838503121561114757611146610f2a565b5b60006111558582860161111b565b925050602061116685828601611025565b9150509250929050565b60006020828403121561118657611185610f2a565b5b600061119484828501611025565b91505092915050565b6000602082840312156111b3576111b2610f2a565b5b60006111c184828501611010565b91505092915050565b7f4250000000000000000000000000000000000000000000000000000000000000600082015250565b6000611200600283610d00565b915061120b826111ca565b602082019050919050565b6000602082019050818103600083015261122f816111f3565b9050919050565b7f4e487b7100000000000000000000000000000000000000000000000000000000600052604160045260246000fd5b7f4e487b7100000000000000000000000000000000000000000000000000000000600052603260045260246000fd5b600081519050919050565b600082825260208201905092915050565b6000819050602082019050919050565b600063ffffffff82169050919050565b6112d9816112c0565b82525050565b60006112eb83836112d0565b60208301905092915050565b6000602082019050919050565b600061130f82611294565b611319818561129f565b9350611324836112b0565b8060005b8381101561135557815161133c88826112df565b9750611347836112f7565b925050600181019050611328565b5085935050505092915050565b6000602082019050818103600083015261137c8184611304565b905092915050565b600080fd5b6000601f19601f8301169050919050565b6113a382611389565b810181811067ffffffffffffffff821117156113c2576113c1611236565b5b80604052505050565b60006113d5610f20565b90506113e1828261139a565b919050565b600067ffffffffffffffff82111561140157611400611236565b5b602082029050602081019050919050565b600080fd5b60008160060b9050919050565b61142d81611417565b811461143857600080fd5b50565b60008151905061144a81611424565b92915050565b600061146361145e846113e6565b6113cb565b9050808382526020820190506020840283018581111561148657611485611412565b5b835b818110156114af578061149b888261143b565b845260208401935050602081019050611488565b5050509392505050565b600082601f8301126114ce576114cd611384565b5b81516114de848260208601611450565b91505092915050565b600067ffffffffffffffff82111561150257611501611236565b5b602082029050602081019050919050565b61151c81610ec4565b811461152757600080fd5b50565b60008151905061153981611513565b92915050565b600061155261154d846114e7565b6113cb565b9050808382526020820190506020840283018581111561157557611574611412565b5b835b8181101561159e578061158a888261152a565b845260208401935050602081019050611577565b5050509392505050565b600082601f8301126115bd576115bc611384565b5b81516115cd84826020860161153f565b91505092915050565b600080604083850312156115ed576115ec610f2a565b5b600083015167ffffffffffffffff81111561160b5761160a610f2f565b5b611617858286016114b9565b925050602083015167ffffffffffffffff81111561163857611637610f2f565b5b611644858286016115a8565b9150509250929050565b600061165982611417565b915061166483611417565b92508282039050667fffffffffffff81137fffffffffffffffffffffffffffffffffffffffffffffffffff80000000000000821217156116a7576116a6610df3565b5b92915050565b60006116b882610ec4565b91506116c383610ec4565b9250828203905073ffffffffffffffffffffffffffffffffffffffff8111156116ef576116ee610df3565b5b92915050565b600061170082611417565b915061170b83611417565b92508261171b5761171a610e64565b5b600160000383147fffffffffffffffffffffffffffffffffffffffffffffffffff800000000000008314161561175457611753610df3565b5b828205905092915050565b600061176a82611417565b915061177583611417565b92508261178557611784610e64565b5b828207905092915050565b60008160020b9050919050565b60006117a882611790565b91507fffffffffffffffffffffffffffffffffffffffffffffffffffffffffff80000082036117da576117d9610df3565b5b600182039050919050565b600077ffffffffffffffffffffffffffffffffffffffffffffffff82169050919050565b6000611814826117e5565b915061181f836117e5565b925082820261182d816117e5565b9150828204841483151761184457611843610df3565b5b5092915050565b6000611856826117e5565b9150611861836117e5565b92508261187157611870610e64565b5b828204905092915050565b61188581610de9565b82525050565b60006040820190506118a06000830185610ef6565b6118ad602083018461187c565b9392505050565b600081905092915050565b50565b60006118cf6000836118b4565b91506118da826118bf565b600082019050919050565b60006118f0826118c2565b9150819050919050565b7f4661696c656420746f2073656e64204574686572000000000000000000000000600082015250565b6000611930601483610d00565b915061193b826118fa565b602082019050919050565b6000602082019050818103600083015261195f81611923565b9050919050565b60008151905061197581611099565b92915050565b60006020828403121561199157611990610f2a565b5b600061199f84828501611966565b91505092915050565b600081519050919050565b60005b838110156119d15780820151818401526020810190506119b6565b60008484015250505050565b60006119e8826119a8565b6119f281856118b4565b9350611a028185602086016119b3565b80840191505092915050565b6000611a1a82846119dd565b91508190509291505056fea2646970667358221220d032ce41c9385e22e55add04d2113ea9bc66b847d22c8b4ba2fe4d0ea88b63d764736f6c63430008180033","opcodes":"PUSH1 0x80 PUSH1 0x40 MSTORE CALLVALUE DUP1 ISZERO PUSH3 0x11 JUMPI PUSH1 0x0 DUP1 REVERT JUMPDEST POP PUSH1 0x40 MLOAD PUSH3 0x1E4E CODESIZE SUB DUP1 PUSH3 0x1E4E DUP4 CODECOPY DUP2 DUP2 ADD PUSH1 0x40 MSTORE DUP2 ADD SWAP1 PUSH3 0x37 SWAP2 SWAP1 PUSH3 0x32D JUMP JUMPDEST CALLER PUSH1 0x0 PUSH20 0xFFFFFFFFFFFFFFFFFFFFFFFFFFFFFFFFFFFFFFFF AND DUP2 PUSH20 0xFFFFFFFFFFFFFFFFFFFFFFFFFFFFFFFFFFFFFFFF AND SUB PUSH3 0xAD JUMPI PUSH1 0x0 PUSH1 0x40 MLOAD PUSH32 0x1E4FBDF700000000000000000000000000000000000000000000000000000000 DUP2 MSTORE PUSH1 0x4 ADD PUSH3 0xA4 SWAP2 SWAP1 PUSH3 0x3C6 JUMP JUMPDEST PUSH1 0x40 MLOAD DUP1 SWAP2 SUB SWAP1 REVERT JUMPDEST PUSH3 0xBE DUP2 PUSH3 0x187 PUSH1 0x20 SHL PUSH1 0x20 SHR JUMP JUMPDEST POP DUP3 PUSH1 0x2 PUSH1 0x14 PUSH2 0x100 EXP DUP2 SLOAD DUP2 PUSH1 0xFF MUL NOT AND SWAP1 DUP4 ISZERO ISZERO MUL OR SWAP1 SSTORE POP DUP2 PUSH1 0x2 PUSH1 0x15 PUSH2 0x100 EXP DUP2 SLOAD DUP2 PUSH1 0xFF MUL NOT AND SWAP1 DUP4 ISZERO ISZERO MUL OR SWAP1 SSTORE POP DUP1 PUSH1 0x3 DUP2 SWAP1 SSTORE POP DUP5 PUSH1 0x2 PUSH1 0x0 PUSH2 0x100 EXP DUP2 SLOAD DUP2 PUSH20 0xFFFFFFFFFFFFFFFFFFFFFFFFFFFFFFFFFFFFFFFF MUL NOT AND SWAP1 DUP4 PUSH20 0xFFFFFFFFFFFFFFFFFFFFFFFFFFFFFFFFFFFFFFFF AND MUL OR SWAP1 SSTORE POP DUP4 PUSH1 0x1 PUSH1 0x0 PUSH2 0x100 EXP DUP2 SLOAD DUP2 PUSH20 0xFFFFFFFFFFFFFFFFFFFFFFFFFFFFFFFFFFFFFFFF MUL NOT AND SWAP1 DUP4 PUSH20 0xFFFFFFFFFFFFFFFFFFFFFFFFFFFFFFFFFFFFFFFF AND MUL OR SWAP1 SSTORE POP POP POP POP POP POP PUSH3 0x3E3 JUMP JUMPDEST PUSH1 0x0 DUP1 PUSH1 0x0 SWAP1 SLOAD SWAP1 PUSH2 0x100 EXP SWAP1 DIV PUSH20 0xFFFFFFFFFFFFFFFFFFFFFFFFFFFFFFFFFFFFFFFF AND SWAP1 POP DUP2 PUSH1 0x0 DUP1 PUSH2 0x100 EXP DUP2 SLOAD DUP2 PUSH20 0xFFFFFFFFFFFFFFFFFFFFFFFFFFFFFFFFFFFFFFFF MUL NOT AND SWAP1 DUP4 PUSH20 0xFFFFFFFFFFFFFFFFFFFFFFFFFFFFFFFFFFFFFFFF AND MUL OR SWAP1 SSTORE POP DUP2 PUSH20 0xFFFFFFFFFFFFFFFFFFFFFFFFFFFFFFFFFFFFFFFF AND DUP2 PUSH20 0xFFFFFFFFFFFFFFFFFFFFFFFFFFFFFFFFFFFFFFFF AND PUSH32 0x8BE0079C531659141344CD1FD0A4F28419497F9722A3DAAFE3B4186F6B6457E0 PUSH1 0x40 MLOAD PUSH1 0x40 MLOAD DUP1 SWAP2 SUB SWAP1 LOG3 POP POP JUMP JUMPDEST PUSH1 0x0 DUP1 REVERT JUMPDEST PUSH1 0x0 PUSH20 0xFFFFFFFFFFFFFFFFFFFFFFFFFFFFFFFFFFFFFFFF DUP3 AND SWAP1 POP SWAP2 SWAP1 POP JUMP JUMPDEST PUSH1 0x0 PUSH3 0x27D DUP3 PUSH3 0x250 JUMP JUMPDEST SWAP1 POP SWAP2 SWAP1 POP JUMP JUMPDEST PUSH3 0x28F DUP2 PUSH3 0x270 JUMP JUMPDEST DUP2 EQ PUSH3 0x29B JUMPI PUSH1 0x0 DUP1 REVERT JUMPDEST POP JUMP JUMPDEST PUSH1 0x0 DUP2 MLOAD SWAP1 POP PUSH3 0x2AF DUP2 PUSH3 0x284 JUMP JUMPDEST SWAP3 SWAP2 POP POP JUMP JUMPDEST PUSH1 0x0 DUP2 ISZERO ISZERO SWAP1 POP SWAP2 SWAP1 POP JUMP JUMPDEST PUSH3 0x2CC DUP2 PUSH3 0x2B5 JUMP JUMPDEST DUP2 EQ PUSH3 0x2D8 JUMPI PUSH1 0x0 DUP1 REVERT JUMPDEST POP JUMP JUMPDEST PUSH1 0x0 DUP2 MLOAD SWAP1 POP PUSH3 0x2EC DUP2 PUSH3 0x2C1 JUMP JUMPDEST SWAP3 SWAP2 POP POP JUMP JUMPDEST PUSH1 0x0 DUP2 SWAP1 POP SWAP2 SWAP1 POP JUMP JUMPDEST PUSH3 0x307 DUP2 PUSH3 0x2F2 JUMP JUMPDEST DUP2 EQ PUSH3 0x313 JUMPI PUSH1 0x0 DUP1 REVERT JUMPDEST POP JUMP JUMPDEST PUSH1 0x0 DUP2 MLOAD SWAP1 POP PUSH3 0x327 DUP2 PUSH3 0x2FC JUMP JUMPDEST SWAP3 SWAP2 POP POP JUMP JUMPDEST PUSH1 0x0 DUP1 PUSH1 0x0 DUP1 PUSH1 0x0 PUSH1 0xA0 DUP7 DUP9 SUB SLT ISZERO PUSH3 0x34C JUMPI PUSH3 0x34B PUSH3 0x24B JUMP JUMPDEST JUMPDEST PUSH1 0x0 PUSH3 0x35C DUP9 DUP3 DUP10 ADD PUSH3 0x29E JUMP JUMPDEST SWAP6 POP POP PUSH1 0x20 PUSH3 0x36F DUP9 DUP3 DUP10 ADD PUSH3 0x29E JUMP JUMPDEST SWAP5 POP POP PUSH1 0x40 PUSH3 0x382 DUP9 DUP3 DUP10 ADD PUSH3 0x2DB JUMP JUMPDEST SWAP4 POP POP PUSH1 0x60 PUSH3 0x395 DUP9 DUP3 DUP10 ADD PUSH3 0x2DB JUMP JUMPDEST SWAP3 POP POP PUSH1 0x80 PUSH3 0x3A8 DUP9 DUP3 DUP10 ADD PUSH3 0x316 JUMP JUMPDEST SWAP2 POP POP SWAP3 SWAP6 POP SWAP3 SWAP6 SWAP1 SWAP4 POP JUMP JUMPDEST PUSH3 0x3C0 DUP2 PUSH3 0x270 JUMP JUMPDEST DUP3 MSTORE POP POP JUMP JUMPDEST PUSH1 0x0 PUSH1 0x20 DUP3 ADD SWAP1 POP PUSH3 0x3DD PUSH1 0x0 DUP4 ADD DUP5 PUSH3 0x3B5 JUMP JUMPDEST SWAP3 SWAP2 POP POP JUMP JUMPDEST PUSH2 0x1A5B DUP1 PUSH3 0x3F3 PUSH1 0x0 CODECOPY PUSH1 0x0 RETURN INVALID PUSH1 0x80 PUSH1 0x40 MSTORE PUSH1 0x4 CALLDATASIZE LT PUSH2 0x7F JUMPI PUSH1 0x0 CALLDATALOAD PUSH1 0xE0 SHR DUP1 PUSH4 0x8DA5CB5B GT PUSH2 0x4E JUMPI DUP1 PUSH4 0x8DA5CB5B EQ PUSH2 0x354 JUMPI DUP1 PUSH4 0xEEB4A9C8 EQ PUSH2 0x37F JUMPI DUP1 PUSH4 0xF170D20D EQ PUSH2 0x3A8 JUMPI DUP1 PUSH4 0xF2FDE38B EQ PUSH2 0x3D1 JUMPI PUSH2 0x2BD JUMP JUMPDEST DUP1 PUSH4 0x1E33667 EQ PUSH2 0x2C2 JUMPI DUP1 PUSH4 0x16C38B3C EQ PUSH2 0x2EB JUMPI DUP1 PUSH4 0x4782F779 EQ PUSH2 0x314 JUMPI DUP1 PUSH4 0x715018A6 EQ PUSH2 0x33D JUMPI PUSH2 0x2BD JUMP JUMPDEST CALLDATASIZE PUSH2 0x2BD JUMPI PUSH1 0x3 SLOAD CALLVALUE LT ISZERO PUSH2 0xC9 JUMPI PUSH1 0x40 MLOAD PUSH32 0x8C379A000000000000000000000000000000000000000000000000000000000 DUP2 MSTORE PUSH1 0x4 ADD PUSH2 0xC0 SWAP1 PUSH2 0xD5D JUMP JUMPDEST PUSH1 0x40 MLOAD DUP1 SWAP2 SUB SWAP1 REVERT JUMPDEST PUSH1 0x2 PUSH1 0x14 SWAP1 SLOAD SWAP1 PUSH2 0x100 EXP SWAP1 DIV PUSH1 0xFF AND ISZERO PUSH2 0x119 JUMPI PUSH1 0x40 MLOAD PUSH32 0x8C379A000000000000000000000000000000000000000000000000000000000 DUP2 MSTORE PUSH1 0x4 ADD PUSH2 0x110 SWAP1 PUSH2 0xDC9 JUMP JUMPDEST PUSH1 0x40 MLOAD DUP1 SWAP2 SUB SWAP1 REVERT JUMPDEST PUSH1 0x0 DUP1 PUSH2 0x149 PUSH1 0x1 PUSH1 0x0 SWAP1 SLOAD SWAP1 PUSH2 0x100 EXP SWAP1 DIV PUSH20 0xFFFFFFFFFFFFFFFFFFFFFFFFFFFFFFFFFFFFFFFF AND PUSH1 0x3C PUSH2 0x3FA JUMP JUMPDEST SWAP2 POP SWAP2 POP PUSH1 0x0 DUP3 PUSH3 0xFFFFFF AND SWAP1 POP PUSH1 0x0 PUSH1 0x2 PUSH1 0x15 SWAP1 SLOAD SWAP1 PUSH2 0x100 EXP SWAP1 DIV PUSH1 0xFF AND ISZERO PUSH2 0x181 JUMPI DUP2 CALLVALUE PUSH2 0x17A SWAP2 SWAP1 PUSH2 0xE22 JUMP JUMPDEST SWAP1 POP PUSH2 0x190 JUMP JUMPDEST DUP2 CALLVALUE PUSH2 0x18D SWAP2 SWAP1 PUSH2 0xE93 JUMP JUMPDEST SWAP1 POP JUMPDEST PUSH1 0x2 PUSH1 0x0 SWAP1 SLOAD SWAP1 PUSH2 0x100 EXP SWAP1 DIV PUSH20 0xFFFFFFFFFFFFFFFFFFFFFFFFFFFFFFFFFFFFFFFF AND PUSH20 0xFFFFFFFFFFFFFFFFFFFFFFFFFFFFFFFFFFFFFFFF AND PUSH4 0x70A08231 ADDRESS PUSH1 0x40 MLOAD DUP3 PUSH4 0xFFFFFFFF AND PUSH1 0xE0 SHL DUP2 MSTORE PUSH1 0x4 ADD PUSH2 0x1EB SWAP2 SWAP1 PUSH2 0xF05 JUMP JUMPDEST PUSH1 0x20 PUSH1 0x40 MLOAD DUP1 DUP4 SUB DUP2 DUP7 GAS STATICCALL ISZERO DUP1 ISZERO PUSH2 0x208 JUMPI RETURNDATASIZE PUSH1 0x0 DUP1 RETURNDATACOPY RETURNDATASIZE PUSH1 0x0 REVERT JUMPDEST POP POP POP POP PUSH1 0x40 MLOAD RETURNDATASIZE PUSH1 0x1F NOT PUSH1 0x1F DUP3 ADD AND DUP3 ADD DUP1 PUSH1 0x40 MSTORE POP DUP2 ADD SWAP1 PUSH2 0x22C SWAP2 SWAP1 PUSH2 0xF60 JUMP JUMPDEST DUP2 GT ISZERO PUSH2 0x26E JUMPI PUSH1 0x40 MLOAD PUSH32 0x8C379A000000000000000000000000000000000000000000000000000000000 DUP2 MSTORE PUSH1 0x4 ADD PUSH2 0x265 SWAP1 PUSH2 0xFD9 JUMP JUMPDEST PUSH1 0x40 MLOAD DUP1 SWAP2 SUB SWAP1 REVERT JUMPDEST PUSH2 0x2BB CALLER DUP3 PUSH1 0x2 PUSH1 0x0 SWAP1 SLOAD SWAP1 PUSH2 0x100 EXP SWAP1 DIV PUSH20 0xFFFFFFFFFFFFFFFFFFFFFFFFFFFFFFFFFFFFFFFF AND PUSH20 0xFFFFFFFFFFFFFFFFFFFFFFFFFFFFFFFFFFFFFFFF AND PUSH2 0x6D0 SWAP1 SWAP3 SWAP2 SWAP1 PUSH4 0xFFFFFFFF AND JUMP JUMPDEST STOP JUMPDEST PUSH1 0x0 DUP1 REVERT JUMPDEST CALLVALUE DUP1 ISZERO PUSH2 0x2CE JUMPI PUSH1 0x0 DUP1 REVERT JUMPDEST POP PUSH2 0x2E9 PUSH1 0x4 DUP1 CALLDATASIZE SUB DUP2 ADD SWAP1 PUSH2 0x2E4 SWAP2 SWAP1 PUSH2 0x103A JUMP JUMPDEST PUSH2 0x74F JUMP JUMPDEST STOP JUMPDEST CALLVALUE DUP1 ISZERO PUSH2 0x2F7 JUMPI PUSH1 0x0 DUP1 REVERT JUMPDEST POP PUSH2 0x312 PUSH1 0x4 DUP1 CALLDATASIZE SUB DUP2 ADD SWAP1 PUSH2 0x30D SWAP2 SWAP1 PUSH2 0x10C5 JUMP JUMPDEST PUSH2 0x787 JUMP JUMPDEST STOP JUMPDEST CALLVALUE DUP1 ISZERO PUSH2 0x320 JUMPI PUSH1 0x0 DUP1 REVERT JUMPDEST POP PUSH2 0x33B PUSH1 0x4 DUP1 CALLDATASIZE SUB DUP2 ADD SWAP1 PUSH2 0x336 SWAP2 SWAP1 PUSH2 0x1130 JUMP JUMPDEST PUSH2 0x7AC JUMP JUMPDEST STOP JUMPDEST CALLVALUE DUP1 ISZERO PUSH2 0x349 JUMPI PUSH1 0x0 DUP1 REVERT JUMPDEST POP PUSH2 0x352 PUSH2 0x865 JUMP JUMPDEST STOP JUMPDEST CALLVALUE DUP1 ISZERO PUSH2 0x360 JUMPI PUSH1 0x0 DUP1 REVERT JUMPDEST POP PUSH2 0x369 PUSH2 0x879 JUMP JUMPDEST PUSH1 0x40 MLOAD PUSH2 0x376 SWAP2 SWAP1 PUSH2 0xF05 JUMP JUMPDEST PUSH1 0x40 MLOAD DUP1 SWAP2 SUB SWAP1 RETURN JUMPDEST CALLVALUE DUP1 ISZERO PUSH2 0x38B JUMPI PUSH1 0x0 DUP1 REVERT JUMPDEST POP PUSH2 0x3A6 PUSH1 0x4 DUP1 CALLDATASIZE SUB DUP2 ADD SWAP1 PUSH2 0x3A1 SWAP2 SWAP1 PUSH2 0x1170 JUMP JUMPDEST PUSH2 0x8A2 JUMP JUMPDEST STOP JUMPDEST CALLVALUE DUP1 ISZERO PUSH2 0x3B4 JUMPI PUSH1 0x0 DUP1 REVERT JUMPDEST POP PUSH2 0x3CF PUSH1 0x4 DUP1 CALLDATASIZE SUB DUP2 ADD SWAP1 PUSH2 0x3CA SWAP2 SWAP1 PUSH2 0x10C5 JUMP JUMPDEST PUSH2 0x8B4 JUMP JUMPDEST STOP JUMPDEST CALLVALUE DUP1 ISZERO PUSH2 0x3DD JUMPI PUSH1 0x0 DUP1 REVERT JUMPDEST POP PUSH2 0x3F8 PUSH1 0x4 DUP1 CALLDATASIZE SUB DUP2 ADD SWAP1 PUSH2 0x3F3 SWAP2 SWAP1 PUSH2 0x119D JUMP JUMPDEST PUSH2 0x8D9 JUMP JUMPDEST STOP JUMPDEST PUSH1 0x0 DUP1 PUSH1 0x0 DUP4 PUSH4 0xFFFFFFFF AND SUB PUSH2 0x446 JUMPI PUSH1 0x40 MLOAD PUSH32 0x8C379A000000000000000000000000000000000000000000000000000000000 DUP2 MSTORE PUSH1 0x4 ADD PUSH2 0x43D SWAP1 PUSH2 0x1216 JUMP JUMPDEST PUSH1 0x40 MLOAD DUP1 SWAP2 SUB SWAP1 REVERT JUMPDEST PUSH1 0x0 PUSH1 0x2 PUSH8 0xFFFFFFFFFFFFFFFF DUP2 GT ISZERO PUSH2 0x463 JUMPI PUSH2 0x462 PUSH2 0x1236 JUMP JUMPDEST JUMPDEST PUSH1 0x40 MLOAD SWAP1 DUP1 DUP3 MSTORE DUP1 PUSH1 0x20 MUL PUSH1 0x20 ADD DUP3 ADD PUSH1 0x40 MSTORE DUP1 ISZERO PUSH2 0x491 JUMPI DUP2 PUSH1 0x20 ADD PUSH1 0x20 DUP3 MUL DUP1 CALLDATASIZE DUP4 CALLDATACOPY DUP1 DUP3 ADD SWAP2 POP POP SWAP1 POP JUMPDEST POP SWAP1 POP DUP4 DUP2 PUSH1 0x0 DUP2 MLOAD DUP2 LT PUSH2 0x4A9 JUMPI PUSH2 0x4A8 PUSH2 0x1265 JUMP JUMPDEST JUMPDEST PUSH1 0x20 MUL PUSH1 0x20 ADD ADD SWAP1 PUSH4 0xFFFFFFFF AND SWAP1 DUP2 PUSH4 0xFFFFFFFF AND DUP2 MSTORE POP POP PUSH1 0x0 DUP2 PUSH1 0x1 DUP2 MLOAD DUP2 LT PUSH2 0x4D9 JUMPI PUSH2 0x4D8 PUSH2 0x1265 JUMP JUMPDEST JUMPDEST PUSH1 0x20 MUL PUSH1 0x20 ADD ADD SWAP1 PUSH4 0xFFFFFFFF AND SWAP1 DUP2 PUSH4 0xFFFFFFFF AND DUP2 MSTORE POP POP PUSH1 0x0 DUP1 DUP7 PUSH20 0xFFFFFFFFFFFFFFFFFFFFFFFFFFFFFFFFFFFFFFFF AND PUSH4 0x883BDBFD DUP5 PUSH1 0x40 MLOAD DUP3 PUSH4 0xFFFFFFFF AND PUSH1 0xE0 SHL DUP2 MSTORE PUSH1 0x4 ADD PUSH2 0x52F SWAP2 SWAP1 PUSH2 0x1362 JUMP JUMPDEST PUSH1 0x0 PUSH1 0x40 MLOAD DUP1 DUP4 SUB DUP2 DUP7 GAS STATICCALL ISZERO DUP1 ISZERO PUSH2 0x54C JUMPI RETURNDATASIZE PUSH1 0x0 DUP1 RETURNDATACOPY RETURNDATASIZE PUSH1 0x0 REVERT JUMPDEST POP POP POP POP PUSH1 0x40 MLOAD RETURNDATASIZE PUSH1 0x0 DUP3 RETURNDATACOPY RETURNDATASIZE PUSH1 0x1F NOT PUSH1 0x1F DUP3 ADD AND DUP3 ADD DUP1 PUSH1 0x40 MSTORE POP DUP2 ADD SWAP1 PUSH2 0x575 SWAP2 SWAP1 PUSH2 0x15D6 JUMP JUMPDEST SWAP2 POP SWAP2 POP PUSH1 0x0 DUP3 PUSH1 0x0 DUP2 MLOAD DUP2 LT PUSH2 0x58F JUMPI PUSH2 0x58E PUSH2 0x1265 JUMP JUMPDEST JUMPDEST PUSH1 0x20 MUL PUSH1 0x20 ADD ADD MLOAD DUP4 PUSH1 0x1 DUP2 MLOAD DUP2 LT PUSH2 0x5AB JUMPI PUSH2 0x5AA PUSH2 0x1265 JUMP JUMPDEST JUMPDEST PUSH1 0x20 MUL PUSH1 0x20 ADD ADD MLOAD PUSH2 0x5BD SWAP2 SWAP1 PUSH2 0x164E JUMP JUMPDEST SWAP1 POP PUSH1 0x0 DUP3 PUSH1 0x0 DUP2 MLOAD DUP2 LT PUSH2 0x5D5 JUMPI PUSH2 0x5D4 PUSH2 0x1265 JUMP JUMPDEST JUMPDEST PUSH1 0x20 MUL PUSH1 0x20 ADD ADD MLOAD DUP4 PUSH1 0x1 DUP2 MLOAD DUP2 LT PUSH2 0x5F1 JUMPI PUSH2 0x5F0 PUSH2 0x1265 JUMP JUMPDEST JUMPDEST PUSH1 0x20 MUL PUSH1 0x20 ADD ADD MLOAD PUSH2 0x603 SWAP2 SWAP1 PUSH2 0x16AD JUMP JUMPDEST SWAP1 POP DUP8 PUSH4 0xFFFFFFFF AND DUP3 PUSH2 0x617 SWAP2 SWAP1 PUSH2 0x16F5 JUMP JUMPDEST SWAP7 POP PUSH1 0x0 DUP3 PUSH1 0x6 SIGNEXTEND SLT DUP1 ISZERO PUSH2 0x641 JUMPI POP PUSH1 0x0 DUP9 PUSH4 0xFFFFFFFF AND DUP4 PUSH2 0x63B SWAP2 SWAP1 PUSH2 0x175F JUMP JUMPDEST PUSH1 0x6 SIGNEXTEND EQ ISZERO JUMPDEST ISZERO PUSH2 0x655 JUMPI DUP7 DUP1 PUSH2 0x651 SWAP1 PUSH2 0x179D JUMP JUMPDEST SWAP8 POP POP JUMPDEST PUSH1 0x0 PUSH20 0xFFFFFFFFFFFFFFFFFFFFFFFFFFFFFFFFFFFFFFFF DUP1 AND DUP10 PUSH4 0xFFFFFFFF AND PUSH2 0x67F SWAP2 SWAP1 PUSH2 0x1809 JUMP JUMPDEST SWAP1 POP PUSH1 0x20 DUP3 PUSH20 0xFFFFFFFFFFFFFFFFFFFFFFFFFFFFFFFFFFFFFFFF AND PUSH24 0xFFFFFFFFFFFFFFFFFFFFFFFFFFFFFFFFFFFFFFFFFFFFFFFF AND SWAP1 SHL DUP2 PUSH2 0x6C1 SWAP2 SWAP1 PUSH2 0x184B JUMP JUMPDEST SWAP7 POP POP POP POP POP POP POP SWAP3 POP SWAP3 SWAP1 POP JUMP JUMPDEST PUSH2 0x74A DUP4 DUP5 PUSH20 0xFFFFFFFFFFFFFFFFFFFFFFFFFFFFFFFFFFFFFFFF AND PUSH4 0xA9059CBB DUP6 DUP6 PUSH1 0x40 MLOAD PUSH1 0x24 ADD PUSH2 0x703 SWAP3 SWAP2 SWAP1 PUSH2 0x188B JUMP JUMPDEST PUSH1 0x40 MLOAD PUSH1 0x20 DUP2 DUP4 SUB SUB DUP2 MSTORE SWAP1 PUSH1 0x40 MSTORE SWAP2 POP PUSH1 0xE0 SHL PUSH1 0x20 DUP3 ADD DUP1 MLOAD PUSH28 0xFFFFFFFFFFFFFFFFFFFFFFFFFFFFFFFFFFFFFFFFFFFFFFFFFFFFFFFF DUP4 DUP2 DUP4 AND OR DUP4 MSTORE POP POP POP POP PUSH2 0x95F JUMP JUMPDEST POP POP POP JUMP JUMPDEST PUSH2 0x757 PUSH2 0x9F6 JUMP JUMPDEST PUSH2 0x782 DUP3 DUP3 DUP6 PUSH20 0xFFFFFFFFFFFFFFFFFFFFFFFFFFFFFFFFFFFFFFFF AND PUSH2 0x6D0 SWAP1 SWAP3 SWAP2 SWAP1 PUSH4 0xFFFFFFFF AND JUMP JUMPDEST POP POP POP JUMP JUMPDEST PUSH2 0x78F PUSH2 0x9F6 JUMP JUMPDEST DUP1 PUSH1 0x2 PUSH1 0x14 PUSH2 0x100 EXP DUP2 SLOAD DUP2 PUSH1 0xFF MUL NOT AND SWAP1 DUP4 ISZERO ISZERO MUL OR SWAP1 SSTORE POP POP JUMP JUMPDEST PUSH2 0x7B4 PUSH2 0x9F6 JUMP JUMPDEST PUSH1 0x0 DUP3 PUSH20 0xFFFFFFFFFFFFFFFFFFFFFFFFFFFFFFFFFFFFFFFF AND DUP3 PUSH1 0x40 MLOAD PUSH2 0x7DA SWAP1 PUSH2 0x18E5 JUMP JUMPDEST PUSH1 0x0 PUSH1 0x40 MLOAD DUP1 DUP4 SUB DUP2 DUP6 DUP8 GAS CALL SWAP3 POP POP POP RETURNDATASIZE DUP1 PUSH1 0x0 DUP2 EQ PUSH2 0x817 JUMPI PUSH1 0x40 MLOAD SWAP2 POP PUSH1 0x1F NOT PUSH1 0x3F RETURNDATASIZE ADD AND DUP3 ADD PUSH1 0x40 MSTORE RETURNDATASIZE DUP3 MSTORE RETURNDATASIZE PUSH1 0x0 PUSH1 0x20 DUP5 ADD RETURNDATACOPY PUSH2 0x81C JUMP JUMPDEST PUSH1 0x60 SWAP2 POP JUMPDEST POP POP SWAP1 POP DUP1 PUSH2 0x860 JUMPI PUSH1 0x40 MLOAD PUSH32 0x8C379A000000000000000000000000000000000000000000000000000000000 DUP2 MSTORE PUSH1 0x4 ADD PUSH2 0x857 SWAP1 PUSH2 0x1946 JUMP JUMPDEST PUSH1 0x40 MLOAD DUP1 SWAP2 SUB SWAP1 REVERT JUMPDEST POP POP POP JUMP JUMPDEST PUSH2 0x86D PUSH2 0x9F6 JUMP JUMPDEST PUSH2 0x877 PUSH1 0x0 PUSH2 0xA7D JUMP JUMPDEST JUMP JUMPDEST PUSH1 0x0 DUP1 PUSH1 0x0 SWAP1 SLOAD SWAP1 PUSH2 0x100 EXP SWAP1 DIV PUSH20 0xFFFFFFFFFFFFFFFFFFFFFFFFFFFFFFFFFFFFFFFF AND SWAP1 POP SWAP1 JUMP JUMPDEST PUSH2 0x8AA PUSH2 0x9F6 JUMP JUMPDEST DUP1 PUSH1 0x3 DUP2 SWAP1 SSTORE POP POP JUMP JUMPDEST PUSH2 0x8BC PUSH2 0x9F6 JUMP JUMPDEST DUP1 PUSH1 0x2 PUSH1 0x15 PUSH2 0x100 EXP DUP2 SLOAD DUP2 PUSH1 0xFF MUL NOT AND SWAP1 DUP4 ISZERO ISZERO MUL OR SWAP1 SSTORE POP POP JUMP JUMPDEST PUSH2 0x8E1 PUSH2 0x9F6 JUMP JUMPDEST PUSH1 0x0 PUSH20 0xFFFFFFFFFFFFFFFFFFFFFFFFFFFFFFFFFFFFFFFF AND DUP2 PUSH20 0xFFFFFFFFFFFFFFFFFFFFFFFFFFFFFFFFFFFFFFFF AND SUB PUSH2 0x953 JUMPI PUSH1 0x0 PUSH1 0x40 MLOAD PUSH32 0x1E4FBDF700000000000000000000000000000000000000000000000000000000 DUP2 MSTORE PUSH1 0x4 ADD PUSH2 0x94A SWAP2 SWAP1 PUSH2 0xF05 JUMP JUMPDEST PUSH1 0x40 MLOAD DUP1 SWAP2 SUB SWAP1 REVERT JUMPDEST PUSH2 0x95C DUP2 PUSH2 0xA7D JUMP JUMPDEST POP JUMP JUMPDEST PUSH1 0x0 PUSH2 0x98A DUP3 DUP5 PUSH20 0xFFFFFFFFFFFFFFFFFFFFFFFFFFFFFFFFFFFFFFFF AND PUSH2 0xB41 SWAP1 SWAP2 SWAP1 PUSH4 0xFFFFFFFF AND JUMP JUMPDEST SWAP1 POP PUSH1 0x0 DUP2 MLOAD EQ ISZERO DUP1 ISZERO PUSH2 0x9AF JUMPI POP DUP1 DUP1 PUSH1 0x20 ADD SWAP1 MLOAD DUP2 ADD SWAP1 PUSH2 0x9AD SWAP2 SWAP1 PUSH2 0x197B JUMP JUMPDEST ISZERO JUMPDEST ISZERO PUSH2 0x9F1 JUMPI DUP3 PUSH1 0x40 MLOAD PUSH32 0x5274AFE700000000000000000000000000000000000000000000000000000000 DUP2 MSTORE PUSH1 0x4 ADD PUSH2 0x9E8 SWAP2 SWAP1 PUSH2 0xF05 JUMP JUMPDEST PUSH1 0x40 MLOAD DUP1 SWAP2 SUB SWAP1 REVERT JUMPDEST POP POP POP JUMP JUMPDEST PUSH2 0x9FE PUSH2 0xB57 JUMP JUMPDEST PUSH20 0xFFFFFFFFFFFFFFFFFFFFFFFFFFFFFFFFFFFFFFFF AND PUSH2 0xA1C PUSH2 0x879 JUMP JUMPDEST PUSH20 0xFFFFFFFFFFFFFFFFFFFFFFFFFFFFFFFFFFFFFFFF AND EQ PUSH2 0xA7B JUMPI PUSH2 0xA3F PUSH2 0xB57 JUMP JUMPDEST PUSH1 0x40 MLOAD PUSH32 0x118CDAA700000000000000000000000000000000000000000000000000000000 DUP2 MSTORE PUSH1 0x4 ADD PUSH2 0xA72 SWAP2 SWAP1 PUSH2 0xF05 JUMP JUMPDEST PUSH1 0x40 MLOAD DUP1 SWAP2 SUB SWAP1 REVERT JUMPDEST JUMP JUMPDEST PUSH1 0x0 DUP1 PUSH1 0x0 SWAP1 SLOAD SWAP1 PUSH2 0x100 EXP SWAP1 DIV PUSH20 0xFFFFFFFFFFFFFFFFFFFFFFFFFFFFFFFFFFFFFFFF AND SWAP1 POP DUP2 PUSH1 0x0 DUP1 PUSH2 0x100 EXP DUP2 SLOAD DUP2 PUSH20 0xFFFFFFFFFFFFFFFFFFFFFFFFFFFFFFFFFFFFFFFF MUL NOT AND SWAP1 DUP4 PUSH20 0xFFFFFFFFFFFFFFFFFFFFFFFFFFFFFFFFFFFFFFFF AND MUL OR SWAP1 SSTORE POP DUP2 PUSH20 0xFFFFFFFFFFFFFFFFFFFFFFFFFFFFFFFFFFFFFFFF AND DUP2 PUSH20 0xFFFFFFFFFFFFFFFFFFFFFFFFFFFFFFFFFFFFFFFF AND PUSH32 0x8BE0079C531659141344CD1FD0A4F28419497F9722A3DAAFE3B4186F6B6457E0 PUSH1 0x40 MLOAD PUSH1 0x40 MLOAD DUP1 SWAP2 SUB SWAP1 LOG3 POP POP JUMP JUMPDEST PUSH1 0x60 PUSH2 0xB4F DUP4 DUP4 PUSH1 0x0 PUSH2 0xB5F JUMP JUMPDEST SWAP1 POP SWAP3 SWAP2 POP POP JUMP JUMPDEST PUSH1 0x0 CALLER SWAP1 POP SWAP1 JUMP JUMPDEST PUSH1 0x60 DUP2 SELFBALANCE LT ISZERO PUSH2 0xBA6 JUMPI ADDRESS PUSH1 0x40 MLOAD PUSH32 0xCD78605900000000000000000000000000000000000000000000000000000000 DUP2 MSTORE PUSH1 0x4 ADD PUSH2 0xB9D SWAP2 SWAP1 PUSH2 0xF05 JUMP JUMPDEST PUSH1 0x40 MLOAD DUP1 SWAP2 SUB SWAP1 REVERT JUMPDEST PUSH1 0x0 DUP1 DUP6 PUSH20 0xFFFFFFFFFFFFFFFFFFFFFFFFFFFFFFFFFFFFFFFF AND DUP5 DUP7 PUSH1 0x40 MLOAD PUSH2 0xBCF SWAP2 SWAP1 PUSH2 0x1A0E JUMP JUMPDEST PUSH1 0x0 PUSH1 0x40 MLOAD DUP1 DUP4 SUB DUP2 DUP6 DUP8 GAS CALL SWAP3 POP POP POP RETURNDATASIZE DUP1 PUSH1 0x0 DUP2 EQ PUSH2 0xC0C JUMPI PUSH1 0x40 MLOAD SWAP2 POP PUSH1 0x1F NOT PUSH1 0x3F RETURNDATASIZE ADD AND DUP3 ADD PUSH1 0x40 MSTORE RETURNDATASIZE DUP3 MSTORE RETURNDATASIZE PUSH1 0x0 PUSH1 0x20 DUP5 ADD RETURNDATACOPY PUSH2 0xC11 JUMP JUMPDEST PUSH1 0x60 SWAP2 POP JUMPDEST POP SWAP2 POP SWAP2 POP PUSH2 0xC21 DUP7 DUP4 DUP4 PUSH2 0xC2C JUMP JUMPDEST SWAP3 POP POP POP SWAP4 SWAP3 POP POP POP JUMP JUMPDEST PUSH1 0x60 DUP3 PUSH2 0xC41 JUMPI PUSH2 0xC3C DUP3 PUSH2 0xCBB JUMP JUMPDEST PUSH2 0xCB3 JUMP JUMPDEST PUSH1 0x0 DUP3 MLOAD EQ DUP1 ISZERO PUSH2 0xC69 JUMPI POP PUSH1 0x0 DUP5 PUSH20 0xFFFFFFFFFFFFFFFFFFFFFFFFFFFFFFFFFFFFFFFF AND EXTCODESIZE EQ JUMPDEST ISZERO PUSH2 0xCAB JUMPI DUP4 PUSH1 0x40 MLOAD PUSH32 0x9996B31500000000000000000000000000000000000000000000000000000000 DUP2 MSTORE PUSH1 0x4 ADD PUSH2 0xCA2 SWAP2 SWAP1 PUSH2 0xF05 JUMP JUMPDEST PUSH1 0x40 MLOAD DUP1 SWAP2 SUB SWAP1 REVERT JUMPDEST DUP2 SWAP1 POP PUSH2 0xCB4 JUMP JUMPDEST JUMPDEST SWAP4 SWAP3 POP POP POP JUMP JUMPDEST PUSH1 0x0 DUP2 MLOAD GT ISZERO PUSH2 0xCCE JUMPI DUP1 MLOAD DUP1 DUP3 PUSH1 0x20 ADD REVERT JUMPDEST PUSH1 0x40 MLOAD PUSH32 0x1425EA4200000000000000000000000000000000000000000000000000000000 DUP2 MSTORE PUSH1 0x4 ADD PUSH1 0x40 MLOAD DUP1 SWAP2 SUB SWAP1 REVERT JUMPDEST PUSH1 0x0 DUP3 DUP3 MSTORE PUSH1 0x20 DUP3 ADD SWAP1 POP SWAP3 SWAP2 POP POP JUMP JUMPDEST PUSH32 0x496E73756666696369656E74204554482070726F76696465642E000000000000 PUSH1 0x0 DUP3 ADD MSTORE POP JUMP JUMPDEST PUSH1 0x0 PUSH2 0xD47 PUSH1 0x1A DUP4 PUSH2 0xD00 JUMP JUMPDEST SWAP2 POP PUSH2 0xD52 DUP3 PUSH2 0xD11 JUMP JUMPDEST PUSH1 0x20 DUP3 ADD SWAP1 POP SWAP2 SWAP1 POP JUMP JUMPDEST PUSH1 0x0 PUSH1 0x20 DUP3 ADD SWAP1 POP DUP2 DUP2 SUB PUSH1 0x0 DUP4 ADD MSTORE PUSH2 0xD76 DUP2 PUSH2 0xD3A JUMP JUMPDEST SWAP1 POP SWAP2 SWAP1 POP JUMP JUMPDEST PUSH32 0x446973747269627574696F6E206973207061757365642E000000000000000000 PUSH1 0x0 DUP3 ADD MSTORE POP JUMP JUMPDEST PUSH1 0x0 PUSH2 0xDB3 PUSH1 0x17 DUP4 PUSH2 0xD00 JUMP JUMPDEST SWAP2 POP PUSH2 0xDBE DUP3 PUSH2 0xD7D JUMP JUMPDEST PUSH1 0x20 DUP3 ADD SWAP1 POP SWAP2 SWAP1 POP JUMP JUMPDEST PUSH1 0x0 PUSH1 0x20 DUP3 ADD SWAP1 POP DUP2 DUP2 SUB PUSH1 0x0 DUP4 ADD MSTORE PUSH2 0xDE2 DUP2 PUSH2 0xDA6 JUMP JUMPDEST SWAP1 POP SWAP2 SWAP1 POP JUMP JUMPDEST PUSH1 0x0 DUP2 SWAP1 POP SWAP2 SWAP1 POP JUMP JUMPDEST PUSH32 0x4E487B7100000000000000000000000000000000000000000000000000000000 PUSH1 0x0 MSTORE PUSH1 0x11 PUSH1 0x4 MSTORE PUSH1 0x24 PUSH1 0x0 REVERT JUMPDEST PUSH1 0x0 PUSH2 0xE2D DUP3 PUSH2 0xDE9 JUMP JUMPDEST SWAP2 POP PUSH2 0xE38 DUP4 PUSH2 0xDE9 JUMP JUMPDEST SWAP3 POP DUP3 DUP3 MUL PUSH2 0xE46 DUP2 PUSH2 0xDE9 JUMP JUMPDEST SWAP2 POP DUP3 DUP3 DIV DUP5 EQ DUP4 ISZERO OR PUSH2 0xE5D JUMPI PUSH2 0xE5C PUSH2 0xDF3 JUMP JUMPDEST JUMPDEST POP SWAP3 SWAP2 POP POP JUMP JUMPDEST PUSH32 0x4E487B7100000000000000000000000000000000000000000000000000000000 PUSH1 0x0 MSTORE PUSH1 0x12 PUSH1 0x4 MSTORE PUSH1 0x24 PUSH1 0x0 REVERT JUMPDEST PUSH1 0x0 PUSH2 0xE9E DUP3 PUSH2 0xDE9 JUMP JUMPDEST SWAP2 POP PUSH2 0xEA9 DUP4 PUSH2 0xDE9 JUMP JUMPDEST SWAP3 POP DUP3 PUSH2 0xEB9 JUMPI PUSH2 0xEB8 PUSH2 0xE64 JUMP JUMPDEST JUMPDEST DUP3 DUP3 DIV SWAP1 POP SWAP3 SWAP2 POP POP JUMP JUMPDEST PUSH1 0x0 PUSH20 0xFFFFFFFFFFFFFFFFFFFFFFFFFFFFFFFFFFFFFFFF DUP3 AND SWAP1 POP SWAP2 SWAP1 POP JUMP JUMPDEST PUSH1 0x0 PUSH2 0xEEF DUP3 PUSH2 0xEC4 JUMP JUMPDEST SWAP1 POP SWAP2 SWAP1 POP JUMP JUMPDEST PUSH2 0xEFF DUP2 PUSH2 0xEE4 JUMP JUMPDEST DUP3 MSTORE POP POP JUMP JUMPDEST PUSH1 0x0 PUSH1 0x20 DUP3 ADD SWAP1 POP PUSH2 0xF1A PUSH1 0x0 DUP4 ADD DUP5 PUSH2 0xEF6 JUMP JUMPDEST SWAP3 SWAP2 POP POP JUMP JUMPDEST PUSH1 0x0 PUSH1 0x40 MLOAD SWAP1 POP SWAP1 JUMP JUMPDEST PUSH1 0x0 DUP1 REVERT JUMPDEST PUSH1 0x0 DUP1 REVERT JUMPDEST PUSH2 0xF3D DUP2 PUSH2 0xDE9 JUMP JUMPDEST DUP2 EQ PUSH2 0xF48 JUMPI PUSH1 0x0 DUP1 REVERT JUMPDEST POP JUMP JUMPDEST PUSH1 0x0 DUP2 MLOAD SWAP1 POP PUSH2 0xF5A DUP2 PUSH2 0xF34 JUMP JUMPDEST SWAP3 SWAP2 POP POP JUMP JUMPDEST PUSH1 0x0 PUSH1 0x20 DUP3 DUP5 SUB SLT ISZERO PUSH2 0xF76 JUMPI PUSH2 0xF75 PUSH2 0xF2A JUMP JUMPDEST JUMPDEST PUSH1 0x0 PUSH2 0xF84 DUP5 DUP3 DUP6 ADD PUSH2 0xF4B JUMP JUMPDEST SWAP2 POP POP SWAP3 SWAP2 POP POP JUMP JUMPDEST PUSH32 0x4E6F7420656E6F75676820746F6B656E7320617661696C61626C652E00000000 PUSH1 0x0 DUP3 ADD MSTORE POP JUMP JUMPDEST PUSH1 0x0 PUSH2 0xFC3 PUSH1 0x1C DUP4 PUSH2 0xD00 JUMP JUMPDEST SWAP2 POP PUSH2 0xFCE DUP3 PUSH2 0xF8D JUMP JUMPDEST PUSH1 0x20 DUP3 ADD SWAP1 POP SWAP2 SWAP1 POP JUMP JUMPDEST PUSH1 0x0 PUSH1 0x20 DUP3 ADD SWAP1 POP DUP2 DUP2 SUB PUSH1 0x0 DUP4 ADD MSTORE PUSH2 0xFF2 DUP2 PUSH2 0xFB6 JUMP JUMPDEST SWAP1 POP SWAP2 SWAP1 POP JUMP JUMPDEST PUSH2 0x1002 DUP2 PUSH2 0xEE4 JUMP JUMPDEST DUP2 EQ PUSH2 0x100D JUMPI PUSH1 0x0 DUP1 REVERT JUMPDEST POP JUMP JUMPDEST PUSH1 0x0 DUP2 CALLDATALOAD SWAP1 POP PUSH2 0x101F DUP2 PUSH2 0xFF9 JUMP JUMPDEST SWAP3 SWAP2 POP POP JUMP JUMPDEST PUSH1 0x0 DUP2 CALLDATALOAD SWAP1 POP PUSH2 0x1034 DUP2 PUSH2 0xF34 JUMP JUMPDEST SWAP3 SWAP2 POP POP JUMP JUMPDEST PUSH1 0x0 DUP1 PUSH1 0x0 PUSH1 0x60 DUP5 DUP7 SUB SLT ISZERO PUSH2 0x1053 JUMPI PUSH2 0x1052 PUSH2 0xF2A JUMP JUMPDEST JUMPDEST PUSH1 0x0 PUSH2 0x1061 DUP7 DUP3 DUP8 ADD PUSH2 0x1010 JUMP JUMPDEST SWAP4 POP POP PUSH1 0x20 PUSH2 0x1072 DUP7 DUP3 DUP8 ADD PUSH2 0x1010 JUMP JUMPDEST SWAP3 POP POP PUSH1 0x40 PUSH2 0x1083 DUP7 DUP3 DUP8 ADD PUSH2 0x1025 JUMP JUMPDEST SWAP2 POP POP SWAP3 POP SWAP3 POP SWAP3 JUMP JUMPDEST PUSH1 0x0 DUP2 ISZERO ISZERO SWAP1 POP SWAP2 SWAP1 POP JUMP JUMPDEST PUSH2 0x10A2 DUP2 PUSH2 0x108D JUMP JUMPDEST DUP2 EQ PUSH2 0x10AD JUMPI PUSH1 0x0 DUP1 REVERT JUMPDEST POP JUMP JUMPDEST PUSH1 0x0 DUP2 CALLDATALOAD SWAP1 POP PUSH2 0x10BF DUP2 PUSH2 0x1099 JUMP JUMPDEST SWAP3 SWAP2 POP POP JUMP JUMPDEST PUSH1 0x0 PUSH1 0x20 DUP3 DUP5 SUB SLT ISZERO PUSH2 0x10DB JUMPI PUSH2 0x10DA PUSH2 0xF2A JUMP JUMPDEST JUMPDEST PUSH1 0x0 PUSH2 0x10E9 DUP5 DUP3 DUP6 ADD PUSH2 0x10B0 JUMP JUMPDEST SWAP2 POP POP SWAP3 SWAP2 POP POP JUMP JUMPDEST PUSH1 0x0 PUSH2 0x10FD DUP3 PUSH2 0xEC4 JUMP JUMPDEST SWAP1 POP SWAP2 SWAP1 POP JUMP JUMPDEST PUSH2 0x110D DUP2 PUSH2 0x10F2 JUMP JUMPDEST DUP2 EQ PUSH2 0x1118 JUMPI PUSH1 0x0 DUP1 REVERT JUMPDEST POP JUMP JUMPDEST PUSH1 0x0 DUP2 CALLDATALOAD SWAP1 POP PUSH2 0x112A DUP2 PUSH2 0x1104 JUMP JUMPDEST SWAP3 SWAP2 POP POP JUMP JUMPDEST PUSH1 0x0 DUP1 PUSH1 0x40 DUP4 DUP6 SUB SLT ISZERO PUSH2 0x1147 JUMPI PUSH2 0x1146 PUSH2 0xF2A JUMP JUMPDEST JUMPDEST PUSH1 0x0 PUSH2 0x1155 DUP6 DUP3 DUP7 ADD PUSH2 0x111B JUMP JUMPDEST SWAP3 POP POP PUSH1 0x20 PUSH2 0x1166 DUP6 DUP3 DUP7 ADD PUSH2 0x1025 JUMP JUMPDEST SWAP2 POP POP SWAP3 POP SWAP3 SWAP1 POP JUMP JUMPDEST PUSH1 0x0 PUSH1 0x20 DUP3 DUP5 SUB SLT ISZERO PUSH2 0x1186 JUMPI PUSH2 0x1185 PUSH2 0xF2A JUMP JUMPDEST JUMPDEST PUSH1 0x0 PUSH2 0x1194 DUP5 DUP3 DUP6 ADD PUSH2 0x1025 JUMP JUMPDEST SWAP2 POP POP SWAP3 SWAP2 POP POP JUMP JUMPDEST PUSH1 0x0 PUSH1 0x20 DUP3 DUP5 SUB SLT ISZERO PUSH2 0x11B3 JUMPI PUSH2 0x11B2 PUSH2 0xF2A JUMP JUMPDEST JUMPDEST PUSH1 0x0 PUSH2 0x11C1 DUP5 DUP3 DUP6 ADD PUSH2 0x1010 JUMP JUMPDEST SWAP2 POP POP SWAP3 SWAP2 POP POP JUMP JUMPDEST PUSH32 0x4250000000000000000000000000000000000000000000000000000000000000 PUSH1 0x0 DUP3 ADD MSTORE POP JUMP JUMPDEST PUSH1 0x0 PUSH2 0x1200 PUSH1 0x2 DUP4 PUSH2 0xD00 JUMP JUMPDEST SWAP2 POP PUSH2 0x120B DUP3 PUSH2 0x11CA JUMP JUMPDEST PUSH1 0x20 DUP3 ADD SWAP1 POP SWAP2 SWAP1 POP JUMP JUMPDEST PUSH1 0x0 PUSH1 0x20 DUP3 ADD SWAP1 POP DUP2 DUP2 SUB PUSH1 0x0 DUP4 ADD MSTORE PUSH2 0x122F DUP2 PUSH2 0x11F3 JUMP JUMPDEST SWAP1 POP SWAP2 SWAP1 POP JUMP JUMPDEST PUSH32 0x4E487B7100000000000000000000000000000000000000000000000000000000 PUSH1 0x0 MSTORE PUSH1 0x41 PUSH1 0x4 MSTORE PUSH1 0x24 PUSH1 0x0 REVERT JUMPDEST PUSH32 0x4E487B7100000000000000000000000000000000000000000000000000000000 PUSH1 0x0 MSTORE PUSH1 0x32 PUSH1 0x4 MSTORE PUSH1 0x24 PUSH1 0x0 REVERT JUMPDEST PUSH1 0x0 DUP2 MLOAD SWAP1 POP SWAP2 SWAP1 POP JUMP JUMPDEST PUSH1 0x0 DUP3 DUP3 MSTORE PUSH1 0x20 DUP3 ADD SWAP1 POP SWAP3 SWAP2 POP POP JUMP JUMPDEST PUSH1 0x0 DUP2 SWAP1 POP PUSH1 0x20 DUP3 ADD SWAP1 POP SWAP2 SWAP1 POP JUMP JUMPDEST PUSH1 0x0 PUSH4 0xFFFFFFFF DUP3 AND SWAP1 POP SWAP2 SWAP1 POP JUMP JUMPDEST PUSH2 0x12D9 DUP2 PUSH2 0x12C0 JUMP JUMPDEST DUP3 MSTORE POP POP JUMP JUMPDEST PUSH1 0x0 PUSH2 0x12EB DUP4 DUP4 PUSH2 0x12D0 JUMP JUMPDEST PUSH1 0x20 DUP4 ADD SWAP1 POP SWAP3 SWAP2 POP POP JUMP JUMPDEST PUSH1 0x0 PUSH1 0x20 DUP3 ADD SWAP1 POP SWAP2 SWAP1 POP JUMP JUMPDEST PUSH1 0x0 PUSH2 0x130F DUP3 PUSH2 0x1294 JUMP JUMPDEST PUSH2 0x1319 DUP2 DUP6 PUSH2 0x129F JUMP JUMPDEST SWAP4 POP PUSH2 0x1324 DUP4 PUSH2 0x12B0 JUMP JUMPDEST DUP1 PUSH1 0x0 JUMPDEST DUP4 DUP2 LT ISZERO PUSH2 0x1355 JUMPI DUP2 MLOAD PUSH2 0x133C DUP9 DUP3 PUSH2 0x12DF JUMP JUMPDEST SWAP8 POP PUSH2 0x1347 DUP4 PUSH2 0x12F7 JUMP JUMPDEST SWAP3 POP POP PUSH1 0x1 DUP2 ADD SWAP1 POP PUSH2 0x1328 JUMP JUMPDEST POP DUP6 SWAP4 POP POP POP POP SWAP3 SWAP2 POP POP JUMP JUMPDEST PUSH1 0x0 PUSH1 0x20 DUP3 ADD SWAP1 POP DUP2 DUP2 SUB PUSH1 0x0 DUP4 ADD MSTORE PUSH2 0x137C DUP2 DUP5 PUSH2 0x1304 JUMP JUMPDEST SWAP1 POP SWAP3 SWAP2 POP POP JUMP JUMPDEST PUSH1 0x0 DUP1 REVERT JUMPDEST PUSH1 0x0 PUSH1 0x1F NOT PUSH1 0x1F DUP4 ADD AND SWAP1 POP SWAP2 SWAP1 POP JUMP JUMPDEST PUSH2 0x13A3 DUP3 PUSH2 0x1389 JUMP JUMPDEST DUP2 ADD DUP2 DUP2 LT PUSH8 0xFFFFFFFFFFFFFFFF DUP3 GT OR ISZERO PUSH2 0x13C2 JUMPI PUSH2 0x13C1 PUSH2 0x1236 JUMP JUMPDEST JUMPDEST DUP1 PUSH1 0x40 MSTORE POP POP POP JUMP JUMPDEST PUSH1 0x0 PUSH2 0x13D5 PUSH2 0xF20 JUMP JUMPDEST SWAP1 POP PUSH2 0x13E1 DUP3 DUP3 PUSH2 0x139A JUMP JUMPDEST SWAP2 SWAP1 POP JUMP JUMPDEST PUSH1 0x0 PUSH8 0xFFFFFFFFFFFFFFFF DUP3 GT ISZERO PUSH2 0x1401 JUMPI PUSH2 0x1400 PUSH2 0x1236 JUMP JUMPDEST JUMPDEST PUSH1 0x20 DUP3 MUL SWAP1 POP PUSH1 0x20 DUP2 ADD SWAP1 POP SWAP2 SWAP1 POP JUMP JUMPDEST PUSH1 0x0 DUP1 REVERT JUMPDEST PUSH1 0x0 DUP2 PUSH1 0x6 SIGNEXTEND SWAP1 POP SWAP2 SWAP1 POP JUMP JUMPDEST PUSH2 0x142D DUP2 PUSH2 0x1417 JUMP JUMPDEST DUP2 EQ PUSH2 0x1438 JUMPI PUSH1 0x0 DUP1 REVERT JUMPDEST POP JUMP JUMPDEST PUSH1 0x0 DUP2 MLOAD SWAP1 POP PUSH2 0x144A DUP2 PUSH2 0x1424 JUMP JUMPDEST SWAP3 SWAP2 POP POP JUMP JUMPDEST PUSH1 0x0 PUSH2 0x1463 PUSH2 0x145E DUP5 PUSH2 0x13E6 JUMP JUMPDEST PUSH2 0x13CB JUMP JUMPDEST SWAP1 POP DUP1 DUP4 DUP3 MSTORE PUSH1 0x20 DUP3 ADD SWAP1 POP PUSH1 0x20 DUP5 MUL DUP4 ADD DUP6 DUP2 GT ISZERO PUSH2 0x1486 JUMPI PUSH2 0x1485 PUSH2 0x1412 JUMP JUMPDEST JUMPDEST DUP4 JUMPDEST DUP2 DUP2 LT ISZERO PUSH2 0x14AF JUMPI DUP1 PUSH2 0x149B DUP9 DUP3 PUSH2 0x143B JUMP JUMPDEST DUP5 MSTORE PUSH1 0x20 DUP5 ADD SWAP4 POP POP PUSH1 0x20 DUP2 ADD SWAP1 POP PUSH2 0x1488 JUMP JUMPDEST POP POP POP SWAP4 SWAP3 POP POP POP JUMP JUMPDEST PUSH1 0x0 DUP3 PUSH1 0x1F DUP4 ADD SLT PUSH2 0x14CE JUMPI PUSH2 0x14CD PUSH2 0x1384 JUMP JUMPDEST JUMPDEST DUP2 MLOAD PUSH2 0x14DE DUP5 DUP3 PUSH1 0x20 DUP7 ADD PUSH2 0x1450 JUMP JUMPDEST SWAP2 POP POP SWAP3 SWAP2 POP POP JUMP JUMPDEST PUSH1 0x0 PUSH8 0xFFFFFFFFFFFFFFFF DUP3 GT ISZERO PUSH2 0x1502 JUMPI PUSH2 0x1501 PUSH2 0x1236 JUMP JUMPDEST JUMPDEST PUSH1 0x20 DUP3 MUL SWAP1 POP PUSH1 0x20 DUP2 ADD SWAP1 POP SWAP2 SWAP1 POP JUMP JUMPDEST PUSH2 0x151C DUP2 PUSH2 0xEC4 JUMP JUMPDEST DUP2 EQ PUSH2 0x1527 JUMPI PUSH1 0x0 DUP1 REVERT JUMPDEST POP JUMP JUMPDEST PUSH1 0x0 DUP2 MLOAD SWAP1 POP PUSH2 0x1539 DUP2 PUSH2 0x1513 JUMP JUMPDEST SWAP3 SWAP2 POP POP JUMP JUMPDEST PUSH1 0x0 PUSH2 0x1552 PUSH2 0x154D DUP5 PUSH2 0x14E7 JUMP JUMPDEST PUSH2 0x13CB JUMP JUMPDEST SWAP1 POP DUP1 DUP4 DUP3 MSTORE PUSH1 0x20 DUP3 ADD SWAP1 POP PUSH1 0x20 DUP5 MUL DUP4 ADD DUP6 DUP2 GT ISZERO PUSH2 0x1575 JUMPI PUSH2 0x1574 PUSH2 0x1412 JUMP JUMPDEST JUMPDEST DUP4 JUMPDEST DUP2 DUP2 LT ISZERO PUSH2 0x159E JUMPI DUP1 PUSH2 0x158A DUP9 DUP3 PUSH2 0x152A JUMP JUMPDEST DUP5 MSTORE PUSH1 0x20 DUP5 ADD SWAP4 POP POP PUSH1 0x20 DUP2 ADD SWAP1 POP PUSH2 0x1577 JUMP JUMPDEST POP POP POP SWAP4 SWAP3 POP POP POP JUMP JUMPDEST PUSH1 0x0 DUP3 PUSH1 0x1F DUP4 ADD SLT PUSH2 0x15BD JUMPI PUSH2 0x15BC PUSH2 0x1384 JUMP JUMPDEST JUMPDEST DUP2 MLOAD PUSH2 0x15CD DUP5 DUP3 PUSH1 0x20 DUP7 ADD PUSH2 0x153F JUMP JUMPDEST SWAP2 POP POP SWAP3 SWAP2 POP POP JUMP JUMPDEST PUSH1 0x0 DUP1 PUSH1 0x40 DUP4 DUP6 SUB SLT ISZERO PUSH2 0x15ED JUMPI PUSH2 0x15EC PUSH2 0xF2A JUMP JUMPDEST JUMPDEST PUSH1 0x0 DUP4 ADD MLOAD PUSH8 0xFFFFFFFFFFFFFFFF DUP2 GT ISZERO PUSH2 0x160B JUMPI PUSH2 0x160A PUSH2 0xF2F JUMP JUMPDEST JUMPDEST PUSH2 0x1617 DUP6 DUP3 DUP7 ADD PUSH2 0x14B9 JUMP JUMPDEST SWAP3 POP POP PUSH1 0x20 DUP4 ADD MLOAD PUSH8 0xFFFFFFFFFFFFFFFF DUP2 GT ISZERO PUSH2 0x1638 JUMPI PUSH2 0x1637 PUSH2 0xF2F JUMP JUMPDEST JUMPDEST PUSH2 0x1644 DUP6 DUP3 DUP7 ADD PUSH2 0x15A8 JUMP JUMPDEST SWAP2 POP POP SWAP3 POP SWAP3 SWAP1 POP JUMP JUMPDEST PUSH1 0x0 PUSH2 0x1659 DUP3 PUSH2 0x1417 JUMP JUMPDEST SWAP2 POP PUSH2 0x1664 DUP4 PUSH2 0x1417 JUMP JUMPDEST SWAP3 POP DUP3 DUP3 SUB SWAP1 POP PUSH7 0x7FFFFFFFFFFFFF DUP2 SGT PUSH32 0xFFFFFFFFFFFFFFFFFFFFFFFFFFFFFFFFFFFFFFFFFFFFFFFFFF80000000000000 DUP3 SLT OR ISZERO PUSH2 0x16A7 JUMPI PUSH2 0x16A6 PUSH2 0xDF3 JUMP JUMPDEST JUMPDEST SWAP3 SWAP2 POP POP JUMP JUMPDEST PUSH1 0x0 PUSH2 0x16B8 DUP3 PUSH2 0xEC4 JUMP JUMPDEST SWAP2 POP PUSH2 0x16C3 DUP4 PUSH2 0xEC4 JUMP JUMPDEST SWAP3 POP DUP3 DUP3 SUB SWAP1 POP PUSH20 0xFFFFFFFFFFFFFFFFFFFFFFFFFFFFFFFFFFFFFFFF DUP2 GT ISZERO PUSH2 0x16EF JUMPI PUSH2 0x16EE PUSH2 0xDF3 JUMP JUMPDEST JUMPDEST SWAP3 SWAP2 POP POP JUMP JUMPDEST PUSH1 0x0 PUSH2 0x1700 DUP3 PUSH2 0x1417 JUMP JUMPDEST SWAP2 POP PUSH2 0x170B DUP4 PUSH2 0x1417 JUMP JUMPDEST SWAP3 POP DUP3 PUSH2 0x171B JUMPI PUSH2 0x171A PUSH2 0xE64 JUMP JUMPDEST JUMPDEST PUSH1 0x1 PUSH1 0x0 SUB DUP4 EQ PUSH32 0xFFFFFFFFFFFFFFFFFFFFFFFFFFFFFFFFFFFFFFFFFFFFFFFFFF80000000000000 DUP4 EQ AND ISZERO PUSH2 0x1754 JUMPI PUSH2 0x1753 PUSH2 0xDF3 JUMP JUMPDEST JUMPDEST DUP3 DUP3 SDIV SWAP1 POP SWAP3 SWAP2 POP POP JUMP JUMPDEST PUSH1 0x0 PUSH2 0x176A DUP3 PUSH2 0x1417 JUMP JUMPDEST SWAP2 POP PUSH2 0x1775 DUP4 PUSH2 0x1417 JUMP JUMPDEST SWAP3 POP DUP3 PUSH2 0x1785 JUMPI PUSH2 0x1784 PUSH2 0xE64 JUMP JUMPDEST JUMPDEST DUP3 DUP3 SMOD SWAP1 POP SWAP3 SWAP2 POP POP JUMP JUMPDEST PUSH1 0x0 DUP2 PUSH1 0x2 SIGNEXTEND SWAP1 POP SWAP2 SWAP1 POP JUMP JUMPDEST PUSH1 0x0 PUSH2 0x17A8 DUP3 PUSH2 0x1790 JUMP JUMPDEST SWAP2 POP PUSH32 0xFFFFFFFFFFFFFFFFFFFFFFFFFFFFFFFFFFFFFFFFFFFFFFFFFFFFFFFFFF800000 DUP3 SUB PUSH2 0x17DA JUMPI PUSH2 0x17D9 PUSH2 0xDF3 JUMP JUMPDEST JUMPDEST PUSH1 0x1 DUP3 SUB SWAP1 POP SWAP2 SWAP1 POP JUMP JUMPDEST PUSH1 0x0 PUSH24 0xFFFFFFFFFFFFFFFFFFFFFFFFFFFFFFFFFFFFFFFFFFFFFFFF DUP3 AND SWAP1 POP SWAP2 SWAP1 POP JUMP JUMPDEST PUSH1 0x0 PUSH2 0x1814 DUP3 PUSH2 0x17E5 JUMP JUMPDEST SWAP2 POP PUSH2 0x181F DUP4 PUSH2 0x17E5 JUMP JUMPDEST SWAP3 POP DUP3 DUP3 MUL PUSH2 0x182D DUP2 PUSH2 0x17E5 JUMP JUMPDEST SWAP2 POP DUP3 DUP3 DIV DUP5 EQ DUP4 ISZERO OR PUSH2 0x1844 JUMPI PUSH2 0x1843 PUSH2 0xDF3 JUMP JUMPDEST JUMPDEST POP SWAP3 SWAP2 POP POP JUMP JUMPDEST PUSH1 0x0 PUSH2 0x1856 DUP3 PUSH2 0x17E5 JUMP JUMPDEST SWAP2 POP PUSH2 0x1861 DUP4 PUSH2 0x17E5 JUMP JUMPDEST SWAP3 POP DUP3 PUSH2 0x1871 JUMPI PUSH2 0x1870 PUSH2 0xE64 JUMP JUMPDEST JUMPDEST DUP3 DUP3 DIV SWAP1 POP SWAP3 SWAP2 POP POP JUMP JUMPDEST PUSH2 0x1885 DUP2 PUSH2 0xDE9 JUMP JUMPDEST DUP3 MSTORE POP POP JUMP JUMPDEST PUSH1 0x0 PUSH1 0x40 DUP3 ADD SWAP1 POP PUSH2 0x18A0 PUSH1 0x0 DUP4 ADD DUP6 PUSH2 0xEF6 JUMP JUMPDEST PUSH2 0x18AD PUSH1 0x20 DUP4 ADD DUP5 PUSH2 0x187C JUMP JUMPDEST SWAP4 SWAP3 POP POP POP JUMP JUMPDEST PUSH1 0x0 DUP2 SWAP1 POP SWAP3 SWAP2 POP POP JUMP JUMPDEST POP JUMP JUMPDEST PUSH1 0x0 PUSH2 0x18CF PUSH1 0x0 DUP4 PUSH2 0x18B4 JUMP JUMPDEST SWAP2 POP PUSH2 0x18DA DUP3 PUSH2 0x18BF JUMP JUMPDEST PUSH1 0x0 DUP3 ADD SWAP1 POP SWAP2 SWAP1 POP JUMP JUMPDEST PUSH1 0x0 PUSH2 0x18F0 DUP3 PUSH2 0x18C2 JUMP JUMPDEST SWAP2 POP DUP2 SWAP1 POP SWAP2 SWAP1 POP JUMP JUMPDEST PUSH32 0x4661696C656420746F2073656E64204574686572000000000000000000000000 PUSH1 0x0 DUP3 ADD MSTORE POP JUMP JUMPDEST PUSH1 0x0 PUSH2 0x1930 PUSH1 0x14 DUP4 PUSH2 0xD00 JUMP JUMPDEST SWAP2 POP PUSH2 0x193B DUP3 PUSH2 0x18FA JUMP JUMPDEST PUSH1 0x20 DUP3 ADD SWAP1 POP SWAP2 SWAP1 POP JUMP JUMPDEST PUSH1 0x0 PUSH1 0x20 DUP3 ADD SWAP1 POP DUP2 DUP2 SUB PUSH1 0x0 DUP4 ADD MSTORE PUSH2 0x195F DUP2 PUSH2 0x1923 JUMP JUMPDEST SWAP1 POP SWAP2 SWAP1 POP JUMP JUMPDEST PUSH1 0x0 DUP2 MLOAD SWAP1 POP PUSH2 0x1975 DUP2 PUSH2 0x1099 JUMP JUMPDEST SWAP3 SWAP2 POP POP JUMP JUMPDEST PUSH1 0x0 PUSH1 0x20 DUP3 DUP5 SUB SLT ISZERO PUSH2 0x1991 JUMPI PUSH2 0x1990 PUSH2 0xF2A JUMP JUMPDEST JUMPDEST PUSH1 0x0 PUSH2 0x199F DUP5 DUP3 DUP6 ADD PUSH2 0x1966 JUMP JUMPDEST SWAP2 POP POP SWAP3 SWAP2 POP POP JUMP JUMPDEST PUSH1 0x0 DUP2 MLOAD SWAP1 POP SWAP2 SWAP1 POP JUMP JUMPDEST PUSH1 0x0 JUMPDEST DUP4 DUP2 LT ISZERO PUSH2 0x19D1 JUMPI DUP1 DUP3 ADD MLOAD DUP2 DUP5 ADD MSTORE PUSH1 0x20 DUP2 ADD SWAP1 POP PUSH2 0x19B6 JUMP JUMPDEST PUSH1 0x0 DUP5 DUP5 ADD MSTORE POP POP POP POP JUMP JUMPDEST PUSH1 0x0 PUSH2 0x19E8 DUP3 PUSH2 0x19A8 JUMP JUMPDEST PUSH2 0x19F2 DUP2 DUP6 PUSH2 0x18B4 JUMP JUMPDEST SWAP4 POP PUSH2 0x1A02 DUP2 DUP6 PUSH1 0x20 DUP7 ADD PUSH2 0x19B3 JUMP JUMPDEST DUP1 DUP5 ADD SWAP2 POP POP SWAP3 SWAP2 POP POP JUMP JUMPDEST PUSH1 0x0 PUSH2 0x1A1A DUP3 DUP5 PUSH2 0x19DD JUMP JUMPDEST SWAP2 POP DUP2 SWAP1 POP SWAP3 SWAP2 POP POP JUMP INVALID LOG2 PUSH5 0x6970667358 0x22 SLT KECCAK256 0xD0 ORIGIN 0xCE COINBASE 0xC9 CODESIZE MCOPY 0x22 0xE5 GAS 0xDD DIV 0xD2 GT RETURNDATACOPY 0xA9 0xBC PUSH7 0xB847D22C8B4BA2 INVALID 0x4D 0xE 0xA8 DUP12 PUSH4 0xD764736F PUSH13 0x63430008180033000000000000 "},"methodIdentifiers":{"owner()":"8da5cb5b","renounceOwnership()":"715018a6","setMinimumAmount(uint256)":"eeb4a9c8","setMultiply(bool)":"f170d20d","setPaused(bool)":"16c38b3c","transferOwnership(address)":"f2fde38b","withdrawETH(address,uint256)":"4782f779","withdrawToken(address,address,uint256)":"01e33667"}},"storageLayout":{"storage":[{"astId":54,"contract":"contracts/UniswapV3Distribution.sol:UniswapV3RateDistribution","label":"_owner","offset":0,"slot":"0","type":"t_address"},{"astId":3305,"contract":"contracts/UniswapV3Distribution.sol:UniswapV3RateDistribution","label":"poolAddress","offset":0,"slot":"1","type":"t_address"},{"astId":3308,"contract":"contracts/UniswapV3Distribution.sol:UniswapV3RateDistribution","label":"token","offset":0,"slot":"2","type":"t_contract(IERC20)271"},{"astId":3310,"contract":"contracts/UniswapV3Distribution.sol:UniswapV3RateDistribution","label":"paused","offset":20,"slot":"2","type":"t_bool"},{"astId":3312,"contract":"contracts/UniswapV3Distribution.sol:UniswapV3RateDistribution","label":"multiply","offset":21,"slot":"2","type":"t_bool"},{"astId":3314,"contract":"contracts/UniswapV3Distribution.sol:UniswapV3RateDistribution","label":"minimumAmount","offset":0,"slot":"3","type":"t_uint256"}],"types":{"t_address":{"encoding":"inplace","label":"address","numberOfBytes":"20"},"t_bool":{"encoding":"inplace","label":"bool","numberOfBytes":"1"},"t_contract(IERC20)271":{"encoding":"inplace","label":"contract IERC20","numberOfBytes":"20"},"t_uint256":{"encoding":"inplace","label":"uint256","numberOfBytes":"32"}}}}}}