{
  "_format": "hh-sol-artifact-1",
  "contractName": "FixedRateDistributionToken",
  "sourceName": "contracts/FixedRateDistributionToken.sol",
  "abi": [
    {
      "inputs": [
        {
          "internalType": "address",
          "name": "_token",
          "type": "address"
        },
        {
          "internalType": "address",
          "name": "_tokenAccepted",
          "type": "address"
        },
        {
          "internalType": "bool",
          "name": "_paused",
          "type": "bool"
        },
        {
          "internalType": "bool",
          "name": "_multiply",
          "type": "bool"
        },
        {
          "internalType": "uint256",
          "name": "_rate",
          "type": "uint256"
        },
        {
          "internalType": "uint256",
          "name": "_minimumAmount",
          "type": "uint256"
        }
      ],
      "stateMutability": "nonpayable",
      "type": "constructor"
    },
    {
      "inputs": [
        {
          "internalType": "address",
          "name": "target",
          "type": "address"
        }
      ],
      "name": "AddressEmptyCode",
      "type": "error"
    },
    {
      "inputs": [
        {
          "internalType": "address",
          "name": "account",
          "type": "address"
        }
      ],
      "name": "AddressInsufficientBalance",
      "type": "error"
    },
    {
      "inputs": [],
      "name": "FailedInnerCall",
      "type": "error"
    },
    {
      "inputs": [
        {
          "internalType": "address",
          "name": "owner",
          "type": "address"
        }
      ],
      "name": "OwnableInvalidOwner",
      "type": "error"
    },
    {
      "inputs": [
        {
          "internalType": "address",
          "name": "account",
          "type": "address"
        }
      ],
      "name": "OwnableUnauthorizedAccount",
      "type": "error"
    },
    {
      "inputs": [
        {
          "internalType": "address",
          "name": "token",
          "type": "address"
        }
      ],
      "name": "SafeERC20FailedOperation",
      "type": "error"
    },
    {
      "anonymous": false,
      "inputs": [
        {
          "indexed": true,
          "internalType": "address",
          "name": "previousOwner",
          "type": "address"
        },
        {
          "indexed": true,
          "internalType": "address",
          "name": "newOwner",
          "type": "address"
        }
      ],
      "name": "OwnershipTransferred",
      "type": "event"
    },
    {
      "inputs": [],
      "name": "owner",
      "outputs": [
        {
          "internalType": "address",
          "name": "",
          "type": "address"
        }
      ],
      "stateMutability": "view",
      "type": "function"
    },
    {
      "inputs": [],
      "name": "renounceOwnership",
      "outputs": [],
      "stateMutability": "nonpayable",
      "type": "function"
    },
    {
      "inputs": [
        {
          "internalType": "address",
          "name": "_to",
          "type": "address"
        },
        {
          "internalType": "uint256",
          "name": "_amount",
          "type": "uint256"
        }
      ],
      "name": "sendTokens",
      "outputs": [],
      "stateMutability": "nonpayable",
      "type": "function"
    },
    {
      "inputs": [
        {
          "internalType": "uint256",
          "name": "_minimumAmount",
          "type": "uint256"
        }
      ],
      "name": "setMinimumAmount",
      "outputs": [],
      "stateMutability": "nonpayable",
      "type": "function"
    },
    {
      "inputs": [
        {
          "internalType": "bool",
          "name": "_multiply",
          "type": "bool"
        }
      ],
      "name": "setMultiply",
      "outputs": [],
      "stateMutability": "nonpayable",
      "type": "function"
    },
    {
      "inputs": [
        {
          "internalType": "bool",
          "name": "_paused",
          "type": "bool"
        }
      ],
      "name": "setPaused",
      "outputs": [],
      "stateMutability": "nonpayable",
      "type": "function"
    },
    {
      "inputs": [
        {
          "internalType": "uint256",
          "name": "_rate",
          "type": "uint256"
        }
      ],
      "name": "setRate",
      "outputs": [],
      "stateMutability": "nonpayable",
      "type": "function"
    },
    {
      "inputs": [
        {
          "internalType": "address",
          "name": "newOwner",
          "type": "address"
        }
      ],
      "name": "transferOwnership",
      "outputs": [],
      "stateMutability": "nonpayable",
      "type": "function"
    },
    {
      "inputs": [
        {
          "internalType": "address payable",
          "name": "_to",
          "type": "address"
        },
        {
          "internalType": "uint256",
          "name": "amount",
          "type": "uint256"
        }
      ],
      "name": "withdrawETH",
      "outputs": [],
      "stateMutability": "nonpayable",
      "type": "function"
    },
    {
      "inputs": [
        {
          "internalType": "address",
          "name": "tokenAddress",
          "type": "address"
        },
        {
          "internalType": "address",
          "name": "to",
          "type": "address"
        },
        {
          "internalType": "uint256",
          "name": "amount",
          "type": "uint256"
        }
      ],
      "name": "withdrawToken",
      "outputs": [],
      "stateMutability": "nonpayable",
      "type": "function"
    }
  ],
  "bytecode": "0x60806040523480156200001157600080fd5b50604051620015e0380380620015e0833981810160405281019062000037919062000335565b33600073ffffffffffffffffffffffffffffffffffffffff168173ffffffffffffffffffffffffffffffffffffffff1603620000ad5760006040517f1e4fbdf7000000000000000000000000000000000000000000000000000000008152600401620000a49190620003e2565b60405180910390fd5b620000be816200018f60201b60201c565b5083600260146101000a81548160ff02191690831515021790555082600260156101000a81548160ff021916908315150217905550816003819055508060048190555085600160006101000a81548173ffffffffffffffffffffffffffffffffffffffff021916908373ffffffffffffffffffffffffffffffffffffffff16021790555084600260006101000a81548173ffffffffffffffffffffffffffffffffffffffff021916908373ffffffffffffffffffffffffffffffffffffffff160217905550505050505050620003ff565b60008060009054906101000a900473ffffffffffffffffffffffffffffffffffffffff169050816000806101000a81548173ffffffffffffffffffffffffffffffffffffffff021916908373ffffffffffffffffffffffffffffffffffffffff1602179055508173ffffffffffffffffffffffffffffffffffffffff168173ffffffffffffffffffffffffffffffffffffffff167f8be0079c531659141344cd1fd0a4f28419497f9722a3daafe3b4186f6b6457e060405160405180910390a35050565b600080fd5b600073ffffffffffffffffffffffffffffffffffffffff82169050919050565b6000620002858262000258565b9050919050565b620002978162000278565b8114620002a357600080fd5b50565b600081519050620002b7816200028c565b92915050565b60008115159050919050565b620002d481620002bd565b8114620002e057600080fd5b50565b600081519050620002f481620002c9565b92915050565b6000819050919050565b6200030f81620002fa565b81146200031b57600080fd5b50565b6000815190506200032f8162000304565b92915050565b60008060008060008060c0878903121562000355576200035462000253565b5b60006200036589828a01620002a6565b96505060206200037889828a01620002a6565b95505060406200038b89828a01620002e3565b94505060606200039e89828a01620002e3565b9350506080620003b189828a016200031e565b92505060a0620003c489828a016200031e565b9150509295509295509295565b620003dc8162000278565b82525050565b6000602082019050620003f96000830184620003d1565b92915050565b6111d1806200040f6000396000f3fe608060405234801561001057600080fd5b506004361061009e5760003560e01c8063715018a611610066578063715018a61461012f5780638da5cb5b14610139578063eeb4a9c814610157578063f170d20d14610173578063f2fde38b1461018f5761009e565b806301e33667146100a357806305ab421d146100bf57806316c38b3c146100db57806334fcf437146100f75780634782f77914610113575b600080fd5b6100bd60048036038101906100b89190610b59565b6101ab565b005b6100d960048036038101906100d49190610bac565b6101e3565b005b6100f560048036038101906100f09190610c24565b610434565b005b610111600480360381019061010c9190610c51565b610459565b005b61012d60048036038101906101289190610cbc565b61046b565b005b610137610524565b005b610141610538565b60405161014e9190610d0b565b60405180910390f35b610171600480360381019061016c9190610c51565b610561565b005b61018d60048036038101906101889190610c24565b610573565b005b6101a960048036038101906101a49190610d26565b610598565b005b6101b361061e565b6101de82828573ffffffffffffffffffffffffffffffffffffffff166106a59092919063ffffffff16565b505050565b600454811015610228576040517f08c379a000000000000000000000000000000000000000000000000000000000815260040161021f90610db0565b60405180910390fd5b600260149054906101000a900460ff1615610278576040517f08c379a000000000000000000000000000000000000000000000000000000000815260040161026f90610e1c565b60405180910390fd5b6102c7333083600260009054906101000a900473ffffffffffffffffffffffffffffffffffffffff1673ffffffffffffffffffffffffffffffffffffffff16610724909392919063ffffffff16565b6000600260159054906101000a900460ff16156102f357600354826102ec9190610e6b565b9050610304565b600354826103019190610edc565b90505b600160009054906101000a900473ffffffffffffffffffffffffffffffffffffffff1673ffffffffffffffffffffffffffffffffffffffff166370a08231306040518263ffffffff1660e01b815260040161035f9190610d0b565b602060405180830381865afa15801561037c573d6000803e3d6000fd5b505050506040513d601f19601f820116820180604052508101906103a09190610f22565b8111156103e2576040517f08c379a00000000000000000000000000000000000000000000000000000000081526004016103d990610f9b565b60405180910390fd5b61042f8382600160009054906101000a900473ffffffffffffffffffffffffffffffffffffffff1673ffffffffffffffffffffffffffffffffffffffff166106a59092919063ffffffff16565b505050565b61043c61061e565b80600260146101000a81548160ff02191690831515021790555050565b61046161061e565b8060038190555050565b61047361061e565b60008273ffffffffffffffffffffffffffffffffffffffff168260405161049990610fec565b60006040518083038185875af1925050503d80600081146104d6576040519150601f19603f3d011682016040523d82523d6000602084013e6104db565b606091505b505090508061051f576040517f08c379a00000000000000000000000000000000000000000000000000000000081526004016105169061104d565b60405180910390fd5b505050565b61052c61061e565b61053660006107a6565b565b60008060009054906101000a900473ffffffffffffffffffffffffffffffffffffffff16905090565b61056961061e565b8060048190555050565b61057b61061e565b80600260156101000a81548160ff02191690831515021790555050565b6105a061061e565b600073ffffffffffffffffffffffffffffffffffffffff168173ffffffffffffffffffffffffffffffffffffffff16036106125760006040517f1e4fbdf70000000000000000000000000000000000000000000000000000000081526004016106099190610d0b565b60405180910390fd5b61061b816107a6565b50565b61062661086a565b73ffffffffffffffffffffffffffffffffffffffff16610644610538565b73ffffffffffffffffffffffffffffffffffffffff16146106a35761066761086a565b6040517f118cdaa700000000000000000000000000000000000000000000000000000000815260040161069a9190610d0b565b60405180910390fd5b565b61071f838473ffffffffffffffffffffffffffffffffffffffff1663a9059cbb85856040516024016106d892919061107c565b604051602081830303815290604052915060e01b6020820180517bffffffffffffffffffffffffffffffffffffffffffffffffffffffff8381831617835250505050610872565b505050565b6107a0848573ffffffffffffffffffffffffffffffffffffffff166323b872dd868686604051602401610759939291906110a5565b604051602081830303815290604052915060e01b6020820180517bffffffffffffffffffffffffffffffffffffffffffffffffffffffff8381831617835250505050610872565b50505050565b60008060009054906101000a900473ffffffffffffffffffffffffffffffffffffffff169050816000806101000a81548173ffffffffffffffffffffffffffffffffffffffff021916908373ffffffffffffffffffffffffffffffffffffffff1602179055508173ffffffffffffffffffffffffffffffffffffffff168173ffffffffffffffffffffffffffffffffffffffff167f8be0079c531659141344cd1fd0a4f28419497f9722a3daafe3b4186f6b6457e060405160405180910390a35050565b600033905090565b600061089d828473ffffffffffffffffffffffffffffffffffffffff1661090990919063ffffffff16565b905060008151141580156108c25750808060200190518101906108c091906110f1565b155b1561090457826040517f5274afe70000000000000000000000000000000000000000000000000000000081526004016108fb9190610d0b565b60405180910390fd5b505050565b60606109178383600061091f565b905092915050565b60608147101561096657306040517fcd78605900000000000000000000000000000000000000000000000000000000815260040161095d9190610d0b565b60405180910390fd5b6000808573ffffffffffffffffffffffffffffffffffffffff16848660405161098f9190611184565b60006040518083038185875af1925050503d80600081146109cc576040519150601f19603f3d011682016040523d82523d6000602084013e6109d1565b606091505b50915091506109e18683836109ec565b925050509392505050565b606082610a01576109fc82610a7b565b610a73565b60008251148015610a29575060008473ffffffffffffffffffffffffffffffffffffffff163b145b15610a6b57836040517f9996b315000000000000000000000000000000000000000000000000000000008152600401610a629190610d0b565b60405180910390fd5b819050610a74565b5b9392505050565b600081511115610a8e5780518082602001fd5b6040517f1425ea4200000000000000000000000000000000000000000000000000000000815260040160405180910390fd5b600080fd5b600073ffffffffffffffffffffffffffffffffffffffff82169050919050565b6000610af082610ac5565b9050919050565b610b0081610ae5565b8114610b0b57600080fd5b50565b600081359050610b1d81610af7565b92915050565b6000819050919050565b610b3681610b23565b8114610b4157600080fd5b50565b600081359050610b5381610b2d565b92915050565b600080600060608486031215610b7257610b71610ac0565b5b6000610b8086828701610b0e565b9350506020610b9186828701610b0e565b9250506040610ba286828701610b44565b9150509250925092565b60008060408385031215610bc357610bc2610ac0565b5b6000610bd185828601610b0e565b9250506020610be285828601610b44565b9150509250929050565b60008115159050919050565b610c0181610bec565b8114610c0c57600080fd5b50565b600081359050610c1e81610bf8565b92915050565b600060208284031215610c3a57610c39610ac0565b5b6000610c4884828501610c0f565b91505092915050565b600060208284031215610c6757610c66610ac0565b5b6000610c7584828501610b44565b91505092915050565b6000610c8982610ac5565b9050919050565b610c9981610c7e565b8114610ca457600080fd5b50565b600081359050610cb681610c90565b92915050565b60008060408385031215610cd357610cd2610ac0565b5b6000610ce185828601610ca7565b9250506020610cf285828601610b44565b9150509250929050565b610d0581610ae5565b82525050565b6000602082019050610d206000830184610cfc565b92915050565b600060208284031215610d3c57610d3b610ac0565b5b6000610d4a84828501610b0e565b91505092915050565b600082825260208201905092915050565b7f496e73756666696369656e7420746f6b656e732070726f76696465642e000000600082015250565b6000610d9a601d83610d53565b9150610da582610d64565b602082019050919050565b60006020820190508181036000830152610dc981610d8d565b9050919050565b7f446973747269627574696f6e206973207061757365642e000000000000000000600082015250565b6000610e06601783610d53565b9150610e1182610dd0565b602082019050919050565b60006020820190508181036000830152610e3581610df9565b9050919050565b7f4e487b7100000000000000000000000000000000000000000000000000000000600052601160045260246000fd5b6000610e7682610b23565b9150610e8183610b23565b9250828202610e8f81610b23565b91508282048414831517610ea657610ea5610e3c565b5b5092915050565b7f4e487b7100000000000000000000000000000000000000000000000000000000600052601260045260246000fd5b6000610ee782610b23565b9150610ef283610b23565b925082610f0257610f01610ead565b5b828204905092915050565b600081519050610f1c81610b2d565b92915050565b600060208284031215610f3857610f37610ac0565b5b6000610f4684828501610f0d565b91505092915050565b7f4e6f7420656e6f75676820746f6b656e7320617661696c61626c652e00000000600082015250565b6000610f85601c83610d53565b9150610f9082610f4f565b602082019050919050565b60006020820190508181036000830152610fb481610f78565b9050919050565b600081905092915050565b50565b6000610fd6600083610fbb565b9150610fe182610fc6565b600082019050919050565b6000610ff782610fc9565b9150819050919050565b7f4661696c656420746f2073656e64204574686572000000000000000000000000600082015250565b6000611037601483610d53565b915061104282611001565b602082019050919050565b600060208201905081810360008301526110668161102a565b9050919050565b61107681610b23565b82525050565b60006040820190506110916000830185610cfc565b61109e602083018461106d565b9392505050565b60006060820190506110ba6000830186610cfc565b6110c76020830185610cfc565b6110d4604083018461106d565b949350505050565b6000815190506110eb81610bf8565b92915050565b60006020828403121561110757611106610ac0565b5b6000611115848285016110dc565b91505092915050565b600081519050919050565b60005b8381101561114757808201518184015260208101905061112c565b60008484015250505050565b600061115e8261111e565b6111688185610fbb565b9350611178818560208601611129565b80840191505092915050565b60006111908284611153565b91508190509291505056fea26469706673582212207c928181d038b11681fccd0ac42f774b6d6944626046ec9db8bcf1198db8bf5a64736f6c63430008180033",
  "linkReferences": {},
  "deployedLinkReferences": {}
}