{
  "_format": "hh-sol-artifact-1",
  "contractName": "APICall",
  "sourceName": "contracts/APICall.sol",
  "abi": [
    {
      "inputs": [
        {
          "internalType": "address",
          "name": "_token",
          "type": "address"
        },
        {
          "internalType": "bool",
          "name": "_paused",
          "type": "bool"
        }
      ],
      "stateMutability": "nonpayable",
      "type": "constructor"
    },
    {
      "inputs": [
        {
          "internalType": "address",
          "name": "target",
          "type": "address"
        }
      ],
      "name": "AddressEmptyCode",
      "type": "error"
    },
    {
      "inputs": [
        {
          "internalType": "address",
          "name": "account",
          "type": "address"
        }
      ],
      "name": "AddressInsufficientBalance",
      "type": "error"
    },
    {
      "inputs": [],
      "name": "FailedInnerCall",
      "type": "error"
    },
    {
      "inputs": [
        {
          "internalType": "address",
          "name": "owner",
          "type": "address"
        }
      ],
      "name": "OwnableInvalidOwner",
      "type": "error"
    },
    {
      "inputs": [
        {
          "internalType": "address",
          "name": "account",
          "type": "address"
        }
      ],
      "name": "OwnableUnauthorizedAccount",
      "type": "error"
    },
    {
      "inputs": [
        {
          "internalType": "address",
          "name": "token",
          "type": "address"
        }
      ],
      "name": "SafeERC20FailedOperation",
      "type": "error"
    },
    {
      "anonymous": false,
      "inputs": [
        {
          "indexed": true,
          "internalType": "address",
          "name": "previousOwner",
          "type": "address"
        },
        {
          "indexed": true,
          "internalType": "address",
          "name": "newOwner",
          "type": "address"
        }
      ],
      "name": "OwnershipTransferred",
      "type": "event"
    },
    {
      "inputs": [
        {
          "internalType": "uint256",
          "name": "serviceProviderId",
          "type": "uint256"
        },
        {
          "internalType": "bool",
          "name": "isOnline",
          "type": "bool"
        },
        {
          "internalType": "uint256",
          "name": "maxTimeout",
          "type": "uint256"
        },
        {
          "internalType": "uint256",
          "name": "pricePerCall",
          "type": "uint256"
        },
        {
          "internalType": "uint256",
          "name": "responseStoredFor",
          "type": "uint256"
        }
      ],
      "name": "addService",
      "outputs": [],
      "stateMutability": "nonpayable",
      "type": "function"
    },
    {
      "inputs": [
        {
          "internalType": "bytes",
          "name": "publicKey",
          "type": "bytes"
        }
      ],
      "name": "addServiceProvider",
      "outputs": [],
      "stateMutability": "nonpayable",
      "type": "function"
    },
    {
      "inputs": [
        {
          "internalType": "uint256",
          "name": "serviceId",
          "type": "uint256"
        },
        {
          "internalType": "uint256",
          "name": "serviceProviderId",
          "type": "uint256"
        },
        {
          "internalType": "bool",
          "name": "isOnline",
          "type": "bool"
        },
        {
          "internalType": "uint256",
          "name": "maxTimeout",
          "type": "uint256"
        },
        {
          "internalType": "uint256",
          "name": "pricePerCall",
          "type": "uint256"
        },
        {
          "internalType": "uint256",
          "name": "responseStoredFor",
          "type": "uint256"
        }
      ],
      "name": "editService",
      "outputs": [],
      "stateMutability": "nonpayable",
      "type": "function"
    },
    {
      "inputs": [
        {
          "internalType": "uint256",
          "name": "serviceProviderId",
          "type": "uint256"
        },
        {
          "internalType": "bytes",
          "name": "publicKey",
          "type": "bytes"
        }
      ],
      "name": "editServiceProvider",
      "outputs": [],
      "stateMutability": "nonpayable",
      "type": "function"
    },
    {
      "inputs": [
        {
          "internalType": "uint256",
          "name": "serviceId",
          "type": "uint256"
        }
      ],
      "name": "getService",
      "outputs": [
        {
          "components": [
            {
              "internalType": "uint256",
              "name": "serviceProvider",
              "type": "uint256"
            },
            {
              "internalType": "bool",
              "name": "isOnline",
              "type": "bool"
            },
            {
              "internalType": "uint256",
              "name": "maxTimeout",
              "type": "uint256"
            },
            {
              "internalType": "uint256",
              "name": "pricePerCall",
              "type": "uint256"
            },
            {
              "internalType": "uint256",
              "name": "responseStoredFor",
              "type": "uint256"
            }
          ],
          "internalType": "struct APICall.Service",
          "name": "",
          "type": "tuple"
        }
      ],
      "stateMutability": "view",
      "type": "function"
    },
    {
      "inputs": [
        {
          "internalType": "uint256",
          "name": "serviceProviderId",
          "type": "uint256"
        }
      ],
      "name": "getServiceProvider",
      "outputs": [
        {
          "components": [
            {
              "internalType": "bytes",
              "name": "publicKey",
              "type": "bytes"
            }
          ],
          "internalType": "struct APICall.ServiceProvider",
          "name": "",
          "type": "tuple"
        }
      ],
      "stateMutability": "view",
      "type": "function"
    },
    {
      "inputs": [
        {
          "internalType": "uint256",
          "name": "serviceId",
          "type": "uint256"
        }
      ],
      "name": "makeApiCall",
      "outputs": [],
      "stateMutability": "payable",
      "type": "function"
    },
    {
      "inputs": [],
      "name": "owner",
      "outputs": [
        {
          "internalType": "address",
          "name": "",
          "type": "address"
        }
      ],
      "stateMutability": "view",
      "type": "function"
    },
    {
      "inputs": [],
      "name": "renounceOwnership",
      "outputs": [],
      "stateMutability": "nonpayable",
      "type": "function"
    },
    {
      "inputs": [
        {
          "internalType": "bool",
          "name": "_paused",
          "type": "bool"
        }
      ],
      "name": "setPaused",
      "outputs": [],
      "stateMutability": "nonpayable",
      "type": "function"
    },
    {
      "inputs": [
        {
          "internalType": "address",
          "name": "newOwner",
          "type": "address"
        }
      ],
      "name": "transferOwnership",
      "outputs": [],
      "stateMutability": "nonpayable",
      "type": "function"
    },
    {
      "inputs": [
        {
          "internalType": "address payable",
          "name": "_to",
          "type": "address"
        },
        {
          "internalType": "uint256",
          "name": "amount",
          "type": "uint256"
        }
      ],
      "name": "withdrawETH",
      "outputs": [],
      "stateMutability": "nonpayable",
      "type": "function"
    },
    {
      "inputs": [
        {
          "internalType": "address",
          "name": "tokenAddress",
          "type": "address"
        },
        {
          "internalType": "address",
          "name": "to",
          "type": "address"
        },
        {
          "internalType": "uint256",
          "name": "amount",
          "type": "uint256"
        }
      ],
      "name": "withdrawToken",
      "outputs": [],
      "stateMutability": "nonpayable",
      "type": "function"
    }
  ],
  "bytecode": "0x60806040523480156200001157600080fd5b5060405162001cec38038062001cec83398181016040528101906200003791906200029d565b33600073ffffffffffffffffffffffffffffffffffffffff168173ffffffffffffffffffffffffffffffffffffffff1603620000ad5760006040517f1e4fbdf7000000000000000000000000000000000000000000000000000000008152600401620000a49190620002f5565b60405180910390fd5b620000be816200013260201b60201c565b5080600660006101000a81548160ff0219169083151502179055506000600381905550600060058190555081600160006101000a81548173ffffffffffffffffffffffffffffffffffffffff021916908373ffffffffffffffffffffffffffffffffffffffff160217905550505062000312565b60008060009054906101000a900473ffffffffffffffffffffffffffffffffffffffff169050816000806101000a81548173ffffffffffffffffffffffffffffffffffffffff021916908373ffffffffffffffffffffffffffffffffffffffff1602179055508173ffffffffffffffffffffffffffffffffffffffff168173ffffffffffffffffffffffffffffffffffffffff167f8be0079c531659141344cd1fd0a4f28419497f9722a3daafe3b4186f6b6457e060405160405180910390a35050565b600080fd5b600073ffffffffffffffffffffffffffffffffffffffff82169050919050565b60006200022882620001fb565b9050919050565b6200023a816200021b565b81146200024657600080fd5b50565b6000815190506200025a816200022f565b92915050565b60008115159050919050565b620002778162000260565b81146200028357600080fd5b50565b60008151905062000297816200026c565b92915050565b60008060408385031215620002b757620002b6620001f6565b5b6000620002c78582860162000249565b9250506020620002da8582860162000286565b9150509250929050565b620002ef816200021b565b82525050565b60006020820190506200030c6000830184620002e4565b92915050565b6119ca80620003226000396000f3fe6080604052600436106100c25760003560e01c8063794280a91161007f5780638b9c639a116100595780638b9c639a1461022d5780638da5cb5b14610256578063ef0e239b14610281578063f2fde38b146102be576100c2565b8063794280a91461019e5780637ecb38de146101c7578063802ffb45146101f0576100c2565b806301e33667146100c757806316c38b3c146100f05780634782f7791461011957806363c04d5f14610142578063715018a61461015e57806374424acb14610175575b600080fd5b3480156100d357600080fd5b506100ee60048036038101906100e99190610e76565b6102e7565b005b3480156100fc57600080fd5b5061011760048036038101906101129190610f01565b61031f565b005b34801561012557600080fd5b50610140600480360381019061013b9190610f6c565b610344565b005b61015c60048036038101906101579190610fac565b6103fd565b005b34801561016a57600080fd5b50610173610444565b005b34801561018157600080fd5b5061019c6004803603810190610197919061103e565b610458565b005b3480156101aa57600080fd5b506101c560048036038101906101c0919061108b565b6104fa565b005b3480156101d357600080fd5b506101ee60048036038101906101e99190611106565b6105eb565b005b3480156101fc57600080fd5b5061021760048036038101906102129190610fac565b6106c6565b604051610224919061124d565b60405180910390f35b34801561023957600080fd5b50610254600480360381019061024f919061126f565b610785565b005b34801561026257600080fd5b5061026b610855565b60405161027891906112de565b60405180910390f35b34801561028d57600080fd5b506102a860048036038101906102a39190610fac565b61087e565b6040516102b5919061137f565b60405180910390f35b3480156102ca57600080fd5b506102e560048036038101906102e0919061139a565b6108ee565b005b6102ef610974565b61031a82828573ffffffffffffffffffffffffffffffffffffffff166109fb9092919063ffffffff16565b505050565b610327610974565b80600660006101000a81548160ff02191690831515021790555050565b61034c610974565b60008273ffffffffffffffffffffffffffffffffffffffff1682604051610372906113f8565b60006040518083038185875af1925050503d80600081146103af576040519150601f19603f3d011682016040523d82523d6000602084013e6103b4565b606091505b50509050806103f8576040517f08c379a00000000000000000000000000000000000000000000000000000000081526004016103ef9061146a565b60405180910390fd5b505050565b6005548110610441576040517f08c379a0000000000000000000000000000000000000000000000000000000008152600401610438906114d6565b60405180910390fd5b50565b61044c610974565b6104566000610a7a565b565b610460610974565b604051806020016040528083838080601f016020809104026020016040519081016040528093929190818152602001838380828437600081840152601f19601f8201169050808301925050505050505081525060026000600354815260200190815260200160002060008201518160000190816104dd9190611731565b5090505060016003546104f09190611832565b6003819055505050565b610502610974565b6003548510610546576040517f08c379a000000000000000000000000000000000000000000000000000000000815260040161053d906118b2565b60405180910390fd5b6040518060a001604052808681526020018515158152602001848152602001838152602001828152506004600060055481526020019081526020016000206000820151816000015560208201518160010160006101000a81548160ff02191690831515021790555060408201518160020155606082015181600301556080820151816004015590505060016005546105de9190611832565b6005819055505050505050565b6105f3610974565b6005548610610637576040517f08c379a000000000000000000000000000000000000000000000000000000000815260040161062e906114d6565b60405180910390fd5b6040518060a00160405280868152602001851515815260200184815260200183815260200182815250600460008881526020019081526020016000206000820151816000015560208201518160010160006101000a81548160ff021916908315150217905550604082015181600201556060820151816003015560808201518160040155905050505050505050565b6106ce610d94565b600260008381526020019081526020016000206040518060200160405290816000820180546106fc90611554565b80601f016020809104026020016040519081016040528092919081815260200182805461072890611554565b80156107755780601f1061074a57610100808354040283529160200191610775565b820191906000526020600020905b81548152906001019060200180831161075857829003601f168201915b5050505050815250509050919050565b61078d610974565b60035483106107d1576040517f08c379a00000000000000000000000000000000000000000000000000000000081526004016107c8906118b2565b60405180910390fd5b604051806020016040528083838080601f016020809104026020016040519081016040528093929190818152602001838380828437600081840152601f19601f8201169050808301925050505050505081525060026000858152602001908152602001600020600082015181600001908161084c9190611731565b50905050505050565b60008060009054906101000a900473ffffffffffffffffffffffffffffffffffffffff16905090565b610886610da7565b600460008381526020019081526020016000206040518060a0016040529081600082015481526020016001820160009054906101000a900460ff1615151515815260200160028201548152602001600382015481526020016004820154815250509050919050565b6108f6610974565b600073ffffffffffffffffffffffffffffffffffffffff168173ffffffffffffffffffffffffffffffffffffffff16036109685760006040517f1e4fbdf700000000000000000000000000000000000000000000000000000000815260040161095f91906112de565b60405180910390fd5b61097181610a7a565b50565b61097c610b3e565b73ffffffffffffffffffffffffffffffffffffffff1661099a610855565b73ffffffffffffffffffffffffffffffffffffffff16146109f9576109bd610b3e565b6040517f118cdaa70000000000000000000000000000000000000000000000000000000081526004016109f091906112de565b60405180910390fd5b565b610a75838473ffffffffffffffffffffffffffffffffffffffff1663a9059cbb8585604051602401610a2e9291906118e1565b604051602081830303815290604052915060e01b6020820180517bffffffffffffffffffffffffffffffffffffffffffffffffffffffff8381831617835250505050610b46565b505050565b60008060009054906101000a900473ffffffffffffffffffffffffffffffffffffffff169050816000806101000a81548173ffffffffffffffffffffffffffffffffffffffff021916908373ffffffffffffffffffffffffffffffffffffffff1602179055508173ffffffffffffffffffffffffffffffffffffffff168173ffffffffffffffffffffffffffffffffffffffff167f8be0079c531659141344cd1fd0a4f28419497f9722a3daafe3b4186f6b6457e060405160405180910390a35050565b600033905090565b6000610b71828473ffffffffffffffffffffffffffffffffffffffff16610bdd90919063ffffffff16565b90506000815114158015610b96575080806020019051810190610b94919061191f565b155b15610bd857826040517f5274afe7000000000000000000000000000000000000000000000000000000008152600401610bcf91906112de565b60405180910390fd5b505050565b6060610beb83836000610bf3565b905092915050565b606081471015610c3a57306040517fcd786059000000000000000000000000000000000000000000000000000000008152600401610c3191906112de565b60405180910390fd5b6000808573ffffffffffffffffffffffffffffffffffffffff168486604051610c63919061197d565b60006040518083038185875af1925050503d8060008114610ca0576040519150601f19603f3d011682016040523d82523d6000602084013e610ca5565b606091505b5091509150610cb5868383610cc0565b925050509392505050565b606082610cd557610cd082610d4f565b610d47565b60008251148015610cfd575060008473ffffffffffffffffffffffffffffffffffffffff163b145b15610d3f57836040517f9996b315000000000000000000000000000000000000000000000000000000008152600401610d3691906112de565b60405180910390fd5b819050610d48565b5b9392505050565b600081511115610d625780518082602001fd5b6040517f1425ea4200000000000000000000000000000000000000000000000000000000815260040160405180910390fd5b6040518060200160405280606081525090565b6040518060a00160405280600081526020016000151581526020016000815260200160008152602001600081525090565b600080fd5b600080fd5b600073ffffffffffffffffffffffffffffffffffffffff82169050919050565b6000610e0d82610de2565b9050919050565b610e1d81610e02565b8114610e2857600080fd5b50565b600081359050610e3a81610e14565b92915050565b6000819050919050565b610e5381610e40565b8114610e5e57600080fd5b50565b600081359050610e7081610e4a565b92915050565b600080600060608486031215610e8f57610e8e610dd8565b5b6000610e9d86828701610e2b565b9350506020610eae86828701610e2b565b9250506040610ebf86828701610e61565b9150509250925092565b60008115159050919050565b610ede81610ec9565b8114610ee957600080fd5b50565b600081359050610efb81610ed5565b92915050565b600060208284031215610f1757610f16610dd8565b5b6000610f2584828501610eec565b91505092915050565b6000610f3982610de2565b9050919050565b610f4981610f2e565b8114610f5457600080fd5b50565b600081359050610f6681610f40565b92915050565b60008060408385031215610f8357610f82610dd8565b5b6000610f9185828601610f57565b9250506020610fa285828601610e61565b9150509250929050565b600060208284031215610fc257610fc1610dd8565b5b6000610fd084828501610e61565b91505092915050565b600080fd5b600080fd5b600080fd5b60008083601f840112610ffe57610ffd610fd9565b5b8235905067ffffffffffffffff81111561101b5761101a610fde565b5b60208301915083600182028301111561103757611036610fe3565b5b9250929050565b6000806020838503121561105557611054610dd8565b5b600083013567ffffffffffffffff81111561107357611072610ddd565b5b61107f85828601610fe8565b92509250509250929050565b600080600080600060a086880312156110a7576110a6610dd8565b5b60006110b588828901610e61565b95505060206110c688828901610eec565b94505060406110d788828901610e61565b93505060606110e888828901610e61565b92505060806110f988828901610e61565b9150509295509295909350565b60008060008060008060c0878903121561112357611122610dd8565b5b600061113189828a01610e61565b965050602061114289828a01610e61565b955050604061115389828a01610eec565b945050606061116489828a01610e61565b935050608061117589828a01610e61565b92505060a061118689828a01610e61565b9150509295509295509295565b600081519050919050565b600082825260208201905092915050565b60005b838110156111cd5780820151818401526020810190506111b2565b60008484015250505050565b6000601f19601f8301169050919050565b60006111f582611193565b6111ff818561119e565b935061120f8185602086016111af565b611218816111d9565b840191505092915050565b6000602083016000830151848203600086015261124082826111ea565b9150508091505092915050565b600060208201905081810360008301526112678184611223565b905092915050565b60008060006040848603121561128857611287610dd8565b5b600061129686828701610e61565b935050602084013567ffffffffffffffff8111156112b7576112b6610ddd565b5b6112c386828701610fe8565b92509250509250925092565b6112d881610e02565b82525050565b60006020820190506112f360008301846112cf565b92915050565b61130281610e40565b82525050565b61131181610ec9565b82525050565b60a08201600082015161132d60008501826112f9565b5060208201516113406020850182611308565b50604082015161135360408501826112f9565b50606082015161136660608501826112f9565b50608082015161137960808501826112f9565b50505050565b600060a0820190506113946000830184611317565b92915050565b6000602082840312156113b0576113af610dd8565b5b60006113be84828501610e2b565b91505092915050565b600081905092915050565b50565b60006113e26000836113c7565b91506113ed826113d2565b600082019050919050565b6000611403826113d5565b9150819050919050565b600082825260208201905092915050565b7f4661696c656420746f2073656e64204574686572000000000000000000000000600082015250565b600061145460148361140d565b915061145f8261141e565b602082019050919050565b6000602082019050818103600083015261148381611447565b9050919050565b7f53657276696365204944206e6f7420666f756e642e0000000000000000000000600082015250565b60006114c060158361140d565b91506114cb8261148a565b602082019050919050565b600060208201905081810360008301526114ef816114b3565b9050919050565b7f4e487b7100000000000000000000000000000000000000000000000000000000600052604160045260246000fd5b7f4e487b7100000000000000000000000000000000000000000000000000000000600052602260045260246000fd5b6000600282049050600182168061156c57607f821691505b60208210810361157f5761157e611525565b5b50919050565b60008190508160005260206000209050919050565b60006020601f8301049050919050565b600082821b905092915050565b6000600883026115e77fffffffffffffffffffffffffffffffffffffffffffffffffffffffffffffffff826115aa565b6115f186836115aa565b95508019841693508086168417925050509392505050565b6000819050919050565b600061162e61162961162484610e40565b611609565b610e40565b9050919050565b6000819050919050565b61164883611613565b61165c61165482611635565b8484546115b7565b825550505050565b600090565b611671611664565b61167c81848461163f565b505050565b5b818110156116a057611695600082611669565b600181019050611682565b5050565b601f8211156116e5576116b681611585565b6116bf8461159a565b810160208510156116ce578190505b6116e26116da8561159a565b830182611681565b50505b505050565b600082821c905092915050565b6000611708600019846008026116ea565b1980831691505092915050565b600061172183836116f7565b9150826002028217905092915050565b61173a82611193565b67ffffffffffffffff811115611753576117526114f6565b5b61175d8254611554565b6117688282856116a4565b600060209050601f83116001811461179b5760008415611789578287015190505b6117938582611715565b8655506117fb565b601f1984166117a986611585565b60005b828110156117d1578489015182556001820191506020850194506020810190506117ac565b868310156117ee57848901516117ea601f8916826116f7565b8355505b6001600288020188555050505b505050505050565b7f4e487b7100000000000000000000000000000000000000000000000000000000600052601160045260246000fd5b600061183d82610e40565b915061184883610e40565b92508282019050808211156118605761185f611803565b5b92915050565b7f536572766963652070726f7669646572206e6f7420666f756e642e0000000000600082015250565b600061189c601b8361140d565b91506118a782611866565b602082019050919050565b600060208201905081810360008301526118cb8161188f565b9050919050565b6118db81610e40565b82525050565b60006040820190506118f660008301856112cf565b61190360208301846118d2565b9392505050565b60008151905061191981610ed5565b92915050565b60006020828403121561193557611934610dd8565b5b60006119438482850161190a565b91505092915050565b600061195782611193565b61196181856113c7565b93506119718185602086016111af565b80840191505092915050565b6000611989828461194c565b91508190509291505056fea264697066735822122036cdaf17d4f9148e21490678669ad0100f3e8ef7ec2c6dd12477a0e000ecc23a64736f6c63430008180033",
  "linkReferences": {},
  "deployedLinkReferences": {}
}