{
  "_format": "hh-sol-artifact-1",
  "contractName": "APICall",
  "sourceName": "contracts/APICall.sol",
  "abi": [
    {
      "inputs": [
        {
          "internalType": "address",
          "name": "_token",
          "type": "address"
        },
        {
          "internalType": "bool",
          "name": "_paused",
          "type": "bool"
        }
      ],
      "stateMutability": "nonpayable",
      "type": "constructor"
    },
    {
      "inputs": [
        {
          "internalType": "address",
          "name": "target",
          "type": "address"
        }
      ],
      "name": "AddressEmptyCode",
      "type": "error"
    },
    {
      "inputs": [
        {
          "internalType": "address",
          "name": "account",
          "type": "address"
        }
      ],
      "name": "AddressInsufficientBalance",
      "type": "error"
    },
    {
      "inputs": [],
      "name": "FailedInnerCall",
      "type": "error"
    },
    {
      "inputs": [
        {
          "internalType": "address",
          "name": "owner",
          "type": "address"
        }
      ],
      "name": "OwnableInvalidOwner",
      "type": "error"
    },
    {
      "inputs": [
        {
          "internalType": "address",
          "name": "account",
          "type": "address"
        }
      ],
      "name": "OwnableUnauthorizedAccount",
      "type": "error"
    },
    {
      "inputs": [
        {
          "internalType": "address",
          "name": "token",
          "type": "address"
        }
      ],
      "name": "SafeERC20FailedOperation",
      "type": "error"
    },
    {
      "anonymous": false,
      "inputs": [
        {
          "indexed": true,
          "internalType": "address",
          "name": "previousOwner",
          "type": "address"
        },
        {
          "indexed": true,
          "internalType": "address",
          "name": "newOwner",
          "type": "address"
        }
      ],
      "name": "OwnershipTransferred",
      "type": "event"
    },
    {
      "inputs": [
        {
          "internalType": "bool",
          "name": "isOnline",
          "type": "bool"
        },
        {
          "internalType": "uint256",
          "name": "maxTimeout",
          "type": "uint256"
        },
        {
          "internalType": "uint256",
          "name": "pricePerCall",
          "type": "uint256"
        }
      ],
      "name": "addService",
      "outputs": [],
      "stateMutability": "nonpayable",
      "type": "function"
    },
    {
      "inputs": [
        {
          "internalType": "uint256",
          "name": "serviceId",
          "type": "uint256"
        },
        {
          "internalType": "bool",
          "name": "isOnline",
          "type": "bool"
        },
        {
          "internalType": "uint256",
          "name": "maxTimeout",
          "type": "uint256"
        },
        {
          "internalType": "uint256",
          "name": "pricePerCall",
          "type": "uint256"
        }
      ],
      "name": "editService",
      "outputs": [],
      "stateMutability": "nonpayable",
      "type": "function"
    },
    {
      "inputs": [
        {
          "internalType": "uint256",
          "name": "serviceId",
          "type": "uint256"
        }
      ],
      "name": "getService",
      "outputs": [
        {
          "components": [
            {
              "internalType": "bool",
              "name": "isOnline",
              "type": "bool"
            },
            {
              "internalType": "uint256",
              "name": "maxTimeout",
              "type": "uint256"
            },
            {
              "internalType": "uint256",
              "name": "pricePerCall",
              "type": "uint256"
            }
          ],
          "internalType": "struct APICall.Service",
          "name": "",
          "type": "tuple"
        }
      ],
      "stateMutability": "view",
      "type": "function"
    },
    {
      "inputs": [
        {
          "internalType": "uint256",
          "name": "serviceId",
          "type": "uint256"
        }
      ],
      "name": "makeApiCall",
      "outputs": [],
      "stateMutability": "payable",
      "type": "function"
    },
    {
      "inputs": [],
      "name": "owner",
      "outputs": [
        {
          "internalType": "address",
          "name": "",
          "type": "address"
        }
      ],
      "stateMutability": "view",
      "type": "function"
    },
    {
      "inputs": [],
      "name": "renounceOwnership",
      "outputs": [],
      "stateMutability": "nonpayable",
      "type": "function"
    },
    {
      "inputs": [
        {
          "internalType": "bool",
          "name": "_paused",
          "type": "bool"
        }
      ],
      "name": "setPaused",
      "outputs": [],
      "stateMutability": "nonpayable",
      "type": "function"
    },
    {
      "inputs": [
        {
          "internalType": "address",
          "name": "newOwner",
          "type": "address"
        }
      ],
      "name": "transferOwnership",
      "outputs": [],
      "stateMutability": "nonpayable",
      "type": "function"
    },
    {
      "inputs": [
        {
          "internalType": "address payable",
          "name": "_to",
          "type": "address"
        },
        {
          "internalType": "uint256",
          "name": "amount",
          "type": "uint256"
        }
      ],
      "name": "withdrawETH",
      "outputs": [],
      "stateMutability": "nonpayable",
      "type": "function"
    },
    {
      "inputs": [
        {
          "internalType": "address",
          "name": "tokenAddress",
          "type": "address"
        },
        {
          "internalType": "address",
          "name": "to",
          "type": "address"
        },
        {
          "internalType": "uint256",
          "name": "amount",
          "type": "uint256"
        }
      ],
      "name": "withdrawToken",
      "outputs": [],
      "stateMutability": "nonpayable",
      "type": "function"
    }
  ],
  "bytecode": "0x60806040523480156200001157600080fd5b506040516200134738038062001347833981810160405281019062000037919062000295565b33600073ffffffffffffffffffffffffffffffffffffffff168173ffffffffffffffffffffffffffffffffffffffff1603620000ad5760006040517f1e4fbdf7000000000000000000000000000000000000000000000000000000008152600401620000a49190620002ed565b60405180910390fd5b620000be816200012a60201b60201c565b5080600460006101000a81548160ff021916908315150217905550600060038190555081600160006101000a81548173ffffffffffffffffffffffffffffffffffffffff021916908373ffffffffffffffffffffffffffffffffffffffff16021790555050506200030a565b60008060009054906101000a900473ffffffffffffffffffffffffffffffffffffffff169050816000806101000a81548173ffffffffffffffffffffffffffffffffffffffff021916908373ffffffffffffffffffffffffffffffffffffffff1602179055508173ffffffffffffffffffffffffffffffffffffffff168173ffffffffffffffffffffffffffffffffffffffff167f8be0079c531659141344cd1fd0a4f28419497f9722a3daafe3b4186f6b6457e060405160405180910390a35050565b600080fd5b600073ffffffffffffffffffffffffffffffffffffffff82169050919050565b60006200022082620001f3565b9050919050565b620002328162000213565b81146200023e57600080fd5b50565b600081519050620002528162000227565b92915050565b60008115159050919050565b6200026f8162000258565b81146200027b57600080fd5b50565b6000815190506200028f8162000264565b92915050565b60008060408385031215620002af57620002ae620001ee565b5b6000620002bf8582860162000241565b9250506020620002d2858286016200027e565b9150509250929050565b620002e78162000213565b82525050565b6000602082019050620003046000830184620002dc565b92915050565b61102d806200031a6000396000f3fe6080604052600436106100915760003560e01c80638da5cb5b116100595780638da5cb5b14610144578063ddfe8f0e1461016f578063e8adb87c14610198578063ef0e239b146101c1578063f2fde38b146101fe57610091565b806301e336671461009657806316c38b3c146100bf5780634782f779146100e857806363c04d5f14610111578063715018a61461012d575b600080fd5b3480156100a257600080fd5b506100bd60048036038101906100b89190610a7f565b610227565b005b3480156100cb57600080fd5b506100e660048036038101906100e19190610b0a565b61025f565b005b3480156100f457600080fd5b5061010f600480360381019061010a9190610b75565b610284565b005b61012b60048036038101906101269190610bb5565b61033d565b005b34801561013957600080fd5b50610142610340565b005b34801561015057600080fd5b50610159610354565b6040516101669190610bf1565b60405180910390f35b34801561017b57600080fd5b5061019660048036038101906101919190610c0c565b61037d565b005b3480156101a457600080fd5b506101bf60048036038101906101ba9190610c73565b610436565b005b3480156101cd57600080fd5b506101e860048036038101906101e39190610bb5565b6104c1565b6040516101f59190610d26565b60405180910390f35b34801561020a57600080fd5b5061022560048036038101906102209190610d41565b61051d565b005b61022f6105a3565b61025a82828573ffffffffffffffffffffffffffffffffffffffff1661062a9092919063ffffffff16565b505050565b6102676105a3565b80600460006101000a81548160ff02191690831515021790555050565b61028c6105a3565b60008273ffffffffffffffffffffffffffffffffffffffff16826040516102b290610d9f565b60006040518083038185875af1925050503d80600081146102ef576040519150601f19603f3d011682016040523d82523d6000602084013e6102f4565b606091505b5050905080610338576040517f08c379a000000000000000000000000000000000000000000000000000000000815260040161032f90610e11565b60405180910390fd5b505050565b50565b6103486105a3565b61035260006106a9565b565b60008060009054906101000a900473ffffffffffffffffffffffffffffffffffffffff16905090565b6103856105a3565b60035484106103c9576040517f08c379a00000000000000000000000000000000000000000000000000000000081526004016103c090610e7d565b60405180910390fd5b60405180606001604052808415158152602001838152602001828152506002600086815260200190815260200160002060008201518160000160006101000a81548160ff021916908315150217905550602082015181600101556040820151816002015590505050505050565b61043e6105a3565b604051806060016040528084151581526020018381526020018281525060026000600354815260200190815260200160002060008201518160000160006101000a81548160ff021916908315150217905550602082015181600101556040820151816002015590505060016003546104b69190610ecc565b600381905550505050565b6104c96109c3565b600260008381526020019081526020016000206040518060600160405290816000820160009054906101000a900460ff16151515158152602001600182015481526020016002820154815250509050919050565b6105256105a3565b600073ffffffffffffffffffffffffffffffffffffffff168173ffffffffffffffffffffffffffffffffffffffff16036105975760006040517f1e4fbdf700000000000000000000000000000000000000000000000000000000815260040161058e9190610bf1565b60405180910390fd5b6105a0816106a9565b50565b6105ab61076d565b73ffffffffffffffffffffffffffffffffffffffff166105c9610354565b73ffffffffffffffffffffffffffffffffffffffff1614610628576105ec61076d565b6040517f118cdaa700000000000000000000000000000000000000000000000000000000815260040161061f9190610bf1565b60405180910390fd5b565b6106a4838473ffffffffffffffffffffffffffffffffffffffff1663a9059cbb858560405160240161065d929190610f0f565b604051602081830303815290604052915060e01b6020820180517bffffffffffffffffffffffffffffffffffffffffffffffffffffffff8381831617835250505050610775565b505050565b60008060009054906101000a900473ffffffffffffffffffffffffffffffffffffffff169050816000806101000a81548173ffffffffffffffffffffffffffffffffffffffff021916908373ffffffffffffffffffffffffffffffffffffffff1602179055508173ffffffffffffffffffffffffffffffffffffffff168173ffffffffffffffffffffffffffffffffffffffff167f8be0079c531659141344cd1fd0a4f28419497f9722a3daafe3b4186f6b6457e060405160405180910390a35050565b600033905090565b60006107a0828473ffffffffffffffffffffffffffffffffffffffff1661080c90919063ffffffff16565b905060008151141580156107c55750808060200190518101906107c39190610f4d565b155b1561080757826040517f5274afe70000000000000000000000000000000000000000000000000000000081526004016107fe9190610bf1565b60405180910390fd5b505050565b606061081a83836000610822565b905092915050565b60608147101561086957306040517fcd7860590000000000000000000000000000000000000000000000000000000081526004016108609190610bf1565b60405180910390fd5b6000808573ffffffffffffffffffffffffffffffffffffffff1684866040516108929190610fe0565b60006040518083038185875af1925050503d80600081146108cf576040519150601f19603f3d011682016040523d82523d6000602084013e6108d4565b606091505b50915091506108e48683836108ef565b925050509392505050565b606082610904576108ff8261097e565b610976565b6000825114801561092c575060008473ffffffffffffffffffffffffffffffffffffffff163b145b1561096e57836040517f9996b3150000000000000000000000000000000000000000000000000000000081526004016109659190610bf1565b60405180910390fd5b819050610977565b5b9392505050565b6000815111156109915780518082602001fd5b6040517f1425ea4200000000000000000000000000000000000000000000000000000000815260040160405180910390fd5b604051806060016040528060001515815260200160008152602001600081525090565b600080fd5b600073ffffffffffffffffffffffffffffffffffffffff82169050919050565b6000610a16826109eb565b9050919050565b610a2681610a0b565b8114610a3157600080fd5b50565b600081359050610a4381610a1d565b92915050565b6000819050919050565b610a5c81610a49565b8114610a6757600080fd5b50565b600081359050610a7981610a53565b92915050565b600080600060608486031215610a9857610a976109e6565b5b6000610aa686828701610a34565b9350506020610ab786828701610a34565b9250506040610ac886828701610a6a565b9150509250925092565b60008115159050919050565b610ae781610ad2565b8114610af257600080fd5b50565b600081359050610b0481610ade565b92915050565b600060208284031215610b2057610b1f6109e6565b5b6000610b2e84828501610af5565b91505092915050565b6000610b42826109eb565b9050919050565b610b5281610b37565b8114610b5d57600080fd5b50565b600081359050610b6f81610b49565b92915050565b60008060408385031215610b8c57610b8b6109e6565b5b6000610b9a85828601610b60565b9250506020610bab85828601610a6a565b9150509250929050565b600060208284031215610bcb57610bca6109e6565b5b6000610bd984828501610a6a565b91505092915050565b610beb81610a0b565b82525050565b6000602082019050610c066000830184610be2565b92915050565b60008060008060808587031215610c2657610c256109e6565b5b6000610c3487828801610a6a565b9450506020610c4587828801610af5565b9350506040610c5687828801610a6a565b9250506060610c6787828801610a6a565b91505092959194509250565b600080600060608486031215610c8c57610c8b6109e6565b5b6000610c9a86828701610af5565b9350506020610cab86828701610a6a565b9250506040610cbc86828701610a6a565b9150509250925092565b610ccf81610ad2565b82525050565b610cde81610a49565b82525050565b606082016000820151610cfa6000850182610cc6565b506020820151610d0d6020850182610cd5565b506040820151610d206040850182610cd5565b50505050565b6000606082019050610d3b6000830184610ce4565b92915050565b600060208284031215610d5757610d566109e6565b5b6000610d6584828501610a34565b91505092915050565b600081905092915050565b50565b6000610d89600083610d6e565b9150610d9482610d79565b600082019050919050565b6000610daa82610d7c565b9150819050919050565b600082825260208201905092915050565b7f4661696c656420746f2073656e64204574686572000000000000000000000000600082015250565b6000610dfb601483610db4565b9150610e0682610dc5565b602082019050919050565b60006020820190508181036000830152610e2a81610dee565b9050919050565b7f53657276696365204944206e6f7420666f756e642e0000000000000000000000600082015250565b6000610e67601583610db4565b9150610e7282610e31565b602082019050919050565b60006020820190508181036000830152610e9681610e5a565b9050919050565b7f4e487b7100000000000000000000000000000000000000000000000000000000600052601160045260246000fd5b6000610ed782610a49565b9150610ee283610a49565b9250828201905080821115610efa57610ef9610e9d565b5b92915050565b610f0981610a49565b82525050565b6000604082019050610f246000830185610be2565b610f316020830184610f00565b9392505050565b600081519050610f4781610ade565b92915050565b600060208284031215610f6357610f626109e6565b5b6000610f7184828501610f38565b91505092915050565b600081519050919050565b60005b83811015610fa3578082015181840152602081019050610f88565b60008484015250505050565b6000610fba82610f7a565b610fc48185610d6e565b9350610fd4818560208601610f85565b80840191505092915050565b6000610fec8284610faf565b91508190509291505056fea264697066735822122036db4f4357eabe781332f89351568e197366d2320cf206ef8c6838d06f32f63064736f6c63430008180033",
  "linkReferences": {},
  "deployedLinkReferences": {}
}