{
  "_format": "hh-sol-artifact-1",
  "contractName": "UniswapV3RateDistribution",
  "sourceName": "contracts/UniswapV3Distribution.sol",
  "abi": [
    {
      "inputs": [
        {
          "internalType": "address",
          "name": "_token",
          "type": "address"
        },
        {
          "internalType": "address",
          "name": "_poolAddress",
          "type": "address"
        },
        {
          "internalType": "bool",
          "name": "_paused",
          "type": "bool"
        },
        {
          "internalType": "bool",
          "name": "_multiply",
          "type": "bool"
        },
        {
          "internalType": "uint256",
          "name": "_minimumAmount",
          "type": "uint256"
        }
      ],
      "stateMutability": "nonpayable",
      "type": "constructor"
    },
    {
      "inputs": [
        {
          "internalType": "address",
          "name": "target",
          "type": "address"
        }
      ],
      "name": "AddressEmptyCode",
      "type": "error"
    },
    {
      "inputs": [
        {
          "internalType": "address",
          "name": "account",
          "type": "address"
        }
      ],
      "name": "AddressInsufficientBalance",
      "type": "error"
    },
    {
      "inputs": [],
      "name": "FailedInnerCall",
      "type": "error"
    },
    {
      "inputs": [
        {
          "internalType": "address",
          "name": "owner",
          "type": "address"
        }
      ],
      "name": "OwnableInvalidOwner",
      "type": "error"
    },
    {
      "inputs": [
        {
          "internalType": "address",
          "name": "account",
          "type": "address"
        }
      ],
      "name": "OwnableUnauthorizedAccount",
      "type": "error"
    },
    {
      "inputs": [
        {
          "internalType": "address",
          "name": "token",
          "type": "address"
        }
      ],
      "name": "SafeERC20FailedOperation",
      "type": "error"
    },
    {
      "anonymous": false,
      "inputs": [
        {
          "indexed": true,
          "internalType": "address",
          "name": "previousOwner",
          "type": "address"
        },
        {
          "indexed": true,
          "internalType": "address",
          "name": "newOwner",
          "type": "address"
        }
      ],
      "name": "OwnershipTransferred",
      "type": "event"
    },
    {
      "inputs": [],
      "name": "owner",
      "outputs": [
        {
          "internalType": "address",
          "name": "",
          "type": "address"
        }
      ],
      "stateMutability": "view",
      "type": "function"
    },
    {
      "inputs": [],
      "name": "renounceOwnership",
      "outputs": [],
      "stateMutability": "nonpayable",
      "type": "function"
    },
    {
      "inputs": [
        {
          "internalType": "uint256",
          "name": "_minimumAmount",
          "type": "uint256"
        }
      ],
      "name": "setMinimumAmount",
      "outputs": [],
      "stateMutability": "nonpayable",
      "type": "function"
    },
    {
      "inputs": [
        {
          "internalType": "bool",
          "name": "_multiply",
          "type": "bool"
        }
      ],
      "name": "setMultiply",
      "outputs": [],
      "stateMutability": "nonpayable",
      "type": "function"
    },
    {
      "inputs": [
        {
          "internalType": "bool",
          "name": "_paused",
          "type": "bool"
        }
      ],
      "name": "setPaused",
      "outputs": [],
      "stateMutability": "nonpayable",
      "type": "function"
    },
    {
      "inputs": [
        {
          "internalType": "address",
          "name": "newOwner",
          "type": "address"
        }
      ],
      "name": "transferOwnership",
      "outputs": [],
      "stateMutability": "nonpayable",
      "type": "function"
    },
    {
      "inputs": [
        {
          "internalType": "address payable",
          "name": "_to",
          "type": "address"
        },
        {
          "internalType": "uint256",
          "name": "amount",
          "type": "uint256"
        }
      ],
      "name": "withdrawETH",
      "outputs": [],
      "stateMutability": "nonpayable",
      "type": "function"
    },
    {
      "inputs": [
        {
          "internalType": "address",
          "name": "tokenAddress",
          "type": "address"
        },
        {
          "internalType": "address",
          "name": "to",
          "type": "address"
        },
        {
          "internalType": "uint256",
          "name": "amount",
          "type": "uint256"
        }
      ],
      "name": "withdrawToken",
      "outputs": [],
      "stateMutability": "nonpayable",
      "type": "function"
    },
    {
      "stateMutability": "payable",
      "type": "receive"
    }
  ],
  "bytecode": "0x60806040523480156200001157600080fd5b5060405162001e4c38038062001e4c83398181016040528101906200003791906200032d565b33600073ffffffffffffffffffffffffffffffffffffffff168173ffffffffffffffffffffffffffffffffffffffff1603620000ad5760006040517f1e4fbdf7000000000000000000000000000000000000000000000000000000008152600401620000a49190620003c6565b60405180910390fd5b620000be816200018760201b60201c565b5082600260146101000a81548160ff02191690831515021790555081600260156101000a81548160ff0219169083151502179055508060038190555084600260006101000a81548173ffffffffffffffffffffffffffffffffffffffff021916908373ffffffffffffffffffffffffffffffffffffffff16021790555083600160006101000a81548173ffffffffffffffffffffffffffffffffffffffff021916908373ffffffffffffffffffffffffffffffffffffffff1602179055505050505050620003e3565b60008060009054906101000a900473ffffffffffffffffffffffffffffffffffffffff169050816000806101000a81548173ffffffffffffffffffffffffffffffffffffffff021916908373ffffffffffffffffffffffffffffffffffffffff1602179055508173ffffffffffffffffffffffffffffffffffffffff168173ffffffffffffffffffffffffffffffffffffffff167f8be0079c531659141344cd1fd0a4f28419497f9722a3daafe3b4186f6b6457e060405160405180910390a35050565b600080fd5b600073ffffffffffffffffffffffffffffffffffffffff82169050919050565b60006200027d8262000250565b9050919050565b6200028f8162000270565b81146200029b57600080fd5b50565b600081519050620002af8162000284565b92915050565b60008115159050919050565b620002cc81620002b5565b8114620002d857600080fd5b50565b600081519050620002ec81620002c1565b92915050565b6000819050919050565b6200030781620002f2565b81146200031357600080fd5b50565b6000815190506200032781620002fc565b92915050565b600080600080600060a086880312156200034c576200034b6200024b565b5b60006200035c888289016200029e565b95505060206200036f888289016200029e565b94505060406200038288828901620002db565b93505060606200039588828901620002db565b9250506080620003a88882890162000316565b9150509295509295909350565b620003c08162000270565b82525050565b6000602082019050620003dd6000830184620003b5565b92915050565b611a5980620003f36000396000f3fe60806040526004361061007f5760003560e01c80638da5cb5b1161004e5780638da5cb5b14610352578063eeb4a9c81461037d578063f170d20d146103a6578063f2fde38b146103cf576102bb565b806301e33667146102c057806316c38b3c146102e95780634782f77914610312578063715018a61461033b576102bb565b366102bb576003543410156100c9576040517f08c379a00000000000000000000000000000000000000000000000000000000081526004016100c090610d5b565b60405180910390fd5b600260149054906101000a900460ff1615610119576040517f08c379a000000000000000000000000000000000000000000000000000000000815260040161011090610dc7565b60405180910390fd5b6000610148600160009054906101000a900473ffffffffffffffffffffffffffffffffffffffff16603c6103f8565b50905060008162ffffff1690506000600260159054906101000a900460ff161561017f5781346101789190610e20565b905061018e565b813461018b9190610e91565b90505b600260009054906101000a900473ffffffffffffffffffffffffffffffffffffffff1673ffffffffffffffffffffffffffffffffffffffff166370a08231306040518263ffffffff1660e01b81526004016101e99190610f03565b602060405180830381865afa158015610206573d6000803e3d6000fd5b505050506040513d601f19601f8201168201806040525081019061022a9190610f5e565b81111561026c576040517f08c379a000000000000000000000000000000000000000000000000000000000815260040161026390610fd7565b60405180910390fd5b6102b93382600260009054906101000a900473ffffffffffffffffffffffffffffffffffffffff1673ffffffffffffffffffffffffffffffffffffffff166106ce9092919063ffffffff16565b005b600080fd5b3480156102cc57600080fd5b506102e760048036038101906102e29190611038565b61074d565b005b3480156102f557600080fd5b50610310600480360381019061030b91906110c3565b610785565b005b34801561031e57600080fd5b506103396004803603810190610334919061112e565b6107aa565b005b34801561034757600080fd5b50610350610863565b005b34801561035e57600080fd5b50610367610877565b6040516103749190610f03565b60405180910390f35b34801561038957600080fd5b506103a4600480360381019061039f919061116e565b6108a0565b005b3480156103b257600080fd5b506103cd60048036038101906103c891906110c3565b6108b2565b005b3480156103db57600080fd5b506103f660048036038101906103f1919061119b565b6108d7565b005b60008060008363ffffffff1603610444576040517f08c379a000000000000000000000000000000000000000000000000000000000815260040161043b90611214565b60405180910390fd5b6000600267ffffffffffffffff81111561046157610460611234565b5b60405190808252806020026020018201604052801561048f5781602001602082028036833780820191505090505b50905083816000815181106104a7576104a6611263565b5b602002602001019063ffffffff16908163ffffffff16815250506000816001815181106104d7576104d6611263565b5b602002602001019063ffffffff16908163ffffffff16815250506000808673ffffffffffffffffffffffffffffffffffffffff1663883bdbfd846040518263ffffffff1660e01b815260040161052d9190611360565b600060405180830381865afa15801561054a573d6000803e3d6000fd5b505050506040513d6000823e3d601f19601f8201168201806040525081019061057391906115d4565b9150915060008260008151811061058d5761058c611263565b5b6020026020010151836001815181106105a9576105a8611263565b5b60200260200101516105bb919061164c565b90506000826000815181106105d3576105d2611263565b5b6020026020010151836001815181106105ef576105ee611263565b5b602002602001015161060191906116ab565b90508763ffffffff168261061591906116f3565b965060008260060b12801561063f575060008863ffffffff1683610639919061175d565b60060b14155b1561065357868061064f9061179b565b9750505b600073ffffffffffffffffffffffffffffffffffffffff80168963ffffffff1661067d9190611807565b905060208273ffffffffffffffffffffffffffffffffffffffff1677ffffffffffffffffffffffffffffffffffffffffffffffff16901b816106bf9190611849565b96505050505050509250929050565b610748838473ffffffffffffffffffffffffffffffffffffffff1663a9059cbb8585604051602401610701929190611889565b604051602081830303815290604052915060e01b6020820180517bffffffffffffffffffffffffffffffffffffffffffffffffffffffff838183161783525050505061095d565b505050565b6107556109f4565b61078082828573ffffffffffffffffffffffffffffffffffffffff166106ce9092919063ffffffff16565b505050565b61078d6109f4565b80600260146101000a81548160ff02191690831515021790555050565b6107b26109f4565b60008273ffffffffffffffffffffffffffffffffffffffff16826040516107d8906118e3565b60006040518083038185875af1925050503d8060008114610815576040519150601f19603f3d011682016040523d82523d6000602084013e61081a565b606091505b505090508061085e576040517f08c379a000000000000000000000000000000000000000000000000000000000815260040161085590611944565b60405180910390fd5b505050565b61086b6109f4565b6108756000610a7b565b565b60008060009054906101000a900473ffffffffffffffffffffffffffffffffffffffff16905090565b6108a86109f4565b8060038190555050565b6108ba6109f4565b80600260156101000a81548160ff02191690831515021790555050565b6108df6109f4565b600073ffffffffffffffffffffffffffffffffffffffff168173ffffffffffffffffffffffffffffffffffffffff16036109515760006040517f1e4fbdf70000000000000000000000000000000000000000000000000000000081526004016109489190610f03565b60405180910390fd5b61095a81610a7b565b50565b6000610988828473ffffffffffffffffffffffffffffffffffffffff16610b3f90919063ffffffff16565b905060008151141580156109ad5750808060200190518101906109ab9190611979565b155b156109ef57826040517f5274afe70000000000000000000000000000000000000000000000000000000081526004016109e69190610f03565b60405180910390fd5b505050565b6109fc610b55565b73ffffffffffffffffffffffffffffffffffffffff16610a1a610877565b73ffffffffffffffffffffffffffffffffffffffff1614610a7957610a3d610b55565b6040517f118cdaa7000000000000000000000000000000000000000000000000000000008152600401610a709190610f03565b60405180910390fd5b565b60008060009054906101000a900473ffffffffffffffffffffffffffffffffffffffff169050816000806101000a81548173ffffffffffffffffffffffffffffffffffffffff021916908373ffffffffffffffffffffffffffffffffffffffff1602179055508173ffffffffffffffffffffffffffffffffffffffff168173ffffffffffffffffffffffffffffffffffffffff167f8be0079c531659141344cd1fd0a4f28419497f9722a3daafe3b4186f6b6457e060405160405180910390a35050565b6060610b4d83836000610b5d565b905092915050565b600033905090565b606081471015610ba457306040517fcd786059000000000000000000000000000000000000000000000000000000008152600401610b9b9190610f03565b60405180910390fd5b6000808573ffffffffffffffffffffffffffffffffffffffff168486604051610bcd9190611a0c565b60006040518083038185875af1925050503d8060008114610c0a576040519150601f19603f3d011682016040523d82523d6000602084013e610c0f565b606091505b5091509150610c1f868383610c2a565b925050509392505050565b606082610c3f57610c3a82610cb9565b610cb1565b60008251148015610c67575060008473ffffffffffffffffffffffffffffffffffffffff163b145b15610ca957836040517f9996b315000000000000000000000000000000000000000000000000000000008152600401610ca09190610f03565b60405180910390fd5b819050610cb2565b5b9392505050565b600081511115610ccc5780518082602001fd5b6040517f1425ea4200000000000000000000000000000000000000000000000000000000815260040160405180910390fd5b600082825260208201905092915050565b7f496e73756666696369656e74204554482070726f76696465642e000000000000600082015250565b6000610d45601a83610cfe565b9150610d5082610d0f565b602082019050919050565b60006020820190508181036000830152610d7481610d38565b9050919050565b7f446973747269627574696f6e206973207061757365642e000000000000000000600082015250565b6000610db1601783610cfe565b9150610dbc82610d7b565b602082019050919050565b60006020820190508181036000830152610de081610da4565b9050919050565b6000819050919050565b7f4e487b7100000000000000000000000000000000000000000000000000000000600052601160045260246000fd5b6000610e2b82610de7565b9150610e3683610de7565b9250828202610e4481610de7565b91508282048414831517610e5b57610e5a610df1565b5b5092915050565b7f4e487b7100000000000000000000000000000000000000000000000000000000600052601260045260246000fd5b6000610e9c82610de7565b9150610ea783610de7565b925082610eb757610eb6610e62565b5b828204905092915050565b600073ffffffffffffffffffffffffffffffffffffffff82169050919050565b6000610eed82610ec2565b9050919050565b610efd81610ee2565b82525050565b6000602082019050610f186000830184610ef4565b92915050565b6000604051905090565b600080fd5b600080fd5b610f3b81610de7565b8114610f4657600080fd5b50565b600081519050610f5881610f32565b92915050565b600060208284031215610f7457610f73610f28565b5b6000610f8284828501610f49565b91505092915050565b7f4e6f7420656e6f75676820746f6b656e7320617661696c61626c652e00000000600082015250565b6000610fc1601c83610cfe565b9150610fcc82610f8b565b602082019050919050565b60006020820190508181036000830152610ff081610fb4565b9050919050565b61100081610ee2565b811461100b57600080fd5b50565b60008135905061101d81610ff7565b92915050565b60008135905061103281610f32565b92915050565b60008060006060848603121561105157611050610f28565b5b600061105f8682870161100e565b93505060206110708682870161100e565b925050604061108186828701611023565b9150509250925092565b60008115159050919050565b6110a08161108b565b81146110ab57600080fd5b50565b6000813590506110bd81611097565b92915050565b6000602082840312156110d9576110d8610f28565b5b60006110e7848285016110ae565b91505092915050565b60006110fb82610ec2565b9050919050565b61110b816110f0565b811461111657600080fd5b50565b60008135905061112881611102565b92915050565b6000806040838503121561114557611144610f28565b5b600061115385828601611119565b925050602061116485828601611023565b9150509250929050565b60006020828403121561118457611183610f28565b5b600061119284828501611023565b91505092915050565b6000602082840312156111b1576111b0610f28565b5b60006111bf8482850161100e565b91505092915050565b7f4250000000000000000000000000000000000000000000000000000000000000600082015250565b60006111fe600283610cfe565b9150611209826111c8565b602082019050919050565b6000602082019050818103600083015261122d816111f1565b9050919050565b7f4e487b7100000000000000000000000000000000000000000000000000000000600052604160045260246000fd5b7f4e487b7100000000000000000000000000000000000000000000000000000000600052603260045260246000fd5b600081519050919050565b600082825260208201905092915050565b6000819050602082019050919050565b600063ffffffff82169050919050565b6112d7816112be565b82525050565b60006112e983836112ce565b60208301905092915050565b6000602082019050919050565b600061130d82611292565b611317818561129d565b9350611322836112ae565b8060005b8381101561135357815161133a88826112dd565b9750611345836112f5565b925050600181019050611326565b5085935050505092915050565b6000602082019050818103600083015261137a8184611302565b905092915050565b600080fd5b6000601f19601f8301169050919050565b6113a182611387565b810181811067ffffffffffffffff821117156113c0576113bf611234565b5b80604052505050565b60006113d3610f1e565b90506113df8282611398565b919050565b600067ffffffffffffffff8211156113ff576113fe611234565b5b602082029050602081019050919050565b600080fd5b60008160060b9050919050565b61142b81611415565b811461143657600080fd5b50565b60008151905061144881611422565b92915050565b600061146161145c846113e4565b6113c9565b9050808382526020820190506020840283018581111561148457611483611410565b5b835b818110156114ad57806114998882611439565b845260208401935050602081019050611486565b5050509392505050565b600082601f8301126114cc576114cb611382565b5b81516114dc84826020860161144e565b91505092915050565b600067ffffffffffffffff821115611500576114ff611234565b5b602082029050602081019050919050565b61151a81610ec2565b811461152557600080fd5b50565b60008151905061153781611511565b92915050565b600061155061154b846114e5565b6113c9565b9050808382526020820190506020840283018581111561157357611572611410565b5b835b8181101561159c57806115888882611528565b845260208401935050602081019050611575565b5050509392505050565b600082601f8301126115bb576115ba611382565b5b81516115cb84826020860161153d565b91505092915050565b600080604083850312156115eb576115ea610f28565b5b600083015167ffffffffffffffff81111561160957611608610f2d565b5b611615858286016114b7565b925050602083015167ffffffffffffffff81111561163657611635610f2d565b5b611642858286016115a6565b9150509250929050565b600061165782611415565b915061166283611415565b92508282039050667fffffffffffff81137fffffffffffffffffffffffffffffffffffffffffffffffffff80000000000000821217156116a5576116a4610df1565b5b92915050565b60006116b682610ec2565b91506116c183610ec2565b9250828203905073ffffffffffffffffffffffffffffffffffffffff8111156116ed576116ec610df1565b5b92915050565b60006116fe82611415565b915061170983611415565b92508261171957611718610e62565b5b600160000383147fffffffffffffffffffffffffffffffffffffffffffffffffff800000000000008314161561175257611751610df1565b5b828205905092915050565b600061176882611415565b915061177383611415565b92508261178357611782610e62565b5b828207905092915050565b60008160020b9050919050565b60006117a68261178e565b91507fffffffffffffffffffffffffffffffffffffffffffffffffffffffffff80000082036117d8576117d7610df1565b5b600182039050919050565b600077ffffffffffffffffffffffffffffffffffffffffffffffff82169050919050565b6000611812826117e3565b915061181d836117e3565b925082820261182b816117e3565b9150828204841483151761184257611841610df1565b5b5092915050565b6000611854826117e3565b915061185f836117e3565b92508261186f5761186e610e62565b5b828204905092915050565b61188381610de7565b82525050565b600060408201905061189e6000830185610ef4565b6118ab602083018461187a565b9392505050565b600081905092915050565b50565b60006118cd6000836118b2565b91506118d8826118bd565b600082019050919050565b60006118ee826118c0565b9150819050919050565b7f4661696c656420746f2073656e64204574686572000000000000000000000000600082015250565b600061192e601483610cfe565b9150611939826118f8565b602082019050919050565b6000602082019050818103600083015261195d81611921565b9050919050565b60008151905061197381611097565b92915050565b60006020828403121561198f5761198e610f28565b5b600061199d84828501611964565b91505092915050565b600081519050919050565b60005b838110156119cf5780820151818401526020810190506119b4565b60008484015250505050565b60006119e6826119a6565b6119f081856118b2565b9350611a008185602086016119b1565b80840191505092915050565b6000611a1882846119db565b91508190509291505056fea2646970667358221220e6eeee32b7f92491cbd8d40fe97e75e2366c11b29dd842fa46aef9febafb704264736f6c63430008180033",
  "linkReferences": {},
  "deployedLinkReferences": {}
}