{
  "_format": "hh-sol-artifact-1",
  "contractName": "ChainlinkRateDistribution",
  "sourceName": "contracts/ChainlinkRateDistributionToken.sol",
  "abi": [
    {
      "inputs": [
        {
          "internalType": "address",
          "name": "_token",
          "type": "address"
        },
        {
          "internalType": "address",
          "name": "_tokenAccepted",
          "type": "address"
        },
        {
          "internalType": "bool",
          "name": "_paused",
          "type": "bool"
        },
        {
          "internalType": "bool",
          "name": "_multiply",
          "type": "bool"
        },
        {
          "internalType": "uint256",
          "name": "_minimumAmount",
          "type": "uint256"
        }
      ],
      "stateMutability": "nonpayable",
      "type": "constructor"
    },
    {
      "inputs": [
        {
          "internalType": "address",
          "name": "target",
          "type": "address"
        }
      ],
      "name": "AddressEmptyCode",
      "type": "error"
    },
    {
      "inputs": [
        {
          "internalType": "address",
          "name": "account",
          "type": "address"
        }
      ],
      "name": "AddressInsufficientBalance",
      "type": "error"
    },
    {
      "inputs": [],
      "name": "FailedInnerCall",
      "type": "error"
    },
    {
      "inputs": [
        {
          "internalType": "address",
          "name": "owner",
          "type": "address"
        }
      ],
      "name": "OwnableInvalidOwner",
      "type": "error"
    },
    {
      "inputs": [
        {
          "internalType": "address",
          "name": "account",
          "type": "address"
        }
      ],
      "name": "OwnableUnauthorizedAccount",
      "type": "error"
    },
    {
      "inputs": [
        {
          "internalType": "address",
          "name": "token",
          "type": "address"
        }
      ],
      "name": "SafeERC20FailedOperation",
      "type": "error"
    },
    {
      "anonymous": false,
      "inputs": [
        {
          "indexed": true,
          "internalType": "address",
          "name": "previousOwner",
          "type": "address"
        },
        {
          "indexed": true,
          "internalType": "address",
          "name": "newOwner",
          "type": "address"
        }
      ],
      "name": "OwnershipTransferred",
      "type": "event"
    },
    {
      "inputs": [],
      "name": "getChainlinkDataFeedLatestAnswer",
      "outputs": [
        {
          "internalType": "int256",
          "name": "",
          "type": "int256"
        }
      ],
      "stateMutability": "view",
      "type": "function"
    },
    {
      "inputs": [],
      "name": "owner",
      "outputs": [
        {
          "internalType": "address",
          "name": "",
          "type": "address"
        }
      ],
      "stateMutability": "view",
      "type": "function"
    },
    {
      "inputs": [],
      "name": "renounceOwnership",
      "outputs": [],
      "stateMutability": "nonpayable",
      "type": "function"
    },
    {
      "inputs": [
        {
          "internalType": "address",
          "name": "_to",
          "type": "address"
        },
        {
          "internalType": "uint256",
          "name": "_amount",
          "type": "uint256"
        }
      ],
      "name": "sendTokens",
      "outputs": [],
      "stateMutability": "nonpayable",
      "type": "function"
    },
    {
      "inputs": [
        {
          "internalType": "uint256",
          "name": "_minimumAmount",
          "type": "uint256"
        }
      ],
      "name": "setMinimumAmount",
      "outputs": [],
      "stateMutability": "nonpayable",
      "type": "function"
    },
    {
      "inputs": [
        {
          "internalType": "bool",
          "name": "_multiply",
          "type": "bool"
        }
      ],
      "name": "setMultiply",
      "outputs": [],
      "stateMutability": "nonpayable",
      "type": "function"
    },
    {
      "inputs": [
        {
          "internalType": "bool",
          "name": "_paused",
          "type": "bool"
        }
      ],
      "name": "setPaused",
      "outputs": [],
      "stateMutability": "nonpayable",
      "type": "function"
    },
    {
      "inputs": [
        {
          "internalType": "address",
          "name": "newOwner",
          "type": "address"
        }
      ],
      "name": "transferOwnership",
      "outputs": [],
      "stateMutability": "nonpayable",
      "type": "function"
    },
    {
      "inputs": [
        {
          "internalType": "address payable",
          "name": "_to",
          "type": "address"
        },
        {
          "internalType": "uint256",
          "name": "amount",
          "type": "uint256"
        }
      ],
      "name": "withdrawETH",
      "outputs": [],
      "stateMutability": "nonpayable",
      "type": "function"
    },
    {
      "inputs": [
        {
          "internalType": "address",
          "name": "tokenAddress",
          "type": "address"
        },
        {
          "internalType": "address",
          "name": "to",
          "type": "address"
        },
        {
          "internalType": "uint256",
          "name": "amount",
          "type": "uint256"
        }
      ],
      "name": "withdrawToken",
      "outputs": [],
      "stateMutability": "nonpayable",
      "type": "function"
    }
  ],
  "bytecode": "0x60806040523480156200001157600080fd5b50604051620017ca380380620017ca833981810160405281019062000037919062000382565b33600073ffffffffffffffffffffffffffffffffffffffff168173ffffffffffffffffffffffffffffffffffffffff1603620000ad5760006040517f1e4fbdf7000000000000000000000000000000000000000000000000000000008152600401620000a491906200041b565b60405180910390fd5b620000be81620001dc60201b60201c565b5082600360146101000a81548160ff02191690831515021790555081600360156101000a81548160ff0219169083151502179055508060048190555084600260006101000a81548173ffffffffffffffffffffffffffffffffffffffff021916908373ffffffffffffffffffffffffffffffffffffffff16021790555083600360006101000a81548173ffffffffffffffffffffffffffffffffffffffff021916908373ffffffffffffffffffffffffffffffffffffffff16021790555073694aa1769357215de4fac081bf1f309adc325306600160006101000a81548173ffffffffffffffffffffffffffffffffffffffff021916908373ffffffffffffffffffffffffffffffffffffffff160217905550505050505062000438565b60008060009054906101000a900473ffffffffffffffffffffffffffffffffffffffff169050816000806101000a81548173ffffffffffffffffffffffffffffffffffffffff021916908373ffffffffffffffffffffffffffffffffffffffff1602179055508173ffffffffffffffffffffffffffffffffffffffff168173ffffffffffffffffffffffffffffffffffffffff167f8be0079c531659141344cd1fd0a4f28419497f9722a3daafe3b4186f6b6457e060405160405180910390a35050565b600080fd5b600073ffffffffffffffffffffffffffffffffffffffff82169050919050565b6000620002d282620002a5565b9050919050565b620002e481620002c5565b8114620002f057600080fd5b50565b6000815190506200030481620002d9565b92915050565b60008115159050919050565b62000321816200030a565b81146200032d57600080fd5b50565b600081519050620003418162000316565b92915050565b6000819050919050565b6200035c8162000347565b81146200036857600080fd5b50565b6000815190506200037c8162000351565b92915050565b600080600080600060a08688031215620003a157620003a0620002a0565b5b6000620003b188828901620002f3565b9550506020620003c488828901620002f3565b9450506040620003d78882890162000330565b9350506060620003ea8882890162000330565b9250506080620003fd888289016200036b565b9150509295509295909350565b6200041581620002c5565b82525050565b60006020820190506200043260008301846200040a565b92915050565b61138280620004486000396000f3fe608060405234801561001057600080fd5b506004361061009e5760003560e01c80638da5cb5b116100665780638da5cb5b1461011d578063bea4dfb51461013b578063eeb4a9c814610159578063f170d20d14610175578063f2fde38b146101915761009e565b806301e33667146100a357806305ab421d146100bf57806316c38b3c146100db5780634782f779146100f7578063715018a614610113575b600080fd5b6100bd60048036038101906100b89190610bed565b6101ad565b005b6100d960048036038101906100d49190610c40565b6101e5565b005b6100f560048036038101906100f09190610cb8565b610439565b005b610111600480360381019061010c9190610d23565b61045e565b005b61011b610517565b005b61012561052b565b6040516101329190610d72565b60405180910390f35b610143610554565b6040516101509190610da6565b60405180910390f35b610173600480360381019061016e9190610dc1565b6105f5565b005b61018f600480360381019061018a9190610cb8565b610607565b005b6101ab60048036038101906101a69190610dee565b61062c565b005b6101b56106b2565b6101e082828573ffffffffffffffffffffffffffffffffffffffff166107399092919063ffffffff16565b505050565b60045481101561022a576040517f08c379a000000000000000000000000000000000000000000000000000000000815260040161022190610e78565b60405180910390fd5b600360149054906101000a900460ff161561027a576040517f08c379a000000000000000000000000000000000000000000000000000000000815260040161027190610ee4565b60405180910390fd5b6102c9333083600360009054906101000a900473ffffffffffffffffffffffffffffffffffffffff1673ffffffffffffffffffffffffffffffffffffffff166107b8909392919063ffffffff16565b6000600190506000600360159054906101000a900460ff16156102f95781836102f29190610f33565b9050610308565b81836103059190610fa4565b90505b600260009054906101000a900473ffffffffffffffffffffffffffffffffffffffff1673ffffffffffffffffffffffffffffffffffffffff166370a08231306040518263ffffffff1660e01b81526004016103639190610d72565b602060405180830381865afa158015610380573d6000803e3d6000fd5b505050506040513d601f19601f820116820180604052508101906103a49190610fea565b8111156103e6576040517f08c379a00000000000000000000000000000000000000000000000000000000081526004016103dd90611063565b60405180910390fd5b6104338482600260009054906101000a900473ffffffffffffffffffffffffffffffffffffffff1673ffffffffffffffffffffffffffffffffffffffff166107399092919063ffffffff16565b50505050565b6104416106b2565b80600360146101000a81548160ff02191690831515021790555050565b6104666106b2565b60008273ffffffffffffffffffffffffffffffffffffffff168260405161048c906110b4565b60006040518083038185875af1925050503d80600081146104c9576040519150601f19603f3d011682016040523d82523d6000602084013e6104ce565b606091505b5050905080610512576040517f08c379a000000000000000000000000000000000000000000000000000000000815260040161050990611115565b60405180910390fd5b505050565b61051f6106b2565b610529600061083a565b565b60008060009054906101000a900473ffffffffffffffffffffffffffffffffffffffff16905090565b600080600160009054906101000a900473ffffffffffffffffffffffffffffffffffffffff1673ffffffffffffffffffffffffffffffffffffffff1663feaf968c6040518163ffffffff1660e01b815260040160a060405180830381865afa1580156105c4573d6000803e3d6000fd5b505050506040513d601f19601f820116820180604052508101906105e891906111a3565b5050509150508091505090565b6105fd6106b2565b8060048190555050565b61060f6106b2565b80600360156101000a81548160ff02191690831515021790555050565b6106346106b2565b600073ffffffffffffffffffffffffffffffffffffffff168173ffffffffffffffffffffffffffffffffffffffff16036106a65760006040517f1e4fbdf700000000000000000000000000000000000000000000000000000000815260040161069d9190610d72565b60405180910390fd5b6106af8161083a565b50565b6106ba6108fe565b73ffffffffffffffffffffffffffffffffffffffff166106d861052b565b73ffffffffffffffffffffffffffffffffffffffff1614610737576106fb6108fe565b6040517f118cdaa700000000000000000000000000000000000000000000000000000000815260040161072e9190610d72565b60405180910390fd5b565b6107b3838473ffffffffffffffffffffffffffffffffffffffff1663a9059cbb858560405160240161076c92919061122d565b604051602081830303815290604052915060e01b6020820180517bffffffffffffffffffffffffffffffffffffffffffffffffffffffff8381831617835250505050610906565b505050565b610834848573ffffffffffffffffffffffffffffffffffffffff166323b872dd8686866040516024016107ed93929190611256565b604051602081830303815290604052915060e01b6020820180517bffffffffffffffffffffffffffffffffffffffffffffffffffffffff8381831617835250505050610906565b50505050565b60008060009054906101000a900473ffffffffffffffffffffffffffffffffffffffff169050816000806101000a81548173ffffffffffffffffffffffffffffffffffffffff021916908373ffffffffffffffffffffffffffffffffffffffff1602179055508173ffffffffffffffffffffffffffffffffffffffff168173ffffffffffffffffffffffffffffffffffffffff167f8be0079c531659141344cd1fd0a4f28419497f9722a3daafe3b4186f6b6457e060405160405180910390a35050565b600033905090565b6000610931828473ffffffffffffffffffffffffffffffffffffffff1661099d90919063ffffffff16565b9050600081511415801561095657508080602001905181019061095491906112a2565b155b1561099857826040517f5274afe700000000000000000000000000000000000000000000000000000000815260040161098f9190610d72565b60405180910390fd5b505050565b60606109ab838360006109b3565b905092915050565b6060814710156109fa57306040517fcd7860590000000000000000000000000000000000000000000000000000000081526004016109f19190610d72565b60405180910390fd5b6000808573ffffffffffffffffffffffffffffffffffffffff168486604051610a239190611335565b60006040518083038185875af1925050503d8060008114610a60576040519150601f19603f3d011682016040523d82523d6000602084013e610a65565b606091505b5091509150610a75868383610a80565b925050509392505050565b606082610a9557610a9082610b0f565b610b07565b60008251148015610abd575060008473ffffffffffffffffffffffffffffffffffffffff163b145b15610aff57836040517f9996b315000000000000000000000000000000000000000000000000000000008152600401610af69190610d72565b60405180910390fd5b819050610b08565b5b9392505050565b600081511115610b225780518082602001fd5b6040517f1425ea4200000000000000000000000000000000000000000000000000000000815260040160405180910390fd5b600080fd5b600073ffffffffffffffffffffffffffffffffffffffff82169050919050565b6000610b8482610b59565b9050919050565b610b9481610b79565b8114610b9f57600080fd5b50565b600081359050610bb181610b8b565b92915050565b6000819050919050565b610bca81610bb7565b8114610bd557600080fd5b50565b600081359050610be781610bc1565b92915050565b600080600060608486031215610c0657610c05610b54565b5b6000610c1486828701610ba2565b9350506020610c2586828701610ba2565b9250506040610c3686828701610bd8565b9150509250925092565b60008060408385031215610c5757610c56610b54565b5b6000610c6585828601610ba2565b9250506020610c7685828601610bd8565b9150509250929050565b60008115159050919050565b610c9581610c80565b8114610ca057600080fd5b50565b600081359050610cb281610c8c565b92915050565b600060208284031215610cce57610ccd610b54565b5b6000610cdc84828501610ca3565b91505092915050565b6000610cf082610b59565b9050919050565b610d0081610ce5565b8114610d0b57600080fd5b50565b600081359050610d1d81610cf7565b92915050565b60008060408385031215610d3a57610d39610b54565b5b6000610d4885828601610d0e565b9250506020610d5985828601610bd8565b9150509250929050565b610d6c81610b79565b82525050565b6000602082019050610d876000830184610d63565b92915050565b6000819050919050565b610da081610d8d565b82525050565b6000602082019050610dbb6000830184610d97565b92915050565b600060208284031215610dd757610dd6610b54565b5b6000610de584828501610bd8565b91505092915050565b600060208284031215610e0457610e03610b54565b5b6000610e1284828501610ba2565b91505092915050565b600082825260208201905092915050565b7f496e73756666696369656e7420746f6b656e732070726f76696465642e000000600082015250565b6000610e62601d83610e1b565b9150610e6d82610e2c565b602082019050919050565b60006020820190508181036000830152610e9181610e55565b9050919050565b7f446973747269627574696f6e206973207061757365642e000000000000000000600082015250565b6000610ece601783610e1b565b9150610ed982610e98565b602082019050919050565b60006020820190508181036000830152610efd81610ec1565b9050919050565b7f4e487b7100000000000000000000000000000000000000000000000000000000600052601160045260246000fd5b6000610f3e82610bb7565b9150610f4983610bb7565b9250828202610f5781610bb7565b91508282048414831517610f6e57610f6d610f04565b5b5092915050565b7f4e487b7100000000000000000000000000000000000000000000000000000000600052601260045260246000fd5b6000610faf82610bb7565b9150610fba83610bb7565b925082610fca57610fc9610f75565b5b828204905092915050565b600081519050610fe481610bc1565b92915050565b60006020828403121561100057610fff610b54565b5b600061100e84828501610fd5565b91505092915050565b7f4e6f7420656e6f75676820746f6b656e7320617661696c61626c652e00000000600082015250565b600061104d601c83610e1b565b915061105882611017565b602082019050919050565b6000602082019050818103600083015261107c81611040565b9050919050565b600081905092915050565b50565b600061109e600083611083565b91506110a98261108e565b600082019050919050565b60006110bf82611091565b9150819050919050565b7f4661696c656420746f2073656e64204574686572000000000000000000000000600082015250565b60006110ff601483610e1b565b915061110a826110c9565b602082019050919050565b6000602082019050818103600083015261112e816110f2565b9050919050565b600069ffffffffffffffffffff82169050919050565b61115481611135565b811461115f57600080fd5b50565b6000815190506111718161114b565b92915050565b61118081610d8d565b811461118b57600080fd5b50565b60008151905061119d81611177565b92915050565b600080600080600060a086880312156111bf576111be610b54565b5b60006111cd88828901611162565b95505060206111de8882890161118e565b94505060406111ef88828901610fd5565b935050606061120088828901610fd5565b925050608061121188828901611162565b9150509295509295909350565b61122781610bb7565b82525050565b60006040820190506112426000830185610d63565b61124f602083018461121e565b9392505050565b600060608201905061126b6000830186610d63565b6112786020830185610d63565b611285604083018461121e565b949350505050565b60008151905061129c81610c8c565b92915050565b6000602082840312156112b8576112b7610b54565b5b60006112c68482850161128d565b91505092915050565b600081519050919050565b60005b838110156112f85780820151818401526020810190506112dd565b60008484015250505050565b600061130f826112cf565b6113198185611083565b93506113298185602086016112da565b80840191505092915050565b60006113418284611304565b91508190509291505056fea2646970667358221220bdf1f42bbd4d53e5a9d558e580683d7763d6b579a9088d4677f153897b274f3164736f6c63430008180033",
  "linkReferences": {},
  "deployedLinkReferences": {}
}