{
  "_format": "hh-sol-artifact-1",
  "contractName": "ChainlinkRateDistribution",
  "sourceName": "contracts/ChainlinkRateDistributionToken.sol",
  "abi": [
    {
      "inputs": [
        {
          "internalType": "address",
          "name": "_token",
          "type": "address"
        },
        {
          "internalType": "bool",
          "name": "_paused",
          "type": "bool"
        },
        {
          "internalType": "bool",
          "name": "_multiply",
          "type": "bool"
        },
        {
          "internalType": "uint256",
          "name": "_minimumAmount",
          "type": "uint256"
        }
      ],
      "stateMutability": "nonpayable",
      "type": "constructor"
    },
    {
      "inputs": [
        {
          "internalType": "address",
          "name": "target",
          "type": "address"
        }
      ],
      "name": "AddressEmptyCode",
      "type": "error"
    },
    {
      "inputs": [
        {
          "internalType": "address",
          "name": "account",
          "type": "address"
        }
      ],
      "name": "AddressInsufficientBalance",
      "type": "error"
    },
    {
      "inputs": [],
      "name": "FailedInnerCall",
      "type": "error"
    },
    {
      "inputs": [
        {
          "internalType": "address",
          "name": "owner",
          "type": "address"
        }
      ],
      "name": "OwnableInvalidOwner",
      "type": "error"
    },
    {
      "inputs": [
        {
          "internalType": "address",
          "name": "account",
          "type": "address"
        }
      ],
      "name": "OwnableUnauthorizedAccount",
      "type": "error"
    },
    {
      "inputs": [
        {
          "internalType": "address",
          "name": "token",
          "type": "address"
        }
      ],
      "name": "SafeERC20FailedOperation",
      "type": "error"
    },
    {
      "anonymous": false,
      "inputs": [
        {
          "indexed": true,
          "internalType": "address",
          "name": "previousOwner",
          "type": "address"
        },
        {
          "indexed": true,
          "internalType": "address",
          "name": "newOwner",
          "type": "address"
        }
      ],
      "name": "OwnershipTransferred",
      "type": "event"
    },
    {
      "inputs": [],
      "name": "getChainlinkDataFeedLatestAnswer",
      "outputs": [
        {
          "internalType": "int256",
          "name": "",
          "type": "int256"
        }
      ],
      "stateMutability": "view",
      "type": "function"
    },
    {
      "inputs": [],
      "name": "owner",
      "outputs": [
        {
          "internalType": "address",
          "name": "",
          "type": "address"
        }
      ],
      "stateMutability": "view",
      "type": "function"
    },
    {
      "inputs": [],
      "name": "renounceOwnership",
      "outputs": [],
      "stateMutability": "nonpayable",
      "type": "function"
    },
    {
      "inputs": [
        {
          "internalType": "uint256",
          "name": "_minimumAmount",
          "type": "uint256"
        }
      ],
      "name": "setMinimumAmount",
      "outputs": [],
      "stateMutability": "nonpayable",
      "type": "function"
    },
    {
      "inputs": [
        {
          "internalType": "bool",
          "name": "_multiply",
          "type": "bool"
        }
      ],
      "name": "setMultiply",
      "outputs": [],
      "stateMutability": "nonpayable",
      "type": "function"
    },
    {
      "inputs": [
        {
          "internalType": "bool",
          "name": "_paused",
          "type": "bool"
        }
      ],
      "name": "setPaused",
      "outputs": [],
      "stateMutability": "nonpayable",
      "type": "function"
    },
    {
      "inputs": [
        {
          "internalType": "address",
          "name": "newOwner",
          "type": "address"
        }
      ],
      "name": "transferOwnership",
      "outputs": [],
      "stateMutability": "nonpayable",
      "type": "function"
    },
    {
      "inputs": [
        {
          "internalType": "address payable",
          "name": "_to",
          "type": "address"
        },
        {
          "internalType": "uint256",
          "name": "amount",
          "type": "uint256"
        }
      ],
      "name": "withdrawETH",
      "outputs": [],
      "stateMutability": "nonpayable",
      "type": "function"
    },
    {
      "inputs": [
        {
          "internalType": "address",
          "name": "tokenAddress",
          "type": "address"
        },
        {
          "internalType": "address",
          "name": "to",
          "type": "address"
        },
        {
          "internalType": "uint256",
          "name": "amount",
          "type": "uint256"
        }
      ],
      "name": "withdrawToken",
      "outputs": [],
      "stateMutability": "nonpayable",
      "type": "function"
    },
    {
      "stateMutability": "payable",
      "type": "receive"
    }
  ],
  "bytecode": "0x60806040523480156200001157600080fd5b506040516200167038038062001670833981810160405281019062000037919062000340565b33600073ffffffffffffffffffffffffffffffffffffffff168173ffffffffffffffffffffffffffffffffffffffff1603620000ad5760006040517f1e4fbdf7000000000000000000000000000000000000000000000000000000008152600401620000a49190620003c3565b60405180910390fd5b620000be816200019a60201b60201c565b5082600260146101000a81548160ff02191690831515021790555081600260156101000a81548160ff0219169083151502179055508060038190555083600260006101000a81548173ffffffffffffffffffffffffffffffffffffffff021916908373ffffffffffffffffffffffffffffffffffffffff16021790555073694aa1769357215de4fac081bf1f309adc325306600160006101000a81548173ffffffffffffffffffffffffffffffffffffffff021916908373ffffffffffffffffffffffffffffffffffffffff16021790555050505050620003e0565b60008060009054906101000a900473ffffffffffffffffffffffffffffffffffffffff169050816000806101000a81548173ffffffffffffffffffffffffffffffffffffffff021916908373ffffffffffffffffffffffffffffffffffffffff1602179055508173ffffffffffffffffffffffffffffffffffffffff168173ffffffffffffffffffffffffffffffffffffffff167f8be0079c531659141344cd1fd0a4f28419497f9722a3daafe3b4186f6b6457e060405160405180910390a35050565b600080fd5b600073ffffffffffffffffffffffffffffffffffffffff82169050919050565b6000620002908262000263565b9050919050565b620002a28162000283565b8114620002ae57600080fd5b50565b600081519050620002c28162000297565b92915050565b60008115159050919050565b620002df81620002c8565b8114620002eb57600080fd5b50565b600081519050620002ff81620002d4565b92915050565b6000819050919050565b6200031a8162000305565b81146200032657600080fd5b50565b6000815190506200033a816200030f565b92915050565b600080600080608085870312156200035d576200035c6200025e565b5b60006200036d87828801620002b1565b94505060206200038087828801620002ee565b93505060406200039387828801620002ee565b9250506060620003a68782880162000329565b91505092959194509250565b620003bd8162000283565b82525050565b6000602082019050620003da6000830184620003b2565b92915050565b61128080620003f06000396000f3fe60806040526004361061008a5760003560e01c80638da5cb5b116100595780638da5cb5b14610327578063bea4dfb514610352578063eeb4a9c81461037d578063f170d20d146103a6578063f2fde38b146103cf57610290565b806301e336671461029557806316c38b3c146102be5780634782f779146102e7578063715018a61461031057610290565b36610290576003543410156100d4576040517f08c379a00000000000000000000000000000000000000000000000000000000081526004016100cb90610b26565b60405180910390fd5b600260149054906101000a900460ff1615610124576040517f08c379a000000000000000000000000000000000000000000000000000000000815260040161011b90610b92565b60405180910390fd5b6000600190506000600260159054906101000a900460ff161561015457813461014d9190610beb565b9050610163565b81346101609190610c5c565b90505b600260009054906101000a900473ffffffffffffffffffffffffffffffffffffffff1673ffffffffffffffffffffffffffffffffffffffff166370a08231306040518263ffffffff1660e01b81526004016101be9190610cce565b602060405180830381865afa1580156101db573d6000803e3d6000fd5b505050506040513d601f19601f820116820180604052508101906101ff9190610d1a565b811115610241576040517f08c379a000000000000000000000000000000000000000000000000000000000815260040161023890610d93565b60405180910390fd5b61028e3382600260009054906101000a900473ffffffffffffffffffffffffffffffffffffffff1673ffffffffffffffffffffffffffffffffffffffff166103f89092919063ffffffff16565b005b600080fd5b3480156102a157600080fd5b506102bc60048036038101906102b79190610df4565b610477565b005b3480156102ca57600080fd5b506102e560048036038101906102e09190610e7f565b6104af565b005b3480156102f357600080fd5b5061030e60048036038101906103099190610eea565b6104d4565b005b34801561031c57600080fd5b5061032561058d565b005b34801561033357600080fd5b5061033c6105a1565b6040516103499190610cce565b60405180910390f35b34801561035e57600080fd5b506103676105ca565b6040516103749190610f43565b60405180910390f35b34801561038957600080fd5b506103a4600480360381019061039f9190610f5e565b61066b565b005b3480156103b257600080fd5b506103cd60048036038101906103c89190610e7f565b61067d565b005b3480156103db57600080fd5b506103f660048036038101906103f19190610f8b565b6106a2565b005b610472838473ffffffffffffffffffffffffffffffffffffffff1663a9059cbb858560405160240161042b929190610fc7565b604051602081830303815290604052915060e01b6020820180517bffffffffffffffffffffffffffffffffffffffffffffffffffffffff8381831617835250505050610728565b505050565b61047f6107bf565b6104aa82828573ffffffffffffffffffffffffffffffffffffffff166103f89092919063ffffffff16565b505050565b6104b76107bf565b80600260146101000a81548160ff02191690831515021790555050565b6104dc6107bf565b60008273ffffffffffffffffffffffffffffffffffffffff168260405161050290611021565b60006040518083038185875af1925050503d806000811461053f576040519150601f19603f3d011682016040523d82523d6000602084013e610544565b606091505b5050905080610588576040517f08c379a000000000000000000000000000000000000000000000000000000000815260040161057f90611082565b60405180910390fd5b505050565b6105956107bf565b61059f6000610846565b565b60008060009054906101000a900473ffffffffffffffffffffffffffffffffffffffff16905090565b600080600160009054906101000a900473ffffffffffffffffffffffffffffffffffffffff1673ffffffffffffffffffffffffffffffffffffffff1663feaf968c6040518163ffffffff1660e01b815260040160a060405180830381865afa15801561063a573d6000803e3d6000fd5b505050506040513d601f19601f8201168201806040525081019061065e9190611110565b5050509150508091505090565b6106736107bf565b8060038190555050565b6106856107bf565b80600260156101000a81548160ff02191690831515021790555050565b6106aa6107bf565b600073ffffffffffffffffffffffffffffffffffffffff168173ffffffffffffffffffffffffffffffffffffffff160361071c5760006040517f1e4fbdf70000000000000000000000000000000000000000000000000000000081526004016107139190610cce565b60405180910390fd5b61072581610846565b50565b6000610753828473ffffffffffffffffffffffffffffffffffffffff1661090a90919063ffffffff16565b9050600081511415801561077857508080602001905181019061077691906111a0565b155b156107ba57826040517f5274afe70000000000000000000000000000000000000000000000000000000081526004016107b19190610cce565b60405180910390fd5b505050565b6107c7610920565b73ffffffffffffffffffffffffffffffffffffffff166107e56105a1565b73ffffffffffffffffffffffffffffffffffffffff161461084457610808610920565b6040517f118cdaa700000000000000000000000000000000000000000000000000000000815260040161083b9190610cce565b60405180910390fd5b565b60008060009054906101000a900473ffffffffffffffffffffffffffffffffffffffff169050816000806101000a81548173ffffffffffffffffffffffffffffffffffffffff021916908373ffffffffffffffffffffffffffffffffffffffff1602179055508173ffffffffffffffffffffffffffffffffffffffff168173ffffffffffffffffffffffffffffffffffffffff167f8be0079c531659141344cd1fd0a4f28419497f9722a3daafe3b4186f6b6457e060405160405180910390a35050565b606061091883836000610928565b905092915050565b600033905090565b60608147101561096f57306040517fcd7860590000000000000000000000000000000000000000000000000000000081526004016109669190610cce565b60405180910390fd5b6000808573ffffffffffffffffffffffffffffffffffffffff1684866040516109989190611233565b60006040518083038185875af1925050503d80600081146109d5576040519150601f19603f3d011682016040523d82523d6000602084013e6109da565b606091505b50915091506109ea8683836109f5565b925050509392505050565b606082610a0a57610a0582610a84565b610a7c565b60008251148015610a32575060008473ffffffffffffffffffffffffffffffffffffffff163b145b15610a7457836040517f9996b315000000000000000000000000000000000000000000000000000000008152600401610a6b9190610cce565b60405180910390fd5b819050610a7d565b5b9392505050565b600081511115610a975780518082602001fd5b6040517f1425ea4200000000000000000000000000000000000000000000000000000000815260040160405180910390fd5b600082825260208201905092915050565b7f496e73756666696369656e74204554482070726f76696465642e000000000000600082015250565b6000610b10601a83610ac9565b9150610b1b82610ada565b602082019050919050565b60006020820190508181036000830152610b3f81610b03565b9050919050565b7f446973747269627574696f6e206973207061757365642e000000000000000000600082015250565b6000610b7c601783610ac9565b9150610b8782610b46565b602082019050919050565b60006020820190508181036000830152610bab81610b6f565b9050919050565b6000819050919050565b7f4e487b7100000000000000000000000000000000000000000000000000000000600052601160045260246000fd5b6000610bf682610bb2565b9150610c0183610bb2565b9250828202610c0f81610bb2565b91508282048414831517610c2657610c25610bbc565b5b5092915050565b7f4e487b7100000000000000000000000000000000000000000000000000000000600052601260045260246000fd5b6000610c6782610bb2565b9150610c7283610bb2565b925082610c8257610c81610c2d565b5b828204905092915050565b600073ffffffffffffffffffffffffffffffffffffffff82169050919050565b6000610cb882610c8d565b9050919050565b610cc881610cad565b82525050565b6000602082019050610ce36000830184610cbf565b92915050565b600080fd5b610cf781610bb2565b8114610d0257600080fd5b50565b600081519050610d1481610cee565b92915050565b600060208284031215610d3057610d2f610ce9565b5b6000610d3e84828501610d05565b91505092915050565b7f4e6f7420656e6f75676820746f6b656e7320617661696c61626c652e00000000600082015250565b6000610d7d601c83610ac9565b9150610d8882610d47565b602082019050919050565b60006020820190508181036000830152610dac81610d70565b9050919050565b610dbc81610cad565b8114610dc757600080fd5b50565b600081359050610dd981610db3565b92915050565b600081359050610dee81610cee565b92915050565b600080600060608486031215610e0d57610e0c610ce9565b5b6000610e1b86828701610dca565b9350506020610e2c86828701610dca565b9250506040610e3d86828701610ddf565b9150509250925092565b60008115159050919050565b610e5c81610e47565b8114610e6757600080fd5b50565b600081359050610e7981610e53565b92915050565b600060208284031215610e9557610e94610ce9565b5b6000610ea384828501610e6a565b91505092915050565b6000610eb782610c8d565b9050919050565b610ec781610eac565b8114610ed257600080fd5b50565b600081359050610ee481610ebe565b92915050565b60008060408385031215610f0157610f00610ce9565b5b6000610f0f85828601610ed5565b9250506020610f2085828601610ddf565b9150509250929050565b6000819050919050565b610f3d81610f2a565b82525050565b6000602082019050610f586000830184610f34565b92915050565b600060208284031215610f7457610f73610ce9565b5b6000610f8284828501610ddf565b91505092915050565b600060208284031215610fa157610fa0610ce9565b5b6000610faf84828501610dca565b91505092915050565b610fc181610bb2565b82525050565b6000604082019050610fdc6000830185610cbf565b610fe96020830184610fb8565b9392505050565b600081905092915050565b50565b600061100b600083610ff0565b915061101682610ffb565b600082019050919050565b600061102c82610ffe565b9150819050919050565b7f4661696c656420746f2073656e64204574686572000000000000000000000000600082015250565b600061106c601483610ac9565b915061107782611036565b602082019050919050565b6000602082019050818103600083015261109b8161105f565b9050919050565b600069ffffffffffffffffffff82169050919050565b6110c1816110a2565b81146110cc57600080fd5b50565b6000815190506110de816110b8565b92915050565b6110ed81610f2a565b81146110f857600080fd5b50565b60008151905061110a816110e4565b92915050565b600080600080600060a0868803121561112c5761112b610ce9565b5b600061113a888289016110cf565b955050602061114b888289016110fb565b945050604061115c88828901610d05565b935050606061116d88828901610d05565b925050608061117e888289016110cf565b9150509295509295909350565b60008151905061119a81610e53565b92915050565b6000602082840312156111b6576111b5610ce9565b5b60006111c48482850161118b565b91505092915050565b600081519050919050565b60005b838110156111f65780820151818401526020810190506111db565b60008484015250505050565b600061120d826111cd565b6112178185610ff0565b93506112278185602086016111d8565b80840191505092915050565b600061123f8284611202565b91508190509291505056fea264697066735822122042cfe8ae7c9384898b6f46661a8a2deb07130745761533c7a9a93f78b351b89364736f6c63430008180033",
  "linkReferences": {},
  "deployedLinkReferences": {}
}