{
  "_format": "hh-sol-artifact-1",
  "contractName": "APICallToken",
  "sourceName": "contracts/APICallToken.sol",
  "abi": [
    {
      "inputs": [
        {
          "internalType": "address",
          "name": "_token",
          "type": "address"
        },
        {
          "internalType": "address",
          "name": "_tokenAccepted",
          "type": "address"
        },
        {
          "internalType": "bool",
          "name": "_paused",
          "type": "bool"
        }
      ],
      "stateMutability": "nonpayable",
      "type": "constructor"
    },
    {
      "inputs": [
        {
          "internalType": "address",
          "name": "target",
          "type": "address"
        }
      ],
      "name": "AddressEmptyCode",
      "type": "error"
    },
    {
      "inputs": [
        {
          "internalType": "address",
          "name": "account",
          "type": "address"
        }
      ],
      "name": "AddressInsufficientBalance",
      "type": "error"
    },
    {
      "inputs": [],
      "name": "FailedInnerCall",
      "type": "error"
    },
    {
      "inputs": [
        {
          "internalType": "address",
          "name": "owner",
          "type": "address"
        }
      ],
      "name": "OwnableInvalidOwner",
      "type": "error"
    },
    {
      "inputs": [
        {
          "internalType": "address",
          "name": "account",
          "type": "address"
        }
      ],
      "name": "OwnableUnauthorizedAccount",
      "type": "error"
    },
    {
      "inputs": [
        {
          "internalType": "address",
          "name": "token",
          "type": "address"
        }
      ],
      "name": "SafeERC20FailedOperation",
      "type": "error"
    },
    {
      "anonymous": false,
      "inputs": [
        {
          "indexed": true,
          "internalType": "address",
          "name": "previousOwner",
          "type": "address"
        },
        {
          "indexed": true,
          "internalType": "address",
          "name": "newOwner",
          "type": "address"
        }
      ],
      "name": "OwnershipTransferred",
      "type": "event"
    },
    {
      "inputs": [
        {
          "internalType": "bool",
          "name": "isOnline",
          "type": "bool"
        },
        {
          "internalType": "uint256",
          "name": "maxTimeout",
          "type": "uint256"
        },
        {
          "internalType": "uint256",
          "name": "pricePerCall",
          "type": "uint256"
        }
      ],
      "name": "addService",
      "outputs": [],
      "stateMutability": "nonpayable",
      "type": "function"
    },
    {
      "inputs": [
        {
          "internalType": "uint256",
          "name": "serviceId",
          "type": "uint256"
        },
        {
          "internalType": "bool",
          "name": "isOnline",
          "type": "bool"
        },
        {
          "internalType": "uint256",
          "name": "maxTimeout",
          "type": "uint256"
        },
        {
          "internalType": "uint256",
          "name": "pricePerCall",
          "type": "uint256"
        }
      ],
      "name": "editService",
      "outputs": [],
      "stateMutability": "nonpayable",
      "type": "function"
    },
    {
      "inputs": [
        {
          "internalType": "uint256",
          "name": "serviceId",
          "type": "uint256"
        }
      ],
      "name": "getService",
      "outputs": [
        {
          "components": [
            {
              "internalType": "bool",
              "name": "isOnline",
              "type": "bool"
            },
            {
              "internalType": "uint256",
              "name": "maxTimeout",
              "type": "uint256"
            },
            {
              "internalType": "uint256",
              "name": "pricePerCall",
              "type": "uint256"
            }
          ],
          "internalType": "struct APICallToken.Service",
          "name": "",
          "type": "tuple"
        }
      ],
      "stateMutability": "view",
      "type": "function"
    },
    {
      "inputs": [
        {
          "internalType": "uint256",
          "name": "serviceId",
          "type": "uint256"
        }
      ],
      "name": "makeApiCall",
      "outputs": [],
      "stateMutability": "nonpayable",
      "type": "function"
    },
    {
      "inputs": [],
      "name": "owner",
      "outputs": [
        {
          "internalType": "address",
          "name": "",
          "type": "address"
        }
      ],
      "stateMutability": "view",
      "type": "function"
    },
    {
      "inputs": [],
      "name": "renounceOwnership",
      "outputs": [],
      "stateMutability": "nonpayable",
      "type": "function"
    },
    {
      "inputs": [
        {
          "internalType": "bool",
          "name": "_paused",
          "type": "bool"
        }
      ],
      "name": "setPaused",
      "outputs": [],
      "stateMutability": "nonpayable",
      "type": "function"
    },
    {
      "inputs": [
        {
          "internalType": "address",
          "name": "newOwner",
          "type": "address"
        }
      ],
      "name": "transferOwnership",
      "outputs": [],
      "stateMutability": "nonpayable",
      "type": "function"
    },
    {
      "inputs": [
        {
          "internalType": "address payable",
          "name": "_to",
          "type": "address"
        },
        {
          "internalType": "uint256",
          "name": "amount",
          "type": "uint256"
        }
      ],
      "name": "withdrawETH",
      "outputs": [],
      "stateMutability": "nonpayable",
      "type": "function"
    },
    {
      "inputs": [
        {
          "internalType": "address",
          "name": "tokenAddress",
          "type": "address"
        },
        {
          "internalType": "address",
          "name": "to",
          "type": "address"
        },
        {
          "internalType": "uint256",
          "name": "amount",
          "type": "uint256"
        }
      ],
      "name": "withdrawToken",
      "outputs": [],
      "stateMutability": "nonpayable",
      "type": "function"
    }
  ],
  "bytecode": "0x60806040523480156200001157600080fd5b5060405162001336380380620013368339818101604052810190620000379190620002d7565b33600073ffffffffffffffffffffffffffffffffffffffff168173ffffffffffffffffffffffffffffffffffffffff1603620000ad5760006040517f1e4fbdf7000000000000000000000000000000000000000000000000000000008152600401620000a4919062000344565b60405180910390fd5b620000be816200016c60201b60201c565b5080600560006101000a81548160ff021916908315150217905550600060048190555082600160006101000a81548173ffffffffffffffffffffffffffffffffffffffff021916908373ffffffffffffffffffffffffffffffffffffffff16021790555081600260006101000a81548173ffffffffffffffffffffffffffffffffffffffff021916908373ffffffffffffffffffffffffffffffffffffffff16021790555050505062000361565b60008060009054906101000a900473ffffffffffffffffffffffffffffffffffffffff169050816000806101000a81548173ffffffffffffffffffffffffffffffffffffffff021916908373ffffffffffffffffffffffffffffffffffffffff1602179055508173ffffffffffffffffffffffffffffffffffffffff168173ffffffffffffffffffffffffffffffffffffffff167f8be0079c531659141344cd1fd0a4f28419497f9722a3daafe3b4186f6b6457e060405160405180910390a35050565b600080fd5b600073ffffffffffffffffffffffffffffffffffffffff82169050919050565b6000620002628262000235565b9050919050565b620002748162000255565b81146200028057600080fd5b50565b600081519050620002948162000269565b92915050565b60008115159050919050565b620002b1816200029a565b8114620002bd57600080fd5b50565b600081519050620002d181620002a6565b92915050565b600080600060608486031215620002f357620002f262000230565b5b6000620003038682870162000283565b9350506020620003168682870162000283565b92505060406200032986828701620002c0565b9150509250925092565b6200033e8162000255565b82525050565b60006020820190506200035b600083018462000333565b92915050565b610fc580620003716000396000f3fe608060405234801561001057600080fd5b506004361061009e5760003560e01c80638da5cb5b116100665780638da5cb5b1461011d578063ddfe8f0e1461013b578063e8adb87c14610157578063ef0e239b14610173578063f2fde38b146101a35761009e565b806301e33667146100a357806316c38b3c146100bf5780634782f779146100db57806363c04d5f146100f7578063715018a614610113575b600080fd5b6100bd60048036038101906100b89190610a17565b6101bf565b005b6100d960048036038101906100d49190610aa2565b6101f7565b005b6100f560048036038101906100f09190610b0d565b61021c565b005b610111600480360381019061010c9190610b4d565b6102d5565b005b61011b6102d8565b005b6101256102ec565b6040516101329190610b89565b60405180910390f35b61015560048036038101906101509190610ba4565b610315565b005b610171600480360381019061016c9190610c0b565b6103ce565b005b61018d60048036038101906101889190610b4d565b610459565b60405161019a9190610cbe565b60405180910390f35b6101bd60048036038101906101b89190610cd9565b6104b5565b005b6101c761053b565b6101f282828573ffffffffffffffffffffffffffffffffffffffff166105c29092919063ffffffff16565b505050565b6101ff61053b565b80600560006101000a81548160ff02191690831515021790555050565b61022461053b565b60008273ffffffffffffffffffffffffffffffffffffffff168260405161024a90610d37565b60006040518083038185875af1925050503d8060008114610287576040519150601f19603f3d011682016040523d82523d6000602084013e61028c565b606091505b50509050806102d0576040517f08c379a00000000000000000000000000000000000000000000000000000000081526004016102c790610da9565b60405180910390fd5b505050565b50565b6102e061053b565b6102ea6000610641565b565b60008060009054906101000a900473ffffffffffffffffffffffffffffffffffffffff16905090565b61031d61053b565b6004548410610361576040517f08c379a000000000000000000000000000000000000000000000000000000000815260040161035890610e15565b60405180910390fd5b60405180606001604052808415158152602001838152602001828152506003600086815260200190815260200160002060008201518160000160006101000a81548160ff021916908315150217905550602082015181600101556040820151816002015590505050505050565b6103d661053b565b604051806060016040528084151581526020018381526020018281525060036000600454815260200190815260200160002060008201518160000160006101000a81548160ff0219169083151502179055506020820151816001015560408201518160020155905050600160045461044e9190610e64565b600481905550505050565b61046161095b565b600360008381526020019081526020016000206040518060600160405290816000820160009054906101000a900460ff16151515158152602001600182015481526020016002820154815250509050919050565b6104bd61053b565b600073ffffffffffffffffffffffffffffffffffffffff168173ffffffffffffffffffffffffffffffffffffffff160361052f5760006040517f1e4fbdf70000000000000000000000000000000000000000000000000000000081526004016105269190610b89565b60405180910390fd5b61053881610641565b50565b610543610705565b73ffffffffffffffffffffffffffffffffffffffff166105616102ec565b73ffffffffffffffffffffffffffffffffffffffff16146105c057610584610705565b6040517f118cdaa70000000000000000000000000000000000000000000000000000000081526004016105b79190610b89565b60405180910390fd5b565b61063c838473ffffffffffffffffffffffffffffffffffffffff1663a9059cbb85856040516024016105f5929190610ea7565b604051602081830303815290604052915060e01b6020820180517bffffffffffffffffffffffffffffffffffffffffffffffffffffffff838183161783525050505061070d565b505050565b60008060009054906101000a900473ffffffffffffffffffffffffffffffffffffffff169050816000806101000a81548173ffffffffffffffffffffffffffffffffffffffff021916908373ffffffffffffffffffffffffffffffffffffffff1602179055508173ffffffffffffffffffffffffffffffffffffffff168173ffffffffffffffffffffffffffffffffffffffff167f8be0079c531659141344cd1fd0a4f28419497f9722a3daafe3b4186f6b6457e060405160405180910390a35050565b600033905090565b6000610738828473ffffffffffffffffffffffffffffffffffffffff166107a490919063ffffffff16565b9050600081511415801561075d57508080602001905181019061075b9190610ee5565b155b1561079f57826040517f5274afe70000000000000000000000000000000000000000000000000000000081526004016107969190610b89565b60405180910390fd5b505050565b60606107b2838360006107ba565b905092915050565b60608147101561080157306040517fcd7860590000000000000000000000000000000000000000000000000000000081526004016107f89190610b89565b60405180910390fd5b6000808573ffffffffffffffffffffffffffffffffffffffff16848660405161082a9190610f78565b60006040518083038185875af1925050503d8060008114610867576040519150601f19603f3d011682016040523d82523d6000602084013e61086c565b606091505b509150915061087c868383610887565b925050509392505050565b60608261089c5761089782610916565b61090e565b600082511480156108c4575060008473ffffffffffffffffffffffffffffffffffffffff163b145b1561090657836040517f9996b3150000000000000000000000000000000000000000000000000000000081526004016108fd9190610b89565b60405180910390fd5b81905061090f565b5b9392505050565b6000815111156109295780518082602001fd5b6040517f1425ea4200000000000000000000000000000000000000000000000000000000815260040160405180910390fd5b604051806060016040528060001515815260200160008152602001600081525090565b600080fd5b600073ffffffffffffffffffffffffffffffffffffffff82169050919050565b60006109ae82610983565b9050919050565b6109be816109a3565b81146109c957600080fd5b50565b6000813590506109db816109b5565b92915050565b6000819050919050565b6109f4816109e1565b81146109ff57600080fd5b50565b600081359050610a11816109eb565b92915050565b600080600060608486031215610a3057610a2f61097e565b5b6000610a3e868287016109cc565b9350506020610a4f868287016109cc565b9250506040610a6086828701610a02565b9150509250925092565b60008115159050919050565b610a7f81610a6a565b8114610a8a57600080fd5b50565b600081359050610a9c81610a76565b92915050565b600060208284031215610ab857610ab761097e565b5b6000610ac684828501610a8d565b91505092915050565b6000610ada82610983565b9050919050565b610aea81610acf565b8114610af557600080fd5b50565b600081359050610b0781610ae1565b92915050565b60008060408385031215610b2457610b2361097e565b5b6000610b3285828601610af8565b9250506020610b4385828601610a02565b9150509250929050565b600060208284031215610b6357610b6261097e565b5b6000610b7184828501610a02565b91505092915050565b610b83816109a3565b82525050565b6000602082019050610b9e6000830184610b7a565b92915050565b60008060008060808587031215610bbe57610bbd61097e565b5b6000610bcc87828801610a02565b9450506020610bdd87828801610a8d565b9350506040610bee87828801610a02565b9250506060610bff87828801610a02565b91505092959194509250565b600080600060608486031215610c2457610c2361097e565b5b6000610c3286828701610a8d565b9350506020610c4386828701610a02565b9250506040610c5486828701610a02565b9150509250925092565b610c6781610a6a565b82525050565b610c76816109e1565b82525050565b606082016000820151610c926000850182610c5e565b506020820151610ca56020850182610c6d565b506040820151610cb86040850182610c6d565b50505050565b6000606082019050610cd36000830184610c7c565b92915050565b600060208284031215610cef57610cee61097e565b5b6000610cfd848285016109cc565b91505092915050565b600081905092915050565b50565b6000610d21600083610d06565b9150610d2c82610d11565b600082019050919050565b6000610d4282610d14565b9150819050919050565b600082825260208201905092915050565b7f4661696c656420746f2073656e64204574686572000000000000000000000000600082015250565b6000610d93601483610d4c565b9150610d9e82610d5d565b602082019050919050565b60006020820190508181036000830152610dc281610d86565b9050919050565b7f53657276696365204944206e6f7420666f756e642e0000000000000000000000600082015250565b6000610dff601583610d4c565b9150610e0a82610dc9565b602082019050919050565b60006020820190508181036000830152610e2e81610df2565b9050919050565b7f4e487b7100000000000000000000000000000000000000000000000000000000600052601160045260246000fd5b6000610e6f826109e1565b9150610e7a836109e1565b9250828201905080821115610e9257610e91610e35565b5b92915050565b610ea1816109e1565b82525050565b6000604082019050610ebc6000830185610b7a565b610ec96020830184610e98565b9392505050565b600081519050610edf81610a76565b92915050565b600060208284031215610efb57610efa61097e565b5b6000610f0984828501610ed0565b91505092915050565b600081519050919050565b60005b83811015610f3b578082015181840152602081019050610f20565b60008484015250505050565b6000610f5282610f12565b610f5c8185610d06565b9350610f6c818560208601610f1d565b80840191505092915050565b6000610f848284610f47565b91508190509291505056fea26469706673582212206dabe2aa664ad1d32d9a5a245fa4aa249d3b5fc6d8bd2b64f84cc35bd1c1346964736f6c63430008180033",
  "linkReferences": {},
  "deployedLinkReferences": {}
}