{
  "_format": "hh-sol-artifact-1",
  "contractName": "APICallToken",
  "sourceName": "contracts/APICallToken.sol",
  "abi": [
    {
      "inputs": [
        {
          "internalType": "address",
          "name": "_token",
          "type": "address"
        },
        {
          "internalType": "address",
          "name": "_tokenAccepted",
          "type": "address"
        },
        {
          "internalType": "bool",
          "name": "_paused",
          "type": "bool"
        }
      ],
      "stateMutability": "nonpayable",
      "type": "constructor"
    },
    {
      "inputs": [
        {
          "internalType": "address",
          "name": "target",
          "type": "address"
        }
      ],
      "name": "AddressEmptyCode",
      "type": "error"
    },
    {
      "inputs": [
        {
          "internalType": "address",
          "name": "account",
          "type": "address"
        }
      ],
      "name": "AddressInsufficientBalance",
      "type": "error"
    },
    {
      "inputs": [],
      "name": "FailedInnerCall",
      "type": "error"
    },
    {
      "inputs": [
        {
          "internalType": "address",
          "name": "owner",
          "type": "address"
        }
      ],
      "name": "OwnableInvalidOwner",
      "type": "error"
    },
    {
      "inputs": [
        {
          "internalType": "address",
          "name": "account",
          "type": "address"
        }
      ],
      "name": "OwnableUnauthorizedAccount",
      "type": "error"
    },
    {
      "inputs": [
        {
          "internalType": "address",
          "name": "token",
          "type": "address"
        }
      ],
      "name": "SafeERC20FailedOperation",
      "type": "error"
    },
    {
      "anonymous": false,
      "inputs": [
        {
          "indexed": true,
          "internalType": "address",
          "name": "previousOwner",
          "type": "address"
        },
        {
          "indexed": true,
          "internalType": "address",
          "name": "newOwner",
          "type": "address"
        }
      ],
      "name": "OwnershipTransferred",
      "type": "event"
    },
    {
      "inputs": [
        {
          "internalType": "uint256",
          "name": "serviceProviderId",
          "type": "uint256"
        },
        {
          "internalType": "bool",
          "name": "isOnline",
          "type": "bool"
        },
        {
          "internalType": "uint256",
          "name": "maxTimeout",
          "type": "uint256"
        },
        {
          "internalType": "uint256",
          "name": "pricePerCall",
          "type": "uint256"
        },
        {
          "internalType": "uint256",
          "name": "responseStoredFor",
          "type": "uint256"
        }
      ],
      "name": "addService",
      "outputs": [],
      "stateMutability": "nonpayable",
      "type": "function"
    },
    {
      "inputs": [
        {
          "internalType": "bytes",
          "name": "publicKey",
          "type": "bytes"
        }
      ],
      "name": "addServiceProvider",
      "outputs": [],
      "stateMutability": "nonpayable",
      "type": "function"
    },
    {
      "inputs": [
        {
          "internalType": "uint256",
          "name": "serviceId",
          "type": "uint256"
        },
        {
          "internalType": "uint256",
          "name": "serviceProviderId",
          "type": "uint256"
        },
        {
          "internalType": "bool",
          "name": "isOnline",
          "type": "bool"
        },
        {
          "internalType": "uint256",
          "name": "maxTimeout",
          "type": "uint256"
        },
        {
          "internalType": "uint256",
          "name": "pricePerCall",
          "type": "uint256"
        },
        {
          "internalType": "uint256",
          "name": "responseStoredFor",
          "type": "uint256"
        }
      ],
      "name": "editService",
      "outputs": [],
      "stateMutability": "nonpayable",
      "type": "function"
    },
    {
      "inputs": [
        {
          "internalType": "uint256",
          "name": "serviceProviderId",
          "type": "uint256"
        },
        {
          "internalType": "bytes",
          "name": "publicKey",
          "type": "bytes"
        }
      ],
      "name": "editServiceProvider",
      "outputs": [],
      "stateMutability": "nonpayable",
      "type": "function"
    },
    {
      "inputs": [
        {
          "internalType": "uint256",
          "name": "serviceId",
          "type": "uint256"
        }
      ],
      "name": "getService",
      "outputs": [
        {
          "components": [
            {
              "internalType": "uint256",
              "name": "serviceProvider",
              "type": "uint256"
            },
            {
              "internalType": "bool",
              "name": "isOnline",
              "type": "bool"
            },
            {
              "internalType": "uint256",
              "name": "maxTimeout",
              "type": "uint256"
            },
            {
              "internalType": "uint256",
              "name": "pricePerCall",
              "type": "uint256"
            },
            {
              "internalType": "uint256",
              "name": "responseStoredFor",
              "type": "uint256"
            }
          ],
          "internalType": "struct APICallToken.Service",
          "name": "",
          "type": "tuple"
        }
      ],
      "stateMutability": "view",
      "type": "function"
    },
    {
      "inputs": [
        {
          "internalType": "uint256",
          "name": "serviceProviderId",
          "type": "uint256"
        }
      ],
      "name": "getServiceProvider",
      "outputs": [
        {
          "components": [
            {
              "internalType": "bytes",
              "name": "publicKey",
              "type": "bytes"
            }
          ],
          "internalType": "struct APICallToken.ServiceProvider",
          "name": "",
          "type": "tuple"
        }
      ],
      "stateMutability": "view",
      "type": "function"
    },
    {
      "inputs": [
        {
          "internalType": "uint256",
          "name": "serviceId",
          "type": "uint256"
        }
      ],
      "name": "makeApiCall",
      "outputs": [],
      "stateMutability": "nonpayable",
      "type": "function"
    },
    {
      "inputs": [],
      "name": "owner",
      "outputs": [
        {
          "internalType": "address",
          "name": "",
          "type": "address"
        }
      ],
      "stateMutability": "view",
      "type": "function"
    },
    {
      "inputs": [],
      "name": "renounceOwnership",
      "outputs": [],
      "stateMutability": "nonpayable",
      "type": "function"
    },
    {
      "inputs": [
        {
          "internalType": "bool",
          "name": "_paused",
          "type": "bool"
        }
      ],
      "name": "setPaused",
      "outputs": [],
      "stateMutability": "nonpayable",
      "type": "function"
    },
    {
      "inputs": [
        {
          "internalType": "address",
          "name": "newOwner",
          "type": "address"
        }
      ],
      "name": "transferOwnership",
      "outputs": [],
      "stateMutability": "nonpayable",
      "type": "function"
    },
    {
      "inputs": [
        {
          "internalType": "address payable",
          "name": "_to",
          "type": "address"
        },
        {
          "internalType": "uint256",
          "name": "amount",
          "type": "uint256"
        }
      ],
      "name": "withdrawETH",
      "outputs": [],
      "stateMutability": "nonpayable",
      "type": "function"
    },
    {
      "inputs": [
        {
          "internalType": "address",
          "name": "tokenAddress",
          "type": "address"
        },
        {
          "internalType": "address",
          "name": "to",
          "type": "address"
        },
        {
          "internalType": "uint256",
          "name": "amount",
          "type": "uint256"
        }
      ],
      "name": "withdrawToken",
      "outputs": [],
      "stateMutability": "nonpayable",
      "type": "function"
    }
  ],
  "bytecode": "0x60806040523480156200001157600080fd5b5060405162001cb438038062001cb48339818101604052810190620000379190620002df565b33600073ffffffffffffffffffffffffffffffffffffffff168173ffffffffffffffffffffffffffffffffffffffff1603620000ad5760006040517f1e4fbdf7000000000000000000000000000000000000000000000000000000008152600401620000a491906200034c565b60405180910390fd5b620000be816200017460201b60201c565b5080600760006101000a81548160ff0219169083151502179055506000600481905550600060068190555082600160006101000a81548173ffffffffffffffffffffffffffffffffffffffff021916908373ffffffffffffffffffffffffffffffffffffffff16021790555081600260006101000a81548173ffffffffffffffffffffffffffffffffffffffff021916908373ffffffffffffffffffffffffffffffffffffffff16021790555050505062000369565b60008060009054906101000a900473ffffffffffffffffffffffffffffffffffffffff169050816000806101000a81548173ffffffffffffffffffffffffffffffffffffffff021916908373ffffffffffffffffffffffffffffffffffffffff1602179055508173ffffffffffffffffffffffffffffffffffffffff168173ffffffffffffffffffffffffffffffffffffffff167f8be0079c531659141344cd1fd0a4f28419497f9722a3daafe3b4186f6b6457e060405160405180910390a35050565b600080fd5b600073ffffffffffffffffffffffffffffffffffffffff82169050919050565b60006200026a826200023d565b9050919050565b6200027c816200025d565b81146200028857600080fd5b50565b6000815190506200029c8162000271565b92915050565b60008115159050919050565b620002b981620002a2565b8114620002c557600080fd5b50565b600081519050620002d981620002ae565b92915050565b600080600060608486031215620002fb57620002fa62000238565b5b60006200030b868287016200028b565b93505060206200031e868287016200028b565b92505060406200033186828701620002c8565b9150509250925092565b62000346816200025d565b82525050565b60006020820190506200036360008301846200033b565b92915050565b61193b80620003796000396000f3fe608060405234801561001057600080fd5b50600436106100cf5760003560e01c8063794280a91161008c5780638b9c639a116100665780638b9c639a146101d25780638da5cb5b146101ee578063ef0e239b1461020c578063f2fde38b1461023c576100cf565b8063794280a91461016a5780637ecb38de14610186578063802ffb45146101a2576100cf565b806301e33667146100d457806316c38b3c146100f05780634782f7791461010c57806363c04d5f14610128578063715018a61461014457806374424acb1461014e575b600080fd5b6100ee60048036038101906100e99190610de7565b610258565b005b61010a60048036038101906101059190610e72565b610290565b005b61012660048036038101906101219190610edd565b6102b5565b005b610142600480360381019061013d9190610f1d565b61036e565b005b61014c6103b5565b005b61016860048036038101906101639190610faf565b6103c9565b005b610184600480360381019061017f9190610ffc565b61046b565b005b6101a0600480360381019061019b9190611077565b61055c565b005b6101bc60048036038101906101b79190610f1d565b610637565b6040516101c991906111be565b60405180910390f35b6101ec60048036038101906101e791906111e0565b6106f6565b005b6101f66107c6565b604051610203919061124f565b60405180910390f35b61022660048036038101906102219190610f1d565b6107ef565b60405161023391906112f0565b60405180910390f35b6102566004803603810190610251919061130b565b61085f565b005b6102606108e5565b61028b82828573ffffffffffffffffffffffffffffffffffffffff1661096c9092919063ffffffff16565b505050565b6102986108e5565b80600760006101000a81548160ff02191690831515021790555050565b6102bd6108e5565b60008273ffffffffffffffffffffffffffffffffffffffff16826040516102e390611369565b60006040518083038185875af1925050503d8060008114610320576040519150601f19603f3d011682016040523d82523d6000602084013e610325565b606091505b5050905080610369576040517f08c379a0000000000000000000000000000000000000000000000000000000008152600401610360906113db565b60405180910390fd5b505050565b60065481106103b2576040517f08c379a00000000000000000000000000000000000000000000000000000000081526004016103a990611447565b60405180910390fd5b50565b6103bd6108e5565b6103c760006109eb565b565b6103d16108e5565b604051806020016040528083838080601f016020809104026020016040519081016040528093929190818152602001838380828437600081840152601f19601f82011690508083019250505050505050815250600360006004548152602001908152602001600020600082015181600001908161044e91906116a2565b50905050600160045461046191906117a3565b6004819055505050565b6104736108e5565b60045485106104b7576040517f08c379a00000000000000000000000000000000000000000000000000000000081526004016104ae90611823565b60405180910390fd5b6040518060a001604052808681526020018515158152602001848152602001838152602001828152506005600060065481526020019081526020016000206000820151816000015560208201518160010160006101000a81548160ff021916908315150217905550604082015181600201556060820151816003015560808201518160040155905050600160065461054f91906117a3565b6006819055505050505050565b6105646108e5565b60065486106105a8576040517f08c379a000000000000000000000000000000000000000000000000000000000815260040161059f90611447565b60405180910390fd5b6040518060a00160405280868152602001851515815260200184815260200183815260200182815250600560008881526020019081526020016000206000820151816000015560208201518160010160006101000a81548160ff021916908315150217905550604082015181600201556060820151816003015560808201518160040155905050505050505050565b61063f610d05565b6003600083815260200190815260200160002060405180602001604052908160008201805461066d906114c5565b80601f0160208091040260200160405190810160405280929190818152602001828054610699906114c5565b80156106e65780601f106106bb576101008083540402835291602001916106e6565b820191906000526020600020905b8154815290600101906020018083116106c957829003601f168201915b5050505050815250509050919050565b6106fe6108e5565b6004548310610742576040517f08c379a000000000000000000000000000000000000000000000000000000000815260040161073990611823565b60405180910390fd5b604051806020016040528083838080601f016020809104026020016040519081016040528093929190818152602001838380828437600081840152601f19601f820116905080830192505050505050508152506003600085815260200190815260200160002060008201518160000190816107bd91906116a2565b50905050505050565b60008060009054906101000a900473ffffffffffffffffffffffffffffffffffffffff16905090565b6107f7610d18565b600560008381526020019081526020016000206040518060a0016040529081600082015481526020016001820160009054906101000a900460ff1615151515815260200160028201548152602001600382015481526020016004820154815250509050919050565b6108676108e5565b600073ffffffffffffffffffffffffffffffffffffffff168173ffffffffffffffffffffffffffffffffffffffff16036108d95760006040517f1e4fbdf70000000000000000000000000000000000000000000000000000000081526004016108d0919061124f565b60405180910390fd5b6108e2816109eb565b50565b6108ed610aaf565b73ffffffffffffffffffffffffffffffffffffffff1661090b6107c6565b73ffffffffffffffffffffffffffffffffffffffff161461096a5761092e610aaf565b6040517f118cdaa7000000000000000000000000000000000000000000000000000000008152600401610961919061124f565b60405180910390fd5b565b6109e6838473ffffffffffffffffffffffffffffffffffffffff1663a9059cbb858560405160240161099f929190611852565b604051602081830303815290604052915060e01b6020820180517bffffffffffffffffffffffffffffffffffffffffffffffffffffffff8381831617835250505050610ab7565b505050565b60008060009054906101000a900473ffffffffffffffffffffffffffffffffffffffff169050816000806101000a81548173ffffffffffffffffffffffffffffffffffffffff021916908373ffffffffffffffffffffffffffffffffffffffff1602179055508173ffffffffffffffffffffffffffffffffffffffff168173ffffffffffffffffffffffffffffffffffffffff167f8be0079c531659141344cd1fd0a4f28419497f9722a3daafe3b4186f6b6457e060405160405180910390a35050565b600033905090565b6000610ae2828473ffffffffffffffffffffffffffffffffffffffff16610b4e90919063ffffffff16565b90506000815114158015610b07575080806020019051810190610b059190611890565b155b15610b4957826040517f5274afe7000000000000000000000000000000000000000000000000000000008152600401610b40919061124f565b60405180910390fd5b505050565b6060610b5c83836000610b64565b905092915050565b606081471015610bab57306040517fcd786059000000000000000000000000000000000000000000000000000000008152600401610ba2919061124f565b60405180910390fd5b6000808573ffffffffffffffffffffffffffffffffffffffff168486604051610bd491906118ee565b60006040518083038185875af1925050503d8060008114610c11576040519150601f19603f3d011682016040523d82523d6000602084013e610c16565b606091505b5091509150610c26868383610c31565b925050509392505050565b606082610c4657610c4182610cc0565b610cb8565b60008251148015610c6e575060008473ffffffffffffffffffffffffffffffffffffffff163b145b15610cb057836040517f9996b315000000000000000000000000000000000000000000000000000000008152600401610ca7919061124f565b60405180910390fd5b819050610cb9565b5b9392505050565b600081511115610cd35780518082602001fd5b6040517f1425ea4200000000000000000000000000000000000000000000000000000000815260040160405180910390fd5b6040518060200160405280606081525090565b6040518060a00160405280600081526020016000151581526020016000815260200160008152602001600081525090565b600080fd5b600080fd5b600073ffffffffffffffffffffffffffffffffffffffff82169050919050565b6000610d7e82610d53565b9050919050565b610d8e81610d73565b8114610d9957600080fd5b50565b600081359050610dab81610d85565b92915050565b6000819050919050565b610dc481610db1565b8114610dcf57600080fd5b50565b600081359050610de181610dbb565b92915050565b600080600060608486031215610e0057610dff610d49565b5b6000610e0e86828701610d9c565b9350506020610e1f86828701610d9c565b9250506040610e3086828701610dd2565b9150509250925092565b60008115159050919050565b610e4f81610e3a565b8114610e5a57600080fd5b50565b600081359050610e6c81610e46565b92915050565b600060208284031215610e8857610e87610d49565b5b6000610e9684828501610e5d565b91505092915050565b6000610eaa82610d53565b9050919050565b610eba81610e9f565b8114610ec557600080fd5b50565b600081359050610ed781610eb1565b92915050565b60008060408385031215610ef457610ef3610d49565b5b6000610f0285828601610ec8565b9250506020610f1385828601610dd2565b9150509250929050565b600060208284031215610f3357610f32610d49565b5b6000610f4184828501610dd2565b91505092915050565b600080fd5b600080fd5b600080fd5b60008083601f840112610f6f57610f6e610f4a565b5b8235905067ffffffffffffffff811115610f8c57610f8b610f4f565b5b602083019150836001820283011115610fa857610fa7610f54565b5b9250929050565b60008060208385031215610fc657610fc5610d49565b5b600083013567ffffffffffffffff811115610fe457610fe3610d4e565b5b610ff085828601610f59565b92509250509250929050565b600080600080600060a0868803121561101857611017610d49565b5b600061102688828901610dd2565b955050602061103788828901610e5d565b945050604061104888828901610dd2565b935050606061105988828901610dd2565b925050608061106a88828901610dd2565b9150509295509295909350565b60008060008060008060c0878903121561109457611093610d49565b5b60006110a289828a01610dd2565b96505060206110b389828a01610dd2565b95505060406110c489828a01610e5d565b94505060606110d589828a01610dd2565b93505060806110e689828a01610dd2565b92505060a06110f789828a01610dd2565b9150509295509295509295565b600081519050919050565b600082825260208201905092915050565b60005b8381101561113e578082015181840152602081019050611123565b60008484015250505050565b6000601f19601f8301169050919050565b600061116682611104565b611170818561110f565b9350611180818560208601611120565b6111898161114a565b840191505092915050565b600060208301600083015184820360008601526111b1828261115b565b9150508091505092915050565b600060208201905081810360008301526111d88184611194565b905092915050565b6000806000604084860312156111f9576111f8610d49565b5b600061120786828701610dd2565b935050602084013567ffffffffffffffff81111561122857611227610d4e565b5b61123486828701610f59565b92509250509250925092565b61124981610d73565b82525050565b60006020820190506112646000830184611240565b92915050565b61127381610db1565b82525050565b61128281610e3a565b82525050565b60a08201600082015161129e600085018261126a565b5060208201516112b16020850182611279565b5060408201516112c4604085018261126a565b5060608201516112d7606085018261126a565b5060808201516112ea608085018261126a565b50505050565b600060a0820190506113056000830184611288565b92915050565b60006020828403121561132157611320610d49565b5b600061132f84828501610d9c565b91505092915050565b600081905092915050565b50565b6000611353600083611338565b915061135e82611343565b600082019050919050565b600061137482611346565b9150819050919050565b600082825260208201905092915050565b7f4661696c656420746f2073656e64204574686572000000000000000000000000600082015250565b60006113c560148361137e565b91506113d08261138f565b602082019050919050565b600060208201905081810360008301526113f4816113b8565b9050919050565b7f53657276696365204944206e6f7420666f756e642e0000000000000000000000600082015250565b600061143160158361137e565b915061143c826113fb565b602082019050919050565b6000602082019050818103600083015261146081611424565b9050919050565b7f4e487b7100000000000000000000000000000000000000000000000000000000600052604160045260246000fd5b7f4e487b7100000000000000000000000000000000000000000000000000000000600052602260045260246000fd5b600060028204905060018216806114dd57607f821691505b6020821081036114f0576114ef611496565b5b50919050565b60008190508160005260206000209050919050565b60006020601f8301049050919050565b600082821b905092915050565b6000600883026115587fffffffffffffffffffffffffffffffffffffffffffffffffffffffffffffffff8261151b565b611562868361151b565b95508019841693508086168417925050509392505050565b6000819050919050565b600061159f61159a61159584610db1565b61157a565b610db1565b9050919050565b6000819050919050565b6115b983611584565b6115cd6115c5826115a6565b848454611528565b825550505050565b600090565b6115e26115d5565b6115ed8184846115b0565b505050565b5b81811015611611576116066000826115da565b6001810190506115f3565b5050565b601f82111561165657611627816114f6565b6116308461150b565b8101602085101561163f578190505b61165361164b8561150b565b8301826115f2565b50505b505050565b600082821c905092915050565b60006116796000198460080261165b565b1980831691505092915050565b60006116928383611668565b9150826002028217905092915050565b6116ab82611104565b67ffffffffffffffff8111156116c4576116c3611467565b5b6116ce82546114c5565b6116d9828285611615565b600060209050601f83116001811461170c57600084156116fa578287015190505b6117048582611686565b86555061176c565b601f19841661171a866114f6565b60005b828110156117425784890151825560018201915060208501945060208101905061171d565b8683101561175f578489015161175b601f891682611668565b8355505b6001600288020188555050505b505050505050565b7f4e487b7100000000000000000000000000000000000000000000000000000000600052601160045260246000fd5b60006117ae82610db1565b91506117b983610db1565b92508282019050808211156117d1576117d0611774565b5b92915050565b7f536572766963652070726f7669646572206e6f7420666f756e642e0000000000600082015250565b600061180d601b8361137e565b9150611818826117d7565b602082019050919050565b6000602082019050818103600083015261183c81611800565b9050919050565b61184c81610db1565b82525050565b60006040820190506118676000830185611240565b6118746020830184611843565b9392505050565b60008151905061188a81610e46565b92915050565b6000602082840312156118a6576118a5610d49565b5b60006118b48482850161187b565b91505092915050565b60006118c882611104565b6118d28185611338565b93506118e2818560208601611120565b80840191505092915050565b60006118fa82846118bd565b91508190509291505056fea2646970667358221220b22af3a81ca54884d7622ccc63ef8748fe0a144026ef7d95c69db20bdb49d5cf64736f6c63430008180033",
  "linkReferences": {},
  "deployedLinkReferences": {}
}