{
  "_format": "hh-sol-artifact-1",
  "contractName": "ChainlinkRateDistribution",
  "sourceName": "contracts/ChainlinkRateDistribution.sol",
  "abi": [
    {
      "inputs": [
        {
          "internalType": "address",
          "name": "_token",
          "type": "address"
        },
        {
          "internalType": "bool",
          "name": "_paused",
          "type": "bool"
        },
        {
          "internalType": "bool",
          "name": "_multiply",
          "type": "bool"
        },
        {
          "internalType": "uint256",
          "name": "_minimumAmount",
          "type": "uint256"
        }
      ],
      "stateMutability": "nonpayable",
      "type": "constructor"
    },
    {
      "inputs": [
        {
          "internalType": "address",
          "name": "target",
          "type": "address"
        }
      ],
      "name": "AddressEmptyCode",
      "type": "error"
    },
    {
      "inputs": [
        {
          "internalType": "address",
          "name": "account",
          "type": "address"
        }
      ],
      "name": "AddressInsufficientBalance",
      "type": "error"
    },
    {
      "inputs": [],
      "name": "FailedInnerCall",
      "type": "error"
    },
    {
      "inputs": [
        {
          "internalType": "address",
          "name": "owner",
          "type": "address"
        }
      ],
      "name": "OwnableInvalidOwner",
      "type": "error"
    },
    {
      "inputs": [
        {
          "internalType": "address",
          "name": "account",
          "type": "address"
        }
      ],
      "name": "OwnableUnauthorizedAccount",
      "type": "error"
    },
    {
      "inputs": [
        {
          "internalType": "address",
          "name": "token",
          "type": "address"
        }
      ],
      "name": "SafeERC20FailedOperation",
      "type": "error"
    },
    {
      "anonymous": false,
      "inputs": [
        {
          "indexed": true,
          "internalType": "address",
          "name": "previousOwner",
          "type": "address"
        },
        {
          "indexed": true,
          "internalType": "address",
          "name": "newOwner",
          "type": "address"
        }
      ],
      "name": "OwnershipTransferred",
      "type": "event"
    },
    {
      "inputs": [],
      "name": "getChainlinkDataFeedLatestAnswer",
      "outputs": [
        {
          "internalType": "int256",
          "name": "",
          "type": "int256"
        }
      ],
      "stateMutability": "view",
      "type": "function"
    },
    {
      "inputs": [],
      "name": "owner",
      "outputs": [
        {
          "internalType": "address",
          "name": "",
          "type": "address"
        }
      ],
      "stateMutability": "view",
      "type": "function"
    },
    {
      "inputs": [],
      "name": "renounceOwnership",
      "outputs": [],
      "stateMutability": "nonpayable",
      "type": "function"
    },
    {
      "inputs": [
        {
          "internalType": "uint256",
          "name": "_minimumAmount",
          "type": "uint256"
        }
      ],
      "name": "setMinimumAmount",
      "outputs": [],
      "stateMutability": "nonpayable",
      "type": "function"
    },
    {
      "inputs": [
        {
          "internalType": "bool",
          "name": "_multiply",
          "type": "bool"
        }
      ],
      "name": "setMultiply",
      "outputs": [],
      "stateMutability": "nonpayable",
      "type": "function"
    },
    {
      "inputs": [
        {
          "internalType": "bool",
          "name": "_paused",
          "type": "bool"
        }
      ],
      "name": "setPaused",
      "outputs": [],
      "stateMutability": "nonpayable",
      "type": "function"
    },
    {
      "inputs": [
        {
          "internalType": "address",
          "name": "newOwner",
          "type": "address"
        }
      ],
      "name": "transferOwnership",
      "outputs": [],
      "stateMutability": "nonpayable",
      "type": "function"
    },
    {
      "inputs": [
        {
          "internalType": "address payable",
          "name": "_to",
          "type": "address"
        },
        {
          "internalType": "uint256",
          "name": "amount",
          "type": "uint256"
        }
      ],
      "name": "withdrawETH",
      "outputs": [],
      "stateMutability": "nonpayable",
      "type": "function"
    },
    {
      "inputs": [
        {
          "internalType": "address",
          "name": "tokenAddress",
          "type": "address"
        },
        {
          "internalType": "address",
          "name": "to",
          "type": "address"
        },
        {
          "internalType": "uint256",
          "name": "amount",
          "type": "uint256"
        }
      ],
      "name": "withdrawToken",
      "outputs": [],
      "stateMutability": "nonpayable",
      "type": "function"
    },
    {
      "stateMutability": "payable",
      "type": "receive"
    }
  ],
  "bytecode": "0x60806040523480156200001157600080fd5b506040516200167638038062001676833981810160405281019062000037919062000340565b33600073ffffffffffffffffffffffffffffffffffffffff168173ffffffffffffffffffffffffffffffffffffffff1603620000ad5760006040517f1e4fbdf7000000000000000000000000000000000000000000000000000000008152600401620000a49190620003c3565b60405180910390fd5b620000be816200019a60201b60201c565b5082600260146101000a81548160ff02191690831515021790555081600260156101000a81548160ff0219169083151502179055508060038190555083600260006101000a81548173ffffffffffffffffffffffffffffffffffffffff021916908373ffffffffffffffffffffffffffffffffffffffff16021790555073694aa1769357215de4fac081bf1f309adc325306600160006101000a81548173ffffffffffffffffffffffffffffffffffffffff021916908373ffffffffffffffffffffffffffffffffffffffff16021790555050505050620003e0565b60008060009054906101000a900473ffffffffffffffffffffffffffffffffffffffff169050816000806101000a81548173ffffffffffffffffffffffffffffffffffffffff021916908373ffffffffffffffffffffffffffffffffffffffff1602179055508173ffffffffffffffffffffffffffffffffffffffff168173ffffffffffffffffffffffffffffffffffffffff167f8be0079c531659141344cd1fd0a4f28419497f9722a3daafe3b4186f6b6457e060405160405180910390a35050565b600080fd5b600073ffffffffffffffffffffffffffffffffffffffff82169050919050565b6000620002908262000263565b9050919050565b620002a28162000283565b8114620002ae57600080fd5b50565b600081519050620002c28162000297565b92915050565b60008115159050919050565b620002df81620002c8565b8114620002eb57600080fd5b50565b600081519050620002ff81620002d4565b92915050565b6000819050919050565b6200031a8162000305565b81146200032657600080fd5b50565b6000815190506200033a816200030f565b92915050565b600080600080608085870312156200035d576200035c6200025e565b5b60006200036d87828801620002b1565b94505060206200038087828801620002ee565b93505060406200039387828801620002ee565b9250506060620003a68782880162000329565b91505092959194509250565b620003bd8162000283565b82525050565b6000602082019050620003da6000830184620003b2565b92915050565b61128680620003f06000396000f3fe60806040526004361061008a5760003560e01c80638da5cb5b116100595780638da5cb5b1461032d578063bea4dfb514610358578063eeb4a9c814610383578063f170d20d146103ac578063f2fde38b146103d557610296565b806301e336671461029b57806316c38b3c146102c45780634782f779146102ed578063715018a61461031657610296565b36610296576003543410156100d4576040517f08c379a00000000000000000000000000000000000000000000000000000000081526004016100cb90610b2c565b60405180910390fd5b600260149054906101000a900460ff1615610124576040517f08c379a000000000000000000000000000000000000000000000000000000000815260040161011b90610b98565b60405180910390fd5b600061012e6103fe565b90506000600260159054906101000a900460ff161561015a5781346101539190610bf1565b9050610169565b81346101669190610c62565b90505b600260009054906101000a900473ffffffffffffffffffffffffffffffffffffffff1673ffffffffffffffffffffffffffffffffffffffff166370a08231306040518263ffffffff1660e01b81526004016101c49190610cd4565b602060405180830381865afa1580156101e1573d6000803e3d6000fd5b505050506040513d601f19601f820116820180604052508101906102059190610d20565b811115610247576040517f08c379a000000000000000000000000000000000000000000000000000000000815260040161023e90610d99565b60405180910390fd5b6102943382600260009054906101000a900473ffffffffffffffffffffffffffffffffffffffff1673ffffffffffffffffffffffffffffffffffffffff1661049f9092919063ffffffff16565b005b600080fd5b3480156102a757600080fd5b506102c260048036038101906102bd9190610dfa565b61051e565b005b3480156102d057600080fd5b506102eb60048036038101906102e69190610e85565b610556565b005b3480156102f957600080fd5b50610314600480360381019061030f9190610ef0565b61057b565b005b34801561032257600080fd5b5061032b610634565b005b34801561033957600080fd5b50610342610648565b60405161034f9190610cd4565b60405180910390f35b34801561036457600080fd5b5061036d6103fe565b60405161037a9190610f49565b60405180910390f35b34801561038f57600080fd5b506103aa60048036038101906103a59190610f64565b610671565b005b3480156103b857600080fd5b506103d360048036038101906103ce9190610e85565b610683565b005b3480156103e157600080fd5b506103fc60048036038101906103f79190610f91565b6106a8565b005b600080600160009054906101000a900473ffffffffffffffffffffffffffffffffffffffff1673ffffffffffffffffffffffffffffffffffffffff1663feaf968c6040518163ffffffff1660e01b815260040160a060405180830381865afa15801561046e573d6000803e3d6000fd5b505050506040513d601f19601f82011682018060405250810190610492919061102c565b5050509150508091505090565b610519838473ffffffffffffffffffffffffffffffffffffffff1663a9059cbb85856040516024016104d29291906110b6565b604051602081830303815290604052915060e01b6020820180517bffffffffffffffffffffffffffffffffffffffffffffffffffffffff838183161783525050505061072e565b505050565b6105266107c5565b61055182828573ffffffffffffffffffffffffffffffffffffffff1661049f9092919063ffffffff16565b505050565b61055e6107c5565b80600260146101000a81548160ff02191690831515021790555050565b6105836107c5565b60008273ffffffffffffffffffffffffffffffffffffffff16826040516105a990611110565b60006040518083038185875af1925050503d80600081146105e6576040519150601f19603f3d011682016040523d82523d6000602084013e6105eb565b606091505b505090508061062f576040517f08c379a000000000000000000000000000000000000000000000000000000000815260040161062690611171565b60405180910390fd5b505050565b61063c6107c5565b610646600061084c565b565b60008060009054906101000a900473ffffffffffffffffffffffffffffffffffffffff16905090565b6106796107c5565b8060038190555050565b61068b6107c5565b80600260156101000a81548160ff02191690831515021790555050565b6106b06107c5565b600073ffffffffffffffffffffffffffffffffffffffff168173ffffffffffffffffffffffffffffffffffffffff16036107225760006040517f1e4fbdf70000000000000000000000000000000000000000000000000000000081526004016107199190610cd4565b60405180910390fd5b61072b8161084c565b50565b6000610759828473ffffffffffffffffffffffffffffffffffffffff1661091090919063ffffffff16565b9050600081511415801561077e57508080602001905181019061077c91906111a6565b155b156107c057826040517f5274afe70000000000000000000000000000000000000000000000000000000081526004016107b79190610cd4565b60405180910390fd5b505050565b6107cd610926565b73ffffffffffffffffffffffffffffffffffffffff166107eb610648565b73ffffffffffffffffffffffffffffffffffffffff161461084a5761080e610926565b6040517f118cdaa70000000000000000000000000000000000000000000000000000000081526004016108419190610cd4565b60405180910390fd5b565b60008060009054906101000a900473ffffffffffffffffffffffffffffffffffffffff169050816000806101000a81548173ffffffffffffffffffffffffffffffffffffffff021916908373ffffffffffffffffffffffffffffffffffffffff1602179055508173ffffffffffffffffffffffffffffffffffffffff168173ffffffffffffffffffffffffffffffffffffffff167f8be0079c531659141344cd1fd0a4f28419497f9722a3daafe3b4186f6b6457e060405160405180910390a35050565b606061091e8383600061092e565b905092915050565b600033905090565b60608147101561097557306040517fcd78605900000000000000000000000000000000000000000000000000000000815260040161096c9190610cd4565b60405180910390fd5b6000808573ffffffffffffffffffffffffffffffffffffffff16848660405161099e9190611239565b60006040518083038185875af1925050503d80600081146109db576040519150601f19603f3d011682016040523d82523d6000602084013e6109e0565b606091505b50915091506109f08683836109fb565b925050509392505050565b606082610a1057610a0b82610a8a565b610a82565b60008251148015610a38575060008473ffffffffffffffffffffffffffffffffffffffff163b145b15610a7a57836040517f9996b315000000000000000000000000000000000000000000000000000000008152600401610a719190610cd4565b60405180910390fd5b819050610a83565b5b9392505050565b600081511115610a9d5780518082602001fd5b6040517f1425ea4200000000000000000000000000000000000000000000000000000000815260040160405180910390fd5b600082825260208201905092915050565b7f496e73756666696369656e74204554482070726f76696465642e000000000000600082015250565b6000610b16601a83610acf565b9150610b2182610ae0565b602082019050919050565b60006020820190508181036000830152610b4581610b09565b9050919050565b7f446973747269627574696f6e206973207061757365642e000000000000000000600082015250565b6000610b82601783610acf565b9150610b8d82610b4c565b602082019050919050565b60006020820190508181036000830152610bb181610b75565b9050919050565b6000819050919050565b7f4e487b7100000000000000000000000000000000000000000000000000000000600052601160045260246000fd5b6000610bfc82610bb8565b9150610c0783610bb8565b9250828202610c1581610bb8565b91508282048414831517610c2c57610c2b610bc2565b5b5092915050565b7f4e487b7100000000000000000000000000000000000000000000000000000000600052601260045260246000fd5b6000610c6d82610bb8565b9150610c7883610bb8565b925082610c8857610c87610c33565b5b828204905092915050565b600073ffffffffffffffffffffffffffffffffffffffff82169050919050565b6000610cbe82610c93565b9050919050565b610cce81610cb3565b82525050565b6000602082019050610ce96000830184610cc5565b92915050565b600080fd5b610cfd81610bb8565b8114610d0857600080fd5b50565b600081519050610d1a81610cf4565b92915050565b600060208284031215610d3657610d35610cef565b5b6000610d4484828501610d0b565b91505092915050565b7f4e6f7420656e6f75676820746f6b656e7320617661696c61626c652e00000000600082015250565b6000610d83601c83610acf565b9150610d8e82610d4d565b602082019050919050565b60006020820190508181036000830152610db281610d76565b9050919050565b610dc281610cb3565b8114610dcd57600080fd5b50565b600081359050610ddf81610db9565b92915050565b600081359050610df481610cf4565b92915050565b600080600060608486031215610e1357610e12610cef565b5b6000610e2186828701610dd0565b9350506020610e3286828701610dd0565b9250506040610e4386828701610de5565b9150509250925092565b60008115159050919050565b610e6281610e4d565b8114610e6d57600080fd5b50565b600081359050610e7f81610e59565b92915050565b600060208284031215610e9b57610e9a610cef565b5b6000610ea984828501610e70565b91505092915050565b6000610ebd82610c93565b9050919050565b610ecd81610eb2565b8114610ed857600080fd5b50565b600081359050610eea81610ec4565b92915050565b60008060408385031215610f0757610f06610cef565b5b6000610f1585828601610edb565b9250506020610f2685828601610de5565b9150509250929050565b6000819050919050565b610f4381610f30565b82525050565b6000602082019050610f5e6000830184610f3a565b92915050565b600060208284031215610f7a57610f79610cef565b5b6000610f8884828501610de5565b91505092915050565b600060208284031215610fa757610fa6610cef565b5b6000610fb584828501610dd0565b91505092915050565b600069ffffffffffffffffffff82169050919050565b610fdd81610fbe565b8114610fe857600080fd5b50565b600081519050610ffa81610fd4565b92915050565b61100981610f30565b811461101457600080fd5b50565b60008151905061102681611000565b92915050565b600080600080600060a0868803121561104857611047610cef565b5b600061105688828901610feb565b955050602061106788828901611017565b945050604061107888828901610d0b565b935050606061108988828901610d0b565b925050608061109a88828901610feb565b9150509295509295909350565b6110b081610bb8565b82525050565b60006040820190506110cb6000830185610cc5565b6110d860208301846110a7565b9392505050565b600081905092915050565b50565b60006110fa6000836110df565b9150611105826110ea565b600082019050919050565b600061111b826110ed565b9150819050919050565b7f4661696c656420746f2073656e64204574686572000000000000000000000000600082015250565b600061115b601483610acf565b915061116682611125565b602082019050919050565b6000602082019050818103600083015261118a8161114e565b9050919050565b6000815190506111a081610e59565b92915050565b6000602082840312156111bc576111bb610cef565b5b60006111ca84828501611191565b91505092915050565b600081519050919050565b60005b838110156111fc5780820151818401526020810190506111e1565b60008484015250505050565b6000611213826111d3565b61121d81856110df565b935061122d8185602086016111de565b80840191505092915050565b60006112458284611208565b91508190509291505056fea264697066735822122020f58df3dee6fc634a0ea2d7350b2368b183c57eccc91bcce74d2d904cb2174f64736f6c63430008180033",
  "linkReferences": {},
  "deployedLinkReferences": {}
}